{
  "address": "0xf8C99aF1169023Ab0CB35D1510Be0f3Cd3789949",
  "abi": [
    {
      "inputs": [
        {
          "internalType": "address",
          "name": "_registry",
          "type": "address"
        },
        {
          "internalType": "address",
          "name": "_uniswapRouter",
          "type": "address"
        },
        {
          "internalType": "address",
          "name": "_sushiswapRouter",
          "type": "address"
        }
      ],
      "stateMutability": "nonpayable",
      "type": "constructor"
    },
    {
      "inputs": [
        {
          "internalType": "address",
          "name": "from",
          "type": "address"
        },
        {
          "internalType": "address",
          "name": "to",
          "type": "address"
        }
      ],
      "name": "getSwapInfo",
      "outputs": [
        {
          "internalType": "address",
          "name": "router",
          "type": "address"
        },
        {
          "internalType": "address[]",
          "name": "path",
          "type": "address[]"
        }
      ],
      "stateMutability": "view",
      "type": "function"
    },
    {
      "inputs": [],
      "name": "governance",
      "outputs": [
        {
          "internalType": "address",
          "name": "",
          "type": "address"
        }
      ],
      "stateMutability": "view",
      "type": "function"
    },
    {
      "inputs": [
        {
          "internalType": "address",
          "name": "recipient",
          "type": "address"
        },
        {
          "internalType": "address",
          "name": "from",
          "type": "address"
        },
        {
          "internalType": "address",
          "name": "to",
          "type": "address"
        },
        {
          "internalType": "uint256",
          "name": "amount",
          "type": "uint256"
        },
        {
          "internalType": "uint256",
          "name": "minOut",
          "type": "uint256"
        }
      ],
      "name": "liquidate",
      "outputs": [
        {
          "internalType": "uint256",
          "name": "",
          "type": "uint256"
        }
      ],
      "stateMutability": "nonpayable",
      "type": "function"
    },
    {
      "inputs": [],
      "name": "manager",
      "outputs": [
        {
          "internalType": "address",
          "name": "",
          "type": "address"
        }
      ],
      "stateMutability": "view",
      "type": "function"
    },
    {
      "inputs": [],
      "name": "registry",
      "outputs": [
        {
          "internalType": "address",
          "name": "",
          "type": "address"
        }
      ],
      "stateMutability": "view",
      "type": "function"
    },
    {
      "inputs": [
        {
          "internalType": "address",
          "name": "registry_",
          "type": "address"
        }
      ],
      "name": "setRegistry",
      "outputs": [],
      "stateMutability": "nonpayable",
      "type": "function"
    },
    {
      "inputs": [
        {
          "internalType": "address",
          "name": "from",
          "type": "address"
        },
        {
          "internalType": "address",
          "name": "to",
          "type": "address"
        },
        {
          "internalType": "address[]",
          "name": "path",
          "type": "address[]"
        }
      ],
      "name": "setSushiswapRoutes",
      "outputs": [],
      "stateMutability": "nonpayable",
      "type": "function"
    },
    {
      "inputs": [
        {
          "internalType": "address",
          "name": "from",
          "type": "address"
        },
        {
          "internalType": "address",
          "name": "to",
          "type": "address"
        },
        {
          "internalType": "address[]",
          "name": "path",
          "type": "address[]"
        }
      ],
      "name": "setUniswapRoutes",
      "outputs": [],
      "stateMutability": "nonpayable",
      "type": "function"
    },
    {
      "inputs": [],
      "name": "sushiswapRouter",
      "outputs": [
        {
          "internalType": "address",
          "name": "",
          "type": "address"
        }
      ],
      "stateMutability": "view",
      "type": "function"
    },
    {
      "inputs": [
        {
          "internalType": "address",
          "name": "",
          "type": "address"
        },
        {
          "internalType": "address",
          "name": "",
          "type": "address"
        },
        {
          "internalType": "uint256",
          "name": "",
          "type": "uint256"
        }
      ],
      "name": "sushiswapRoutes",
      "outputs": [
        {
          "internalType": "address",
          "name": "",
          "type": "address"
        }
      ],
      "stateMutability": "view",
      "type": "function"
    },
    {
      "inputs": [
        {
          "internalType": "address",
          "name": "",
          "type": "address"
        },
        {
          "internalType": "address",
          "name": "",
          "type": "address"
        }
      ],
      "name": "tokenSwapRouter",
      "outputs": [
        {
          "internalType": "address",
          "name": "",
          "type": "address"
        }
      ],
      "stateMutability": "view",
      "type": "function"
    },
    {
      "inputs": [],
      "name": "uniswapRouter",
      "outputs": [
        {
          "internalType": "address",
          "name": "",
          "type": "address"
        }
      ],
      "stateMutability": "view",
      "type": "function"
    },
    {
      "inputs": [
        {
          "internalType": "address",
          "name": "",
          "type": "address"
        },
        {
          "internalType": "address",
          "name": "",
          "type": "address"
        },
        {
          "internalType": "uint256",
          "name": "",
          "type": "uint256"
        }
      ],
      "name": "uniswapRoutes",
      "outputs": [
        {
          "internalType": "address",
          "name": "",
          "type": "address"
        }
      ],
      "stateMutability": "view",
      "type": "function"
    },
    {
      "inputs": [],
      "name": "weth",
      "outputs": [
        {
          "internalType": "address",
          "name": "",
          "type": "address"
        }
      ],
      "stateMutability": "view",
      "type": "function"
    }
  ],
  "transactionHash": "0xf581abdb856cd79f6ca2d8e299b31ea6f9964c45b181e0577111f6b1b58da6fd",
  "args": [
    "0x2bA8E99Fedc439da742F023D43b224E3d28eDf5e",
    "0x7a250d5630B4cF539739dF2C5dAcb4c659F2488D",
    "0x1b02dA8Cb0d097eB8D57A175b88c7D8b47997506"
  ],
  "solcInputHash": "c029f0aa65e9de4be775e65679cfa07f",
  "bytecode": "0x608060405234801561001057600080fd5b506040516115b23803806115b28339818101604052606081101561003357600080fd5b50805160208083015160409093015191929190839061005b908290610f0b61016e821b17901c565b6100ac576040805162461bcd60e51b815260206004820152601c60248201527f537562736372696265723a20496e76616c696420526567697374727900000000604482015290519081900360640190fd5b600080546001600160a01b03199081166001600160a01b039384161790915560048054821684841617815560058054909216928516928317909155604080516315ab88c960e31b8152905163ad5c464892828101926020929190829003018186803b15801561011a57600080fd5b505afa15801561012e573d6000803e3d6000fd5b505050506040513d602081101561014457600080fd5b5051600680546001600160a01b0319166001600160a01b0390921691909117905550610174915050565b3b151590565b61142f806101836000396000f3fe608060405234801561001057600080fd5b50600436106100ea5760003560e01c80637b1039991161008c578063ae39ecfc11610066578063ae39ecfc1461035d578063b066223f146103ef578063cdeb1ccd1461041d578063e9240c2d14610453576100ea565b80637b103999146102f9578063a91ee0dc14610301578063a9e696db14610327576100ea565b8063481c6a75116100c8578063481c6a751461028d5780635aa6e675146102955780636f70e66f1461029d578063735de9f7146102f1576100ea565b806310f7a242146100ef5780633fc8cef3146101ad57806341e8018f146101d1575b600080fd5b6101ab6004803603606081101561010557600080fd5b6001600160a01b03823581169260208101359091169181019060608101604082013564010000000081111561013957600080fd5b82018360208201111561014b57600080fd5b8035906020019184602083028401116401000000008311171561016d57600080fd5b91908080602002602001604051908101604052809392919081815260200183836020028082843760009201919091525092955061045b945050505050565b005b6101b5610638565b604080516001600160a01b039092168252519081900360200190f35b6101ab600480360360608110156101e757600080fd5b6001600160a01b03823581169260208101359091169181019060608101604082013564010000000081111561021b57600080fd5b82018360208201111561022d57600080fd5b8035906020019184602083028401116401000000008311171561024f57600080fd5b919080806020026020016040519081016040528093929190818152602001838360200280828437600092019190915250929550610647945050505050565b6101b561081d565b6101b5610890565b6102df600480360360a08110156102b357600080fd5b506001600160a01b038135811691602081013582169160408201351690606081013590608001356108d2565b60408051918252519081900360200190f35b6101b5610b74565b6101b5610b83565b6101ab6004803603602081101561031757600080fd5b50356001600160a01b0316610b92565b6101b56004803603606081101561033d57600080fd5b506001600160a01b03813581169160208101359091169060400135610ce4565b61038b6004803603604081101561037357600080fd5b506001600160a01b0381358116916020013516610d29565b60405180836001600160a01b0316815260200180602001828103825283818151815260200191508051906020019060200280838360005b838110156103da5781810151838201526020016103c2565b50505050905001935050505060405180910390f35b6101b56004803603604081101561040557600080fd5b506001600160a01b0381358116916020013516610eae565b6101b56004803603606081101561043357600080fd5b506001600160a01b03813581169160208101359091169060400135610ed4565b6101b5610efc565b610463610890565b6001600160a01b0316336001600160a01b0316146104c8576040805162461bcd60e51b815260206004820152601b60248201527f537562736372696265723a204f6e6c7920476f7665726e616e63650000000000604482015290519081900360640190fd5b8051816000826104d457fe5b60200260200101516001600160a01b0316846001600160a01b031614610541576040805162461bcd60e51b815260206004820152601c60248201527f5365745375736869526f757465733a20496e76616c69642046726f6d00000000604482015290519081900360640190fd5b81600182038151811061055057fe5b60200260200101516001600160a01b0316836001600160a01b0316146105bd576040805162461bcd60e51b815260206004820152601a60248201527f5365745375736869526f757465733a20496e76616c696420546f000000000000604482015290519081900360640190fd5b6001600160a01b038085166000908152600160209081526040808320938716835292815291902083516105f29285019061132f565b50506004546001600160a01b03938416600090815260036020908152604080832095871683529490529290922080546001600160a01b0319169390921692909217905550565b6006546001600160a01b031681565b61064f610890565b6001600160a01b0316336001600160a01b0316146106b4576040805162461bcd60e51b815260206004820152601b60248201527f537562736372696265723a204f6e6c7920476f7665726e616e63650000000000604482015290519081900360640190fd5b8051816000826106c057fe5b60200260200101516001600160a01b0316846001600160a01b03161461072d576040805162461bcd60e51b815260206004820152601860248201527f4c697175696461746f723a20496e76616c69642046726f6d0000000000000000604482015290519081900360640190fd5b81600182038151811061073c57fe5b60200260200101516001600160a01b0316836001600160a01b0316146107a2576040805162461bcd60e51b81526020600482015260166024820152754c697175696461746f723a20496e76616c696420546f60501b604482015290519081900360640190fd5b6001600160a01b038085166000908152600260209081526040808320938716835292815291902083516107d79285019061132f565b50506005546001600160a01b03938416600090815260036020908152604080832095871683529490529290922080546001600160a01b0319169390921692909217905550565b6000610827610b83565b6001600160a01b031663481c6a756040518163ffffffff1660e01b815260040160206040518083038186803b15801561085f57600080fd5b505afa158015610873573d6000803e3d6000fd5b505050506040513d602081101561088957600080fd5b5051905090565b600061089a610b83565b6001600160a01b0316635aa6e6756040518163ffffffff1660e01b815260040160206040518083038186803b15801561085f57600080fd5b6001600160a01b03808516600090815260036020908152604080832087851684529091528120546005549192908116918391168214610935576001600160a01b038088166000908152600160209081526040808320938a1683529290522061095b565b6001600160a01b038088166000908152600260209081526040808320938a168352929052205b8054806020026020016040519081016040528092919081815260200182805480156109af57602002820191906000526020600020905b81546001600160a01b03168152600190910190602001808311610991575b505050505090506109d48286896001600160a01b0316610f119092919063ffffffff16565b6000826001600160a01b03166338ed17398787858d426040518663ffffffff1660e01b81526004018086815260200185815260200180602001846001600160a01b03168152602001838152602001828103825285818151815260200191508051906020019060200280838360005b83811015610a5a578181015183820152602001610a42565b505050509050019650505050505050600060405180830381600087803b158015610a8357600080fd5b505af1158015610a97573d6000803e3d6000fd5b505050506040513d6000823e601f3d908101601f191682016040526020811015610ac057600080fd5b8101908080516040519392919084640100000000821115610ae057600080fd5b908301906020820185811115610af557600080fd5b8251866020820283011164010000000082111715610b1257600080fd5b82525081516020918201928201910280838360005b83811015610b3f578181015183820152602001610b27565b50505050905001604052505050905080600183510381518110610b5e57fe5b6020026020010151935050505095945050505050565b6005546001600160a01b031681565b6000546001600160a01b031690565b610b9a610890565b6001600160a01b0316336001600160a01b031614610bff576040805162461bcd60e51b815260206004820152601b60248201527f537562736372696265723a204f6e6c7920476f7665726e616e63650000000000604482015290519081900360640190fd5b610c0881610f0b565b610c59576040805162461bcd60e51b815260206004820152601c60248201527f537562736372696265723a20496e76616c696420526567697374727900000000604482015290519081900360640190fd5b600080546001600160a01b0319166001600160a01b038316179055610c7c610890565b6001600160a01b0316336001600160a01b031614610ce1576040805162461bcd60e51b815260206004820152601a60248201527f537562736372696265723a2042616420476f7665726e616e6365000000000000604482015290519081900360640190fd5b50565b60016020528260005260406000206020528160005260406000208181548110610d0c57600080fd5b6000918252602090912001546001600160a01b0316925083915050565b6005546001600160a01b0383811660009081526003602090815260408083208685168452909152812054909260609291821691161415610ded576005546001600160a01b0385811660009081526002602090815260408083208885168452825291829020805483518184028101840190945280845293909416955090929190830182828015610de157602002820191906000526020600020905b81546001600160a01b03168152600190910190602001808311610dc3575b50505050509050610ea7565b6004546001600160a01b0385811660009081526003602090815260408083208885168452909152902054811691161415610ea7576004546001600160a01b0385811660009081526001602090815260408083208885168452825291829020805483518184028101840190945280845293909416955090929190830182828015610e9f57602002820191906000526020600020905b81546001600160a01b03168152600190910190602001808311610e81575b505050505090505b9250929050565b60036020908152600092835260408084209091529082529020546001600160a01b031681565b60026020528260005260406000206020528160005260406000208181548110610d0c57600080fd5b6004546001600160a01b031681565b3b151590565b6000610fa782856001600160a01b031663dd62ed3e30876040518363ffffffff1660e01b815260040180836001600160a01b03168152602001826001600160a01b031681526020019250505060206040518083038186803b158015610f7557600080fd5b505afa158015610f89573d6000803e3d6000fd5b505050506040513d6020811015610f9f57600080fd5b505190611002565b604080516001600160a01b038616602482015260448082018490528251808303909101815260649091019091526020810180516001600160e01b031663095ea7b360e01b179052909150610ffc908590611063565b50505050565b60008282018381101561105c576040805162461bcd60e51b815260206004820152601b60248201527f536166654d6174683a206164646974696f6e206f766572666c6f770000000000604482015290519081900360640190fd5b9392505050565b60006110b8826040518060400160405280602081526020017f5361666545524332303a206c6f772d6c6576656c2063616c6c206661696c6564815250856001600160a01b03166111199092919063ffffffff16565b805190915015611114578080602001905160208110156110d757600080fd5b50516111145760405162461bcd60e51b815260040180806020018281038252602a8152602001806113d0602a913960400191505060405180910390fd5b505050565b60606111288484600085611130565b949350505050565b6060824710156111715760405162461bcd60e51b81526004018080602001828103825260268152602001806113aa6026913960400191505060405180910390fd5b61117a85610f0b565b6111cb576040805162461bcd60e51b815260206004820152601d60248201527f416464726573733a2063616c6c20746f206e6f6e2d636f6e7472616374000000604482015290519081900360640190fd5b600080866001600160a01b031685876040518082805190602001908083835b602083106112095780518252601f1990920191602091820191016111ea565b6001836020036101000a03801982511681845116808217855250505050505090500191505060006040518083038185875af1925050503d806000811461126b576040519150601f19603f3d011682016040523d82523d6000602084013e611270565b606091505b509150915061128082828661128b565b979650505050505050565b6060831561129a57508161105c565b8251156112aa5782518084602001fd5b8160405162461bcd60e51b81526004018080602001828103825283818151815260200191508051906020019080838360005b838110156112f45781810151838201526020016112dc565b50505050905090810190601f1680156113215780820380516001836020036101000a031916815260200191505b509250505060405180910390fd5b828054828255906000526020600020908101928215611384579160200282015b8281111561138457825182546001600160a01b0319166001600160a01b0390911617825560209092019160019091019061134f565b50611390929150611394565b5090565b5b80821115611390576000815560010161139556fe416464726573733a20696e73756666696369656e742062616c616e636520666f722063616c6c5361666545524332303a204552433230206f7065726174696f6e20646964206e6f742073756363656564a2646970667358221220d3b342396ab4a3629feb73e2479573fd59581adfd170801af7f690d63c233b5b64736f6c63430007060033",
  "devdoc": {
    "kind": "dev",
    "methods": {
      "constructor": {
        "details": "Internally sets WETH address from Uniswap Router",
        "params": {
          "_registry": "The address of the Registry",
          "_sushiswapRouter": "The address of the Sushiswap RouterV2",
          "_uniswapRouter": "The address of the Uniswap RouterV2"
        }
      },
      "getSwapInfo(address,address)": {
        "params": {
          "from": "The token that we have",
          "to": "The token that we want"
        }
      },
      "governance()": {
        "returns": {
          "_0": "The current Governance address"
        }
      },
      "liquidate(address,address,address,uint256,uint256)": {
        "details": "Send proceeds to the caller, `msg.sender` will typically be a Strategy",
        "params": {
          "amount": "The amount of 'from' tokens to swap",
          "from": "The token we have",
          "minOut": "The minimum output amount accepted",
          "recipient": "The recipient of the swap",
          "to": "The token we want to swap to"
        },
        "returns": {
          "_0": "The amount of 'to' tokens received"
        }
      },
      "manager()": {
        "returns": {
          "_0": "The current Manager address"
        }
      },
      "registry()": {
        "returns": {
          "_0": "The current Registry address"
        }
      },
      "setRegistry(address)": {
        "details": "Requires sender to be Governance of the new Registry to avoid bricking.Ideally should not be used",
        "params": {
          "registry_": "The new registry"
        }
      },
      "setSushiswapRoutes(address,address,address[])": {
        "params": {
          "from": "The token that we have",
          "path": "The swap path used to get the desired token",
          "to": "The token that we want"
        }
      },
      "setUniswapRoutes(address,address,address[])": {
        "params": {
          "from": "The token that we have",
          "path": "The swap path used to get the desired token",
          "to": "The token that we want"
        }
      }
    },
    "title": "Oh! Finance Liquidator",
    "version": 1
  },
  "userdoc": {
    "kind": "user",
    "methods": {
      "constructor": {
        "notice": "Initialize the Liquidator with Uniswap and Sushiswap V2 Router Addresses"
      },
      "getSwapInfo(address,address)": {
        "notice": "Get the router and swap path for a token pair"
      },
      "governance()": {
        "notice": "Get the Governance address"
      },
      "liquidate(address,address,address,uint256,uint256)": {
        "notice": "Liquidate an amount of 'from' tokens to 'to' tokens from this address"
      },
      "manager()": {
        "notice": "Get the Manager address"
      },
      "registry()": {
        "notice": "Get the Registry address"
      },
      "setRegistry(address)": {
        "notice": "Set the Registry for the contract. Only callable by Governance."
      },
      "setSushiswapRoutes(address,address,address[])": {
        "notice": "Set liquidation route for a token pair on Sushiswap"
      },
      "setUniswapRoutes(address,address,address[])": {
        "notice": "Set liquidation route for a token pair on Uniswap"
      },
      "sushiswapRouter()": {
        "notice": "address of Sushiswap RouterV2"
      },
      "sushiswapRoutes(address,address,uint256)": {
        "notice": "mapping of source token to desired token to sushiswap liquidation route"
      },
      "tokenSwapRouter(address,address)": {
        "notice": "mapping of source token to desired token to router used for liquidation"
      },
      "uniswapRouter()": {
        "notice": "address of Uniswap RouterV2"
      },
      "uniswapRoutes(address,address,uint256)": {
        "notice": "mapping of source token to desired token to uniswap liquidation route"
      },
      "weth()": {
        "notice": "address of WETH"
      }
    },
    "notice": "Contract to manage standard token liquidations on Uniswap or Sushiswap",
    "version": 1
  },
  "storageLayout": {
    "storage": [
      {
        "astId": 13145,
        "contract": "contracts/liquidators/OhLiquidator.sol:OhLiquidator",
        "label": "_registry",
        "offset": 0,
        "slot": "0",
        "type": "t_address"
      },
      {
        "astId": 11449,
        "contract": "contracts/liquidators/OhLiquidator.sol:OhLiquidator",
        "label": "sushiswapRoutes",
        "offset": 0,
        "slot": "1",
        "type": "t_mapping(t_address,t_mapping(t_address,t_array(t_address)dyn_storage))"
      },
      {
        "astId": 11457,
        "contract": "contracts/liquidators/OhLiquidator.sol:OhLiquidator",
        "label": "uniswapRoutes",
        "offset": 0,
        "slot": "2",
        "type": "t_mapping(t_address,t_mapping(t_address,t_array(t_address)dyn_storage))"
      },
      {
        "astId": 11464,
        "contract": "contracts/liquidators/OhLiquidator.sol:OhLiquidator",
        "label": "tokenSwapRouter",
        "offset": 0,
        "slot": "3",
        "type": "t_mapping(t_address,t_mapping(t_address,t_address))"
      },
      {
        "astId": 11468,
        "contract": "contracts/liquidators/OhLiquidator.sol:OhLiquidator",
        "label": "sushiswapRouter",
        "offset": 0,
        "slot": "4",
        "type": "t_address"
      },
      {
        "astId": 11472,
        "contract": "contracts/liquidators/OhLiquidator.sol:OhLiquidator",
        "label": "uniswapRouter",
        "offset": 0,
        "slot": "5",
        "type": "t_address"
      },
      {
        "astId": 11476,
        "contract": "contracts/liquidators/OhLiquidator.sol:OhLiquidator",
        "label": "weth",
        "offset": 0,
        "slot": "6",
        "type": "t_address"
      }
    ],
    "types": {
      "t_address": {
        "encoding": "inplace",
        "label": "address",
        "numberOfBytes": "20"
      },
      "t_array(t_address)dyn_storage": {
        "base": "t_address",
        "encoding": "dynamic_array",
        "label": "address[]",
        "numberOfBytes": "32"
      },
      "t_mapping(t_address,t_address)": {
        "encoding": "mapping",
        "key": "t_address",
        "label": "mapping(address => address)",
        "numberOfBytes": "32",
        "value": "t_address"
      },
      "t_mapping(t_address,t_array(t_address)dyn_storage)": {
        "encoding": "mapping",
        "key": "t_address",
        "label": "mapping(address => address[])",
        "numberOfBytes": "32",
        "value": "t_array(t_address)dyn_storage"
      },
      "t_mapping(t_address,t_mapping(t_address,t_address))": {
        "encoding": "mapping",
        "key": "t_address",
        "label": "mapping(address => mapping(address => address))",
        "numberOfBytes": "32",
        "value": "t_mapping(t_address,t_address)"
      },
      "t_mapping(t_address,t_mapping(t_address,t_array(t_address)dyn_storage))": {
        "encoding": "mapping",
        "key": "t_address",
        "label": "mapping(address => mapping(address => address[]))",
        "numberOfBytes": "32",
        "value": "t_mapping(t_address,t_array(t_address)dyn_storage)"
      }
    }
  }
}