{
  "address": "0x858ff4Dfd113c98af0A791845E524C287b5A9ed4",
  "abi": [
    {
      "inputs": [],
      "stateMutability": "nonpayable",
      "type": "constructor"
    },
    {
      "anonymous": false,
      "inputs": [
        {
          "indexed": true,
          "internalType": "address",
          "name": "router",
          "type": "address"
        },
        {
          "indexed": true,
          "internalType": "address",
          "name": "token",
          "type": "address"
        },
        {
          "indexed": false,
          "internalType": "uint256",
          "name": "amount",
          "type": "uint256"
        }
      ],
      "name": "Liquidate",
      "type": "event"
    },
    {
      "anonymous": false,
      "inputs": [
        {
          "indexed": true,
          "internalType": "address",
          "name": "token",
          "type": "address"
        },
        {
          "indexed": false,
          "internalType": "uint256",
          "name": "amount",
          "type": "uint256"
        },
        {
          "indexed": false,
          "internalType": "address",
          "name": "recipient",
          "type": "address"
        }
      ],
      "name": "Sweep",
      "type": "event"
    },
    {
      "inputs": [],
      "name": "bank",
      "outputs": [
        {
          "internalType": "address",
          "name": "",
          "type": "address"
        }
      ],
      "stateMutability": "view",
      "type": "function"
    },
    {
      "inputs": [],
      "name": "derivative",
      "outputs": [
        {
          "internalType": "address",
          "name": "",
          "type": "address"
        }
      ],
      "stateMutability": "view",
      "type": "function"
    },
    {
      "inputs": [],
      "name": "derivativeBalance",
      "outputs": [
        {
          "internalType": "uint256",
          "name": "",
          "type": "uint256"
        }
      ],
      "stateMutability": "view",
      "type": "function"
    },
    {
      "inputs": [],
      "name": "governance",
      "outputs": [
        {
          "internalType": "address",
          "name": "",
          "type": "address"
        }
      ],
      "stateMutability": "view",
      "type": "function"
    },
    {
      "inputs": [],
      "name": "incentivesController",
      "outputs": [
        {
          "internalType": "address",
          "name": "",
          "type": "address"
        }
      ],
      "stateMutability": "view",
      "type": "function"
    },
    {
      "inputs": [
        {
          "internalType": "address",
          "name": "registry_",
          "type": "address"
        },
        {
          "internalType": "address",
          "name": "bank_",
          "type": "address"
        },
        {
          "internalType": "address",
          "name": "underlying_",
          "type": "address"
        },
        {
          "internalType": "address",
          "name": "derivative_",
          "type": "address"
        },
        {
          "internalType": "address",
          "name": "reward_",
          "type": "address"
        },
        {
          "internalType": "address",
          "name": "stakedToken_",
          "type": "address"
        },
        {
          "internalType": "address",
          "name": "lendingPool_",
          "type": "address"
        },
        {
          "internalType": "address",
          "name": "incentivesController_",
          "type": "address"
        }
      ],
      "name": "initializeAaveV2Strategy",
      "outputs": [],
      "stateMutability": "nonpayable",
      "type": "function"
    },
    {
      "inputs": [],
      "name": "invest",
      "outputs": [],
      "stateMutability": "nonpayable",
      "type": "function"
    },
    {
      "inputs": [],
      "name": "investedBalance",
      "outputs": [
        {
          "internalType": "uint256",
          "name": "",
          "type": "uint256"
        }
      ],
      "stateMutability": "view",
      "type": "function"
    },
    {
      "inputs": [],
      "name": "lendingPool",
      "outputs": [
        {
          "internalType": "address",
          "name": "",
          "type": "address"
        }
      ],
      "stateMutability": "view",
      "type": "function"
    },
    {
      "inputs": [],
      "name": "manager",
      "outputs": [
        {
          "internalType": "address",
          "name": "",
          "type": "address"
        }
      ],
      "stateMutability": "view",
      "type": "function"
    },
    {
      "inputs": [],
      "name": "registry",
      "outputs": [
        {
          "internalType": "address",
          "name": "",
          "type": "address"
        }
      ],
      "stateMutability": "view",
      "type": "function"
    },
    {
      "inputs": [],
      "name": "reward",
      "outputs": [
        {
          "internalType": "address",
          "name": "",
          "type": "address"
        }
      ],
      "stateMutability": "view",
      "type": "function"
    },
    {
      "inputs": [],
      "name": "rewardBalance",
      "outputs": [
        {
          "internalType": "uint256",
          "name": "",
          "type": "uint256"
        }
      ],
      "stateMutability": "view",
      "type": "function"
    },
    {
      "inputs": [],
      "name": "rewardCooldown",
      "outputs": [
        {
          "internalType": "uint256",
          "name": "",
          "type": "uint256"
        }
      ],
      "stateMutability": "view",
      "type": "function"
    },
    {
      "inputs": [
        {
          "internalType": "address",
          "name": "registry_",
          "type": "address"
        }
      ],
      "name": "setRegistry",
      "outputs": [],
      "stateMutability": "nonpayable",
      "type": "function"
    },
    {
      "inputs": [],
      "name": "stakedBalance",
      "outputs": [
        {
          "internalType": "uint256",
          "name": "",
          "type": "uint256"
        }
      ],
      "stateMutability": "view",
      "type": "function"
    },
    {
      "inputs": [],
      "name": "stakedToken",
      "outputs": [
        {
          "internalType": "address",
          "name": "",
          "type": "address"
        }
      ],
      "stateMutability": "view",
      "type": "function"
    },
    {
      "inputs": [
        {
          "internalType": "address",
          "name": "token",
          "type": "address"
        },
        {
          "internalType": "uint256",
          "name": "amount",
          "type": "uint256"
        },
        {
          "internalType": "address",
          "name": "recipient",
          "type": "address"
        }
      ],
      "name": "sweep",
      "outputs": [],
      "stateMutability": "nonpayable",
      "type": "function"
    },
    {
      "inputs": [],
      "name": "underlying",
      "outputs": [
        {
          "internalType": "address",
          "name": "",
          "type": "address"
        }
      ],
      "stateMutability": "view",
      "type": "function"
    },
    {
      "inputs": [],
      "name": "underlyingBalance",
      "outputs": [
        {
          "internalType": "uint256",
          "name": "",
          "type": "uint256"
        }
      ],
      "stateMutability": "view",
      "type": "function"
    },
    {
      "inputs": [
        {
          "internalType": "uint256",
          "name": "amount",
          "type": "uint256"
        }
      ],
      "name": "withdraw",
      "outputs": [
        {
          "internalType": "uint256",
          "name": "",
          "type": "uint256"
        }
      ],
      "stateMutability": "nonpayable",
      "type": "function"
    },
    {
      "inputs": [],
      "name": "withdrawAll",
      "outputs": [],
      "stateMutability": "nonpayable",
      "type": "function"
    }
  ],
  "transactionHash": "0xea976d7f746a2dcaca1ff62c83e8dec00963c27659788d5ca8b200f45bde949c",
  "args": [],
  "solcInputHash": "2ae1fbaa0a2bdfe558222a1906c1c210",
  "bytecode": "0x60806040523480156200001157600080fd5b50600054610100900460ff16806200002e57506200002e62000134565b806200003d575060005460ff16155b6200007a5760405162461bcd60e51b815260040180806020018281038252602e81526020018062001fe4602e913960400191505060405180910390fd5b600054610100900460ff16158015620000a6576000805460ff1961ff0019909116610100171660011790555b6000620000b262000152565b6001600160a01b031614620000c357fe5b6000620000cf62000184565b6001600160a01b031614620000e057fe5b6000620000ec620001b1565b6001600160a01b031614620000fd57fe5b600062000109620001de565b6001600160a01b0316146200011a57fe5b80156200012d576000805461ff00191690555b5062000215565b60006200014c306200020b60201b620009b01760201c565b15905090565b60006200017f7f1b5717851286d5e98a28354be764b8c0a20eb2fbd059120090ee8bcfe1a9bf6c62000211565b905090565b60006200017f7fd2eff96e29993ca5431993c3a205e12e198965c0e1fdd87b4899b57f1e611c7462000211565b60006200017f7f0fad97fe3ec7d6c1e9191a09a0c4ccb7a831b6605392e57d2fedb8501a4dc81262000211565b60006200017f7faeb865605058f37eedb4467ee2609ddec592b0c9a6f7f7cb0db3feabe544c71c62000211565b3b151590565b5490565b611dbf80620002256000396000f3fe608060405234801561001057600080fd5b50600436106101425760003560e01c80637b103999116100b8578063af1df2551161007c578063af1df25514610281578063c9168a5914610289578063cc7a262e14610291578063dc2c256f14610299578063e8b5e51f146102cf578063f43d19b9146102d757610142565b80637b1039991461023b578063853828b614610243578063a59a99731461024b578063a91ee0dc14610253578063aa5c3ab41461027957610142565b806359356c5c1161010a57806359356c5c146101b25780635aa6e675146101ba5780635b9f0016146101c257806365111f3e146101ca5780636f307dc31461022b57806376cdb03b1461023357610142565b806319776d8e146101475780631985a89f14610161578063228cb733146101855780632e1a7d4d1461018d578063481c6a75146101aa575b600080fd5b61014f6102df565b60408051918252519081900360200190f35b610169610387565b604080516001600160a01b039092168252519081900360200190f35b6101696103b7565b61014f600480360360208110156101a357600080fd5b50356103e2565b61016961045a565b61014f61049c565b6101696104a6565b61014f6104e8565b61022960048036036101008110156101e157600080fd5b506001600160a01b038135811691602081013582169160408201358116916060810135821691608082013581169160a081013582169160c082013581169160e00135166104f2565b005b6101696105b4565b6101696105df565b61016961060a565b610229610635565b6101696106b2565b6102296004803603602081101561026957600080fd5b50356001600160a01b03166106dd565b61014f6107c3565b6101696107ed565b61014f610818565b610169610822565b610229600480360360608110156102af57600080fd5b506001600160a01b0381358116916020810135916040909101351661084d565b610229610910565b61014f610985565b6000806102ea610387565b6001600160a01b0316141561030157506000610384565b610309610387565b6001600160a01b03166370a08231306040518263ffffffff1660e01b815260040180826001600160a01b0316815260200191505060206040518083038186803b15801561035557600080fd5b505afa158015610369573d6000803e3d6000fd5b505050506040513d602081101561037f57600080fd5b505190505b90565b60006103b27f4ff4c9b81c0bf267e01129f4817e03efc0163ee7133b87bd58118a96bbce43d36109b6565b905090565b60006103b27faeb865605058f37eedb4467ee2609ddec592b0c9a6f7f7cb0db3feabe544c71c6109b6565b60006103ec6105df565b6001600160a01b0316336001600160a01b031614610447576040805162461bcd60e51b815260206004820152601360248201527253747261746567793a204f6e6c792042616e6b60681b604482015290519081900360640190fd5b600061045333846109ba565b9392505050565b600061046461060a565b6001600160a01b031663481c6a756040518163ffffffff1660e01b815260040160206040518083038186803b15801561035557600080fd5b60006103096105b4565b60006104b061060a565b6001600160a01b0316635aa6e6756040518163ffffffff1660e01b815260040160206040518083038186803b15801561035557600080fd5b6000610309610822565b600054610100900460ff168061050b575061050b610a05565b80610519575060005460ff16155b6105545760405162461bcd60e51b815260040180806020018281038252602e815260200180611d32602e913960400191505060405180910390fd5b600054610100900460ff1615801561057f576000805460ff1961ff0019909116610100171660011790555b61058c8989898989610a16565b610597848484610ad2565b80156105a9576000805461ff00191690555b505050505050505050565b60006103b27f0fad97fe3ec7d6c1e9191a09a0c4ccb7a831b6605392e57d2fedb8501a4dc8126109b6565b60006103b27fd2eff96e29993ca5431993c3a205e12e198965c0e1fdd87b4899b57f1e611c746109b6565b60006103b27f1b5717851286d5e98a28354be764b8c0a20eb2fbd059120090ee8bcfe1a9bf6c6109b6565b61063d6105df565b6001600160a01b0316336001600160a01b031614610698576040805162461bcd60e51b815260206004820152601360248201527253747261746567793a204f6e6c792042616e6b60681b604482015290519081900360640190fd5b60006106a26102df565b90506106ae33826109ba565b5050565b60006103b27f32da969ce0980814ec712773a44ab0fbc7a926f6c25ab5c3ab143cbaf257713b6109b6565b6106e56104a6565b6001600160a01b0316336001600160a01b03161461074a576040805162461bcd60e51b815260206004820152601b60248201527f537562736372696265723a204f6e6c7920476f7665726e616e63650000000000604482015290519081900360640190fd5b61075381610ba0565b61075b6104a6565b6001600160a01b0316336001600160a01b0316146107c0576040805162461bcd60e51b815260206004820152601a60248201527f537562736372696265723a2042616420476f7665726e616e6365000000000000604482015290519081900360640190fd5b50565b6000806107ce6103b7565b6001600160a01b031614156107e557506000610384565b6103096103b7565b60006103b27f8354a0ba382ef5f265c75cfb638fc27db941b9db0fd5dc17719a651d5d4cda156109b6565b60006103b26102df565b60006103b27f6ffcc641b9dd32ae63496168decfef38477654371686576c048aacac7664aa896109b6565b6108556104a6565b6001600160a01b0316336001600160a01b0316146108ba576040805162461bcd60e51b815260206004820152601b60248201527f537562736372696265723a204f6e6c7920476f7665726e616e63650000000000604482015290519081900360640190fd5b6108c5818484610bca565b50604080518381526001600160a01b0383811660208301528251908616927f8d71d334346acd8aade4cdca3af39a37fca2620cd870d28ccf94ae4ade61c8f3928290030190a2505050565b6109186105df565b6001600160a01b0316336001600160a01b031614610973576040805162461bcd60e51b815260206004820152601360248201527253747261746567793a204f6e6c792042616e6b60681b604482015290519081900360640190fd5b61097b610c96565b610983610dd6565b565b60006103b27f29ba1167c1adca0c8d6bf06d5964666a1db7a70ebfda62e977c0e3331d7b39236109b6565b3b151590565b5490565b6000816109c9575060006109ff565b60006109e46109d66106b2565b6109de6105b4565b85610e01565b905060006109fa856109f46105b4565b84610bca565b925050505b92915050565b6000610a10306109b0565b15905090565b600054610100900460ff1680610a2f5750610a2f610a05565b80610a3d575060005460ff16155b610a785760405162461bcd60e51b815260040180806020018281038252602e815260200180611d32602e913960400191505060405180910390fd5b600054610100900460ff16158015610aa3576000805460ff1961ff0019909116610100171660011790555b610aac86610f8f565b610ab885858585611094565b8015610aca576000805461ff00191690555b505050505050565b600054610100900460ff1680610aeb5750610aeb610a05565b80610af9575060005460ff16155b610b345760405162461bcd60e51b815260040180806020018281038252602e815260200180611d32602e913960400191505060405180910390fd5b600054610100900460ff16158015610b5f576000805460ff1961ff0019909116610100171660011790555b610b688461115e565b610b7183611188565b610b7a826111b2565b610b8842620d2f00016111dc565b8015610b9a576000805461ff00191690555b50505050565b6107c07f1b5717851286d5e98a28354be764b8c0a20eb2fbd059120090ee8bcfe1a9bf6c82611202565b600081610bd957506000610453565b6000836001600160a01b03166370a08231306040518263ffffffff1660e01b815260040180826001600160a01b0316815260200191505060206040518083038186803b158015610c2857600080fd5b505afa158015610c3c573d6000803e3d6000fd5b505050506040513d6020811015610c5257600080fd5b5051905082811015610c7957610c726001600160a01b0385168683611206565b9050610453565b610c8d6001600160a01b0385168685611206565b50909392505050565b6000610ca0610985565b9050804211156107c0576000610cb46104e8565b90506000610cc0610822565b90506000610cd7610cd08361125d565b85906112cc565b9050600083118015610ce857508042105b15610d2457610cf78284611326565b6000610d016107c3565b90508015610d2257610d22610d146103b7565b610d1c6105b4565b83611392565b505b610d3c610d2f6107ed565b610d37610387565b61155f565b610d446104e8565b92508215610b9a57610d558261173f565b6000610d608361178e565b9050428114610db6576040805162461bcd60e51b815260206004820152601760248201527f4161766556323a20436f6f6c646f776e206661696c6564000000000000000000604482015290519081900360640190fd5b6000610dcb610dc4856117de565b83906112cc565b9050610aca816111dc565b6000610de061049c565b905080156107c0576107c0610df36106b2565b610dfb6105b4565b8361181a565b600081610e1057506000610453565b6000836001600160a01b03166370a08231306040518263ffffffff1660e01b815260040180826001600160a01b0316815260200191505060206040518083038186803b158015610e5f57600080fd5b505afa158015610e73573d6000803e3d6000fd5b505050506040513d6020811015610e8957600080fd5b50519050610ea16001600160a01b03851686856118b1565b60408051631a4ca37b60e21b81526001600160a01b0386811660048301526024820186905230604483015291516000928816916369328dec91606480830192602092919082900301818787803b158015610efa57600080fd5b505af1158015610f0e573d6000803e3d6000fd5b505050506040513d6020811015610f2457600080fd5b5051905083811480610f3557508181145b610f86576040805162461bcd60e51b815260206004820152601760248201527f4161766556323a205769746864726177206661696c6564000000000000000000604482015290519081900360640190fd5b95945050505050565b600054610100900460ff1680610fa85750610fa8610a05565b80610fb6575060005460ff16155b610ff15760405162461bcd60e51b815260040180806020018281038252602e815260200180611d32602e913960400191505060405180910390fd5b600054610100900460ff1615801561101c576000805460ff1961ff0019909116610100171660011790555b611025826109b0565b611076576040805162461bcd60e51b815260206004820152601c60248201527f537562736372696265723a20496e76616c696420526567697374727900000000604482015290519081900360640190fd5b61107f82610ba0565b80156106ae576000805461ff00191690555050565b600054610100900460ff16806110ad57506110ad610a05565b806110bb575060005460ff16155b6110f65760405162461bcd60e51b815260040180806020018281038252602e815260200180611d32602e913960400191505060405180910390fd5b600054610100900460ff16158015611121576000805460ff1961ff0019909116610100171660011790555b61112a8561199c565b611133846119c6565b61113c836119f0565b61114582611a1a565b8015611157576000805461ff00191690555b5050505050565b6107c07f6ffcc641b9dd32ae63496168decfef38477654371686576c048aacac7664aa8982611202565b6107c07f32da969ce0980814ec712773a44ab0fbc7a926f6c25ab5c3ab143cbaf257713b82611202565b6107c07f8354a0ba382ef5f265c75cfb638fc27db941b9db0fd5dc17719a651d5d4cda1582611202565b6107c07f29ba1167c1adca0c8d6bf06d5964666a1db7a70ebfda62e977c0e3331d7b3923825b9055565b604080516001600160a01b038416602482015260448082018490528251808303909101815260649091019091526020810180516001600160e01b031663a9059cbb60e01b179052611258908490611a44565b505050565b600080826001600160a01b031663359c4a966040518163ffffffff1660e01b815260040160206040518083038186803b15801561129957600080fd5b505afa1580156112ad573d6000803e3d6000fd5b505050506040513d60208110156112c357600080fd5b50519392505050565b600082820183811015610453576040805162461bcd60e51b815260206004820152601b60248201527f536166654d6174683a206164646974696f6e206f766572666c6f770000000000604482015290519081900360640190fd5b80611330576106ae565b604080516301e9a69560e41b81523060048201526024810183905290516001600160a01b03841691631e9a695091604480830192600092919082900301818387803b15801561137e57600080fd5b505af1158015610aca573d6000803e3d6000fd5b600061139c61045a565b90506000816001600160a01b031663921c86d286866040518363ffffffff1660e01b815260040180836001600160a01b03168152602001826001600160a01b031681526020019250505060206040518083038186803b1580156113fe57600080fd5b505afa158015611412573d6000803e3d6000fd5b505050506040513d602081101561142857600080fd5b50519050611437818685610bca565b5060408051636f70e66f60e01b81526001600160a01b0384811660048301528781166024830152868116604483015260648201869052600160848301529151600092841691636f70e66f9160a480830192602092919082900301818787803b1580156114a257600080fd5b505af11580156114b6573d6000803e3d6000fd5b505050506040513d60208110156114cc57600080fd5b505190506001600160a01b03831663489304286114e76105df565b87846040518463ffffffff1660e01b815260040180846001600160a01b03168152602001836001600160a01b031681526020018281526020019350505050600060405180830381600087803b15801561153f57600080fd5b505af1158015611553573d6000803e3d6000fd5b50505050505050505050565b60408051600180825281830190925260009160208083019080368337019050509050818160008151811061158f57fe5b60200260200101906001600160a01b031690816001600160a01b0316815250506000836001600160a01b0316638b599f2683306040518363ffffffff1660e01b81526004018080602001836001600160a01b03168152602001828103825284818151815260200191508051906020019060200280838360005b83811015611620578181015183820152602001611608565b50505050905001935050505060206040518083038186803b15801561164457600080fd5b505afa158015611658573d6000803e3d6000fd5b505050506040513d602081101561166e57600080fd5b505190508015610b9a57836001600160a01b0316633111e7b38383306040518463ffffffff1660e01b81526004018080602001848152602001836001600160a01b03168152602001828103825285818151815260200191508051906020019060200280838360005b838110156116ee5781810151838201526020016116d6565b50505050905001945050505050602060405180830381600087803b15801561171557600080fd5b505af1158015611729573d6000803e3d6000fd5b505050506040513d6020811015610aca57600080fd5b806001600160a01b031663787a08a66040518163ffffffff1660e01b8152600401600060405180830381600087803b15801561177a57600080fd5b505af1158015611157573d6000803e3d6000fd5b600080826001600160a01b031663091030c3306040518263ffffffff1660e01b815260040180826001600160a01b0316815260200191505060206040518083038186803b15801561129957600080fd5b600080826001600160a01b03166372b49d636040518163ffffffff1660e01b815260040160206040518083038186803b15801561129957600080fd5b8061182457611258565b6118386001600160a01b03831684836118b1565b6040805163e8eda9df60e01b81526001600160a01b0384811660048301526024820184905230604483015260006064830181905292519086169263e8eda9df926084808201939182900301818387803b15801561189457600080fd5b505af11580156118a8573d6000803e3d6000fd5b50505050505050565b600061194782856001600160a01b031663dd62ed3e30876040518363ffffffff1660e01b815260040180836001600160a01b03168152602001826001600160a01b031681526020019250505060206040518083038186803b15801561191557600080fd5b505afa158015611929573d6000803e3d6000fd5b505050506040513d602081101561193f57600080fd5b5051906112cc565b604080516001600160a01b038616602482015260448082018490528251808303909101815260649091019091526020810180516001600160e01b031663095ea7b360e01b179052909150610b9a908590611a44565b6107c07fd2eff96e29993ca5431993c3a205e12e198965c0e1fdd87b4899b57f1e611c7482611202565b6107c07f0fad97fe3ec7d6c1e9191a09a0c4ccb7a831b6605392e57d2fedb8501a4dc81282611202565b6107c07f4ff4c9b81c0bf267e01129f4817e03efc0163ee7133b87bd58118a96bbce43d382611202565b6107c07faeb865605058f37eedb4467ee2609ddec592b0c9a6f7f7cb0db3feabe544c71c82611202565b6000611a99826040518060400160405280602081526020017f5361666545524332303a206c6f772d6c6576656c2063616c6c206661696c6564815250856001600160a01b0316611af59092919063ffffffff16565b80519091501561125857808060200190516020811015611ab857600080fd5b50516112585760405162461bcd60e51b815260040180806020018281038252602a815260200180611d60602a913960400191505060405180910390fd5b6060611b048484600085611b0c565b949350505050565b606082471015611b4d5760405162461bcd60e51b8152600401808060200182810382526026815260200180611d0c6026913960400191505060405180910390fd5b611b56856109b0565b611ba7576040805162461bcd60e51b815260206004820152601d60248201527f416464726573733a2063616c6c20746f206e6f6e2d636f6e7472616374000000604482015290519081900360640190fd5b600080866001600160a01b031685876040518082805190602001908083835b60208310611be55780518252601f199092019160209182019101611bc6565b6001836020036101000a03801982511681845116808217855250505050505090500191505060006040518083038185875af1925050503d8060008114611c47576040519150601f19603f3d011682016040523d82523d6000602084013e611c4c565b606091505b5091509150611c5c828286611c67565b979650505050505050565b60608315611c76575081610453565b825115611c865782518084602001fd5b8160405162461bcd60e51b81526004018080602001828103825283818151815260200191508051906020019080838360005b83811015611cd0578181015183820152602001611cb8565b50505050905090810190601f168015611cfd5780820380516001836020036101000a031916815260200191505b509250505060405180910390fdfe416464726573733a20696e73756666696369656e742062616c616e636520666f722063616c6c496e697469616c697a61626c653a20636f6e747261637420697320616c726561647920696e697469616c697a65645361666545524332303a204552433230206f7065726174696f6e20646964206e6f742073756363656564a264697066735822122008be227ddda265c9abd2a09543259823a4e05332b837d9809df085e534bd1b2d64736f6c63430007060033496e697469616c697a61626c653a20636f6e747261637420697320616c726561647920696e697469616c697a6564",
  "devdoc": {
    "details": "Underlying: USDC, USDT, etc.Derivative: aToken, 1:1 ratio with underlyinghttps://docs.aave.com/developers/the-core-protocol/atokens",
    "kind": "dev",
    "methods": {
      "derivativeBalance()": {
        "details": "Balance of derivative tokens received from Strategy, if applicable",
        "returns": {
          "_0": "The balance of derivative tokens"
        }
      },
      "governance()": {
        "returns": {
          "_0": "The current Governance address"
        }
      },
      "initializeAaveV2Strategy(address,address,address,address,address,address,address,address)": {
        "details": "The function should be called at time of deployment",
        "params": {
          "bank_": "the bank associated with the strategy",
          "derivative_": "the aToken address received from Aave",
          "incentivesController_": "the AaveV2 rewards contract",
          "lendingPool_": "the AaveV2 lending pool that we lend to",
          "registry_": "the registry contract",
          "reward_": "the address of the reward token stkAAVE",
          "underlying_": "the underlying token that is deposited"
        }
      },
      "invest()": {
        "details": "Compound by claiming stkAAVE, then unwrapping + liquidating if cooldown permitsDeposit all underlying to receive aTokens"
      },
      "investedBalance()": {
        "details": "aTokens are 1:1 with underlying, they are continuously distributed to users"
      },
      "manager()": {
        "returns": {
          "_0": "The current Manager address"
        }
      },
      "registry()": {
        "returns": {
          "_0": "The current Registry address"
        }
      },
      "rewardBalance()": {
        "details": "Balance of reward tokens awaiting liquidation, if applicable"
      },
      "setRegistry(address)": {
        "details": "Requires sender to be Governance of the new Registry to avoid bricking.Ideally should not be used",
        "params": {
          "registry_": "The new registry"
        }
      },
      "stakedBalance()": {
        "details": "Rewards are first received in stkAAVe, then must undergo 10 day cooldownBefore batch claiming."
      },
      "sweep(address,uint256,address)": {
        "params": {
          "amount": "The amount of tokens to sweep",
          "recipient": "The address to send the sweeped tokens to",
          "token": "The address of the token to sweep"
        }
      },
      "underlyingBalance()": {
        "details": "Balance of underlying awaiting Strategy investment"
      }
    },
    "title": "Oh! Finance Aave V2 Strategy",
    "version": 1
  },
  "userdoc": {
    "kind": "user",
    "methods": {
      "bank()": {
        "notice": "The Bank that the Strategy is associated with"
      },
      "constructor": {
        "notice": "Initialize the AaveV2 Strategy Logic"
      },
      "derivative()": {
        "notice": "The derivative token received from AaveV2 (aToken)"
      },
      "governance()": {
        "notice": "Get the Governance address"
      },
      "initializeAaveV2Strategy(address,address,address,address,address,address,address,address)": {
        "notice": "Initialize the AaveV2 Strategy Proxy"
      },
      "invest()": {
        "notice": "Invest in the AaveV2 Strategy"
      },
      "investedBalance()": {
        "notice": "Balance of underlying invested in AaveV2"
      },
      "manager()": {
        "notice": "Get the Manager address"
      },
      "registry()": {
        "notice": "Get the Registry address"
      },
      "reward()": {
        "notice": "The reward token received from AaveV2 (stkAave)"
      },
      "setRegistry(address)": {
        "notice": "Set the Registry for the contract. Only callable by Governance."
      },
      "stakedBalance()": {
        "notice": "Balance of stkAAVE await liquidation"
      },
      "sweep(address,uint256,address)": {
        "notice": "Governance function to sweep any stuck / airdrop tokens to a given recipient"
      },
      "underlying()": {
        "notice": "The underlying token the Strategy invests in AaveV2"
      }
    },
    "notice": "Standard strategy using Aave V2 Protocol",
    "version": 1
  },
  "storageLayout": {
    "storage": [
      {
        "astId": 847,
        "contract": "contracts/strategies/aave/OhAaveV2Strategy.sol:OhAaveV2Strategy",
        "label": "_initialized",
        "offset": 0,
        "slot": "0",
        "type": "t_bool"
      },
      {
        "astId": 850,
        "contract": "contracts/strategies/aave/OhAaveV2Strategy.sol:OhAaveV2Strategy",
        "label": "_initializing",
        "offset": 1,
        "slot": "0",
        "type": "t_bool"
      }
    ],
    "types": {
      "t_bool": {
        "encoding": "inplace",
        "label": "bool",
        "numberOfBytes": "1"
      }
    }
  }
}