{
  "address": "0x98816EB4c559F2006eDb860e7ff6cb9C68d0C324",
  "abi": [
    {
      "inputs": [],
      "stateMutability": "nonpayable",
      "type": "constructor"
    },
    {
      "anonymous": false,
      "inputs": [
        {
          "indexed": true,
          "internalType": "address",
          "name": "owner",
          "type": "address"
        },
        {
          "indexed": true,
          "internalType": "address",
          "name": "spender",
          "type": "address"
        },
        {
          "indexed": false,
          "internalType": "uint256",
          "name": "value",
          "type": "uint256"
        }
      ],
      "name": "Approval",
      "type": "event"
    },
    {
      "anonymous": false,
      "inputs": [
        {
          "indexed": true,
          "internalType": "address",
          "name": "user",
          "type": "address"
        },
        {
          "indexed": false,
          "internalType": "uint256",
          "name": "amount",
          "type": "uint256"
        }
      ],
      "name": "Deposit",
      "type": "event"
    },
    {
      "anonymous": false,
      "inputs": [
        {
          "indexed": true,
          "internalType": "address",
          "name": "strategy",
          "type": "address"
        },
        {
          "indexed": false,
          "internalType": "uint256",
          "name": "amount",
          "type": "uint256"
        }
      ],
      "name": "Exit",
      "type": "event"
    },
    {
      "anonymous": false,
      "inputs": [
        {
          "indexed": true,
          "internalType": "address",
          "name": "strategy",
          "type": "address"
        }
      ],
      "name": "ExitAll",
      "type": "event"
    },
    {
      "anonymous": false,
      "inputs": [
        {
          "indexed": false,
          "internalType": "address",
          "name": "strategy",
          "type": "address"
        },
        {
          "indexed": false,
          "internalType": "uint256",
          "name": "amount",
          "type": "uint256"
        }
      ],
      "name": "Invest",
      "type": "event"
    },
    {
      "anonymous": false,
      "inputs": [
        {
          "indexed": true,
          "internalType": "address",
          "name": "governance",
          "type": "address"
        }
      ],
      "name": "Pause",
      "type": "event"
    },
    {
      "anonymous": false,
      "inputs": [
        {
          "indexed": true,
          "internalType": "address",
          "name": "from",
          "type": "address"
        },
        {
          "indexed": true,
          "internalType": "address",
          "name": "to",
          "type": "address"
        },
        {
          "indexed": false,
          "internalType": "uint256",
          "name": "value",
          "type": "uint256"
        }
      ],
      "name": "Transfer",
      "type": "event"
    },
    {
      "anonymous": false,
      "inputs": [
        {
          "indexed": true,
          "internalType": "address",
          "name": "governance",
          "type": "address"
        }
      ],
      "name": "Unpause",
      "type": "event"
    },
    {
      "anonymous": false,
      "inputs": [
        {
          "indexed": true,
          "internalType": "address",
          "name": "user",
          "type": "address"
        },
        {
          "indexed": false,
          "internalType": "uint256",
          "name": "amount",
          "type": "uint256"
        }
      ],
      "name": "Withdraw",
      "type": "event"
    },
    {
      "inputs": [],
      "name": "DOMAIN_SEPARATOR",
      "outputs": [
        {
          "internalType": "bytes32",
          "name": "",
          "type": "bytes32"
        }
      ],
      "stateMutability": "view",
      "type": "function"
    },
    {
      "inputs": [
        {
          "internalType": "address",
          "name": "owner",
          "type": "address"
        },
        {
          "internalType": "address",
          "name": "spender",
          "type": "address"
        }
      ],
      "name": "allowance",
      "outputs": [
        {
          "internalType": "uint256",
          "name": "",
          "type": "uint256"
        }
      ],
      "stateMutability": "view",
      "type": "function"
    },
    {
      "inputs": [
        {
          "internalType": "address",
          "name": "spender",
          "type": "address"
        },
        {
          "internalType": "uint256",
          "name": "amount",
          "type": "uint256"
        }
      ],
      "name": "approve",
      "outputs": [
        {
          "internalType": "bool",
          "name": "",
          "type": "bool"
        }
      ],
      "stateMutability": "nonpayable",
      "type": "function"
    },
    {
      "inputs": [
        {
          "internalType": "address",
          "name": "account",
          "type": "address"
        }
      ],
      "name": "balanceOf",
      "outputs": [
        {
          "internalType": "uint256",
          "name": "",
          "type": "uint256"
        }
      ],
      "stateMutability": "view",
      "type": "function"
    },
    {
      "inputs": [],
      "name": "decimals",
      "outputs": [
        {
          "internalType": "uint8",
          "name": "",
          "type": "uint8"
        }
      ],
      "stateMutability": "view",
      "type": "function"
    },
    {
      "inputs": [
        {
          "internalType": "address",
          "name": "spender",
          "type": "address"
        },
        {
          "internalType": "uint256",
          "name": "subtractedValue",
          "type": "uint256"
        }
      ],
      "name": "decreaseAllowance",
      "outputs": [
        {
          "internalType": "bool",
          "name": "",
          "type": "bool"
        }
      ],
      "stateMutability": "nonpayable",
      "type": "function"
    },
    {
      "inputs": [
        {
          "internalType": "uint256",
          "name": "amount",
          "type": "uint256"
        }
      ],
      "name": "deposit",
      "outputs": [],
      "stateMutability": "nonpayable",
      "type": "function"
    },
    {
      "inputs": [
        {
          "internalType": "uint256",
          "name": "amount",
          "type": "uint256"
        },
        {
          "internalType": "address",
          "name": "recipient",
          "type": "address"
        }
      ],
      "name": "depositFor",
      "outputs": [],
      "stateMutability": "nonpayable",
      "type": "function"
    },
    {
      "inputs": [
        {
          "internalType": "uint256",
          "name": "amount",
          "type": "uint256"
        },
        {
          "internalType": "address",
          "name": "recipient",
          "type": "address"
        },
        {
          "internalType": "uint256",
          "name": "deadline",
          "type": "uint256"
        },
        {
          "internalType": "uint8",
          "name": "v",
          "type": "uint8"
        },
        {
          "internalType": "bytes32",
          "name": "r",
          "type": "bytes32"
        },
        {
          "internalType": "bytes32",
          "name": "s",
          "type": "bytes32"
        }
      ],
      "name": "depositWithPermit",
      "outputs": [],
      "stateMutability": "nonpayable",
      "type": "function"
    },
    {
      "inputs": [
        {
          "internalType": "address",
          "name": "strategy",
          "type": "address"
        },
        {
          "internalType": "uint256",
          "name": "amount",
          "type": "uint256"
        }
      ],
      "name": "exit",
      "outputs": [],
      "stateMutability": "nonpayable",
      "type": "function"
    },
    {
      "inputs": [
        {
          "internalType": "address",
          "name": "strategy",
          "type": "address"
        }
      ],
      "name": "exitAll",
      "outputs": [],
      "stateMutability": "nonpayable",
      "type": "function"
    },
    {
      "inputs": [],
      "name": "governance",
      "outputs": [
        {
          "internalType": "address",
          "name": "",
          "type": "address"
        }
      ],
      "stateMutability": "view",
      "type": "function"
    },
    {
      "inputs": [
        {
          "internalType": "address",
          "name": "spender",
          "type": "address"
        },
        {
          "internalType": "uint256",
          "name": "addedValue",
          "type": "uint256"
        }
      ],
      "name": "increaseAllowance",
      "outputs": [
        {
          "internalType": "bool",
          "name": "",
          "type": "bool"
        }
      ],
      "stateMutability": "nonpayable",
      "type": "function"
    },
    {
      "inputs": [
        {
          "internalType": "string",
          "name": "name_",
          "type": "string"
        },
        {
          "internalType": "string",
          "name": "symbol_",
          "type": "string"
        },
        {
          "internalType": "address",
          "name": "registry_",
          "type": "address"
        },
        {
          "internalType": "address",
          "name": "underlying_",
          "type": "address"
        }
      ],
      "name": "initializeBank",
      "outputs": [],
      "stateMutability": "nonpayable",
      "type": "function"
    },
    {
      "inputs": [
        {
          "internalType": "address",
          "name": "strategy",
          "type": "address"
        },
        {
          "internalType": "uint256",
          "name": "amount",
          "type": "uint256"
        }
      ],
      "name": "invest",
      "outputs": [],
      "stateMutability": "nonpayable",
      "type": "function"
    },
    {
      "inputs": [
        {
          "internalType": "address",
          "name": "strategy",
          "type": "address"
        }
      ],
      "name": "investAll",
      "outputs": [],
      "stateMutability": "nonpayable",
      "type": "function"
    },
    {
      "inputs": [],
      "name": "investedBalance",
      "outputs": [
        {
          "internalType": "uint256",
          "name": "amount",
          "type": "uint256"
        }
      ],
      "stateMutability": "view",
      "type": "function"
    },
    {
      "inputs": [],
      "name": "manager",
      "outputs": [
        {
          "internalType": "address",
          "name": "",
          "type": "address"
        }
      ],
      "stateMutability": "view",
      "type": "function"
    },
    {
      "inputs": [],
      "name": "name",
      "outputs": [
        {
          "internalType": "string",
          "name": "",
          "type": "string"
        }
      ],
      "stateMutability": "view",
      "type": "function"
    },
    {
      "inputs": [
        {
          "internalType": "address",
          "name": "owner",
          "type": "address"
        }
      ],
      "name": "nonces",
      "outputs": [
        {
          "internalType": "uint256",
          "name": "",
          "type": "uint256"
        }
      ],
      "stateMutability": "view",
      "type": "function"
    },
    {
      "inputs": [],
      "name": "pause",
      "outputs": [],
      "stateMutability": "nonpayable",
      "type": "function"
    },
    {
      "inputs": [],
      "name": "paused",
      "outputs": [
        {
          "internalType": "bool",
          "name": "",
          "type": "bool"
        }
      ],
      "stateMutability": "view",
      "type": "function"
    },
    {
      "inputs": [
        {
          "internalType": "address",
          "name": "owner",
          "type": "address"
        },
        {
          "internalType": "address",
          "name": "spender",
          "type": "address"
        },
        {
          "internalType": "uint256",
          "name": "value",
          "type": "uint256"
        },
        {
          "internalType": "uint256",
          "name": "deadline",
          "type": "uint256"
        },
        {
          "internalType": "uint8",
          "name": "v",
          "type": "uint8"
        },
        {
          "internalType": "bytes32",
          "name": "r",
          "type": "bytes32"
        },
        {
          "internalType": "bytes32",
          "name": "s",
          "type": "bytes32"
        }
      ],
      "name": "permit",
      "outputs": [],
      "stateMutability": "nonpayable",
      "type": "function"
    },
    {
      "inputs": [],
      "name": "registry",
      "outputs": [
        {
          "internalType": "address",
          "name": "",
          "type": "address"
        }
      ],
      "stateMutability": "view",
      "type": "function"
    },
    {
      "inputs": [
        {
          "internalType": "address",
          "name": "registry_",
          "type": "address"
        }
      ],
      "name": "setRegistry",
      "outputs": [],
      "stateMutability": "nonpayable",
      "type": "function"
    },
    {
      "inputs": [
        {
          "internalType": "uint256",
          "name": "i",
          "type": "uint256"
        }
      ],
      "name": "strategies",
      "outputs": [
        {
          "internalType": "address",
          "name": "",
          "type": "address"
        }
      ],
      "stateMutability": "view",
      "type": "function"
    },
    {
      "inputs": [
        {
          "internalType": "uint256",
          "name": "i",
          "type": "uint256"
        }
      ],
      "name": "strategyBalance",
      "outputs": [
        {
          "internalType": "uint256",
          "name": "",
          "type": "uint256"
        }
      ],
      "stateMutability": "view",
      "type": "function"
    },
    {
      "inputs": [],
      "name": "symbol",
      "outputs": [
        {
          "internalType": "string",
          "name": "",
          "type": "string"
        }
      ],
      "stateMutability": "view",
      "type": "function"
    },
    {
      "inputs": [],
      "name": "totalStrategies",
      "outputs": [
        {
          "internalType": "uint256",
          "name": "",
          "type": "uint256"
        }
      ],
      "stateMutability": "view",
      "type": "function"
    },
    {
      "inputs": [],
      "name": "totalSupply",
      "outputs": [
        {
          "internalType": "uint256",
          "name": "",
          "type": "uint256"
        }
      ],
      "stateMutability": "view",
      "type": "function"
    },
    {
      "inputs": [
        {
          "internalType": "address",
          "name": "recipient",
          "type": "address"
        },
        {
          "internalType": "uint256",
          "name": "amount",
          "type": "uint256"
        }
      ],
      "name": "transfer",
      "outputs": [
        {
          "internalType": "bool",
          "name": "",
          "type": "bool"
        }
      ],
      "stateMutability": "nonpayable",
      "type": "function"
    },
    {
      "inputs": [
        {
          "internalType": "address",
          "name": "sender",
          "type": "address"
        },
        {
          "internalType": "address",
          "name": "recipient",
          "type": "address"
        },
        {
          "internalType": "uint256",
          "name": "amount",
          "type": "uint256"
        }
      ],
      "name": "transferFrom",
      "outputs": [
        {
          "internalType": "bool",
          "name": "",
          "type": "bool"
        }
      ],
      "stateMutability": "nonpayable",
      "type": "function"
    },
    {
      "inputs": [],
      "name": "underlying",
      "outputs": [
        {
          "internalType": "address",
          "name": "",
          "type": "address"
        }
      ],
      "stateMutability": "view",
      "type": "function"
    },
    {
      "inputs": [],
      "name": "underlyingBalance",
      "outputs": [
        {
          "internalType": "uint256",
          "name": "",
          "type": "uint256"
        }
      ],
      "stateMutability": "view",
      "type": "function"
    },
    {
      "inputs": [],
      "name": "unpause",
      "outputs": [],
      "stateMutability": "nonpayable",
      "type": "function"
    },
    {
      "inputs": [],
      "name": "virtualBalance",
      "outputs": [
        {
          "internalType": "uint256",
          "name": "",
          "type": "uint256"
        }
      ],
      "stateMutability": "view",
      "type": "function"
    },
    {
      "inputs": [],
      "name": "virtualPrice",
      "outputs": [
        {
          "internalType": "uint256",
          "name": "",
          "type": "uint256"
        }
      ],
      "stateMutability": "view",
      "type": "function"
    },
    {
      "inputs": [
        {
          "internalType": "uint256",
          "name": "shares",
          "type": "uint256"
        }
      ],
      "name": "withdraw",
      "outputs": [],
      "stateMutability": "nonpayable",
      "type": "function"
    }
  ],
  "transactionHash": "0xe8e7f3ac26c105cadd15162670134bbdc760e828803b68c3905f5312f2ff7309",
  "args": [],
  "solcInputHash": "e2f886b8a24d1a496d54c6b0fef6217b",
  "bytecode": "0x60806040523480156200001157600080fd5b50600054610100900460ff16806200002e57506200002e620000fa565b806200003d575060005460ff16155b6200007a5760405162461bcd60e51b815260040180806020018281038252602e81526020018062003977602e913960400191505060405180910390fd5b600054610100900460ff16158015620000a6576000805460ff1961ff0019909116610100171660011790555b6000620000b262000118565b6001600160a01b031614620000c357fe5b6000620000cf6200014a565b6001600160a01b031614620000e057fe5b8015620000f3576000805461ff00191690555b5062000181565b600062000112306200017760201b62001baa1760201c565b15905090565b6000620001457f1b5717851286d5e98a28354be764b8c0a20eb2fbd059120090ee8bcfe1a9bf6c6200017d565b905090565b6000620001457f90773825e4bc2bc5b176633f3046da46e88d251c6a1ff0816162f0a2ed8410ce6200017d565b3b151590565b5490565b6137e680620001916000396000f3fe608060405234801561001057600080fd5b50600436106102325760003560e01c80637b10399911610130578063b9b8c246116100b8578063dcd2af171161007c578063dcd2af17146107a3578063dd62ed3e146107ab578063eb0dff66146107d9578063ef693bed146107ff578063f96d7b801461082b57610232565b8063b9b8c246146106e4578063c343a19d14610710578063c9168a591461072d578063d505accf14610735578063d574ea3d1461078657610232565b806395d89b41116100ff57806395d89b4114610641578063a457c2d714610649578063a9059cbb14610675578063a91ee0dc146106a1578063b6b55f25146106c757610232565b80637b103999146106035780637ecebe001461060b5780638456cb59146106315780638ea875f31461063957610232565b80633f4ba83a116101be5780635aa6e675116101825780635aa6e6751461059f5780635c975abb146105a75780636f307dc3146105af57806370a08231146105b7578063753842db146105dd57610232565b80633f4ba83a146103e157806347076ae1146103e9578063481c6a751461052c57806350921b231461055057806359356c5c1461059757610232565b80632e1a7d4d116102055780632e1a7d4d14610344578063313ce567146103635780633644e5151461038157806336efd16f1461038957806339509351146103b557610232565b806306fdde0314610237578063095ea7b3146102b457806318160ddd146102f457806323b872dd1461030e575b600080fd5b61023f610833565b6040805160208082528351818301528351919283929083019185019080838360005b83811015610279578181015183820152602001610261565b50505050905090810190601f1680156102a65780820380516001836020036101000a031916815260200191505b509250505060405180910390f35b6102e0600480360360408110156102ca57600080fd5b506001600160a01b0381351690602001356108c9565b604080519115158252519081900360200190f35b6102fc6108e7565b60408051918252519081900360200190f35b6102e06004803603606081101561032457600080fd5b506001600160a01b038135811691602081013590911690604001356108ed565b6103616004803603602081101561035a57600080fd5b5035610975565b005b61036b610a4b565b6040805160ff9092168252519081900360200190f35b6102fc610a54565b6103616004803603604081101561039f57600080fd5b50803590602001356001600160a01b0316610a63565b6102e0600480360360408110156103cb57600080fd5b506001600160a01b038135169060200135610b90565b610361610bde565b610361600480360360808110156103ff57600080fd5b81019060208101813564010000000081111561041a57600080fd5b82018360208201111561042c57600080fd5b8035906020019184600183028401116401000000008311171561044e57600080fd5b91908080601f01602080910402602001604051908101604052809392919081815260200183838082843760009201919091525092959493602081019350359150506401000000008111156104a157600080fd5b8201836020820111156104b357600080fd5b803590602001918460018302840111640100000000831117156104d557600080fd5b91908080601f016020809104026020016040519081016040528093929190818152602001838380828437600092019190915250929550506001600160a01b038335811694506020909301359092169150610c829050565b610534610dc0565b604080516001600160a01b039092168252519081900360200190f35b610361600480360360c081101561056657600080fd5b508035906001600160a01b036020820135169060408101359060ff6060820135169060808101359060a00135610e33565b6102fc610ff9565b61053461104f565b6102e0611091565b6105346110bc565b6102fc600480360360208110156105cd57600080fd5b50356001600160a01b03166110e7565b610361600480360360208110156105f357600080fd5b50356001600160a01b0316611102565b610534611191565b6102fc6004803603602081101561062157600080fd5b50356001600160a01b03166111bc565b6103616111dd565b6102fc611281565b61023f6112d0565b6102e06004803603604081101561065f57600080fd5b506001600160a01b038135169060200135611331565b6102e06004803603604081101561068b57600080fd5b506001600160a01b038135169060200135611399565b610361600480360360208110156106b757600080fd5b50356001600160a01b03166113ad565b610361600480360360208110156106dd57600080fd5b5035611490565b610361600480360360408110156106fa57600080fd5b506001600160a01b038135169060200135611564565b6102fc6004803603602081101561072657600080fd5b50356115ec565b6102fc611666565b610361600480360360e081101561074b57600080fd5b506001600160a01b03813581169160208101359091169060408101359060608101359060ff6080820135169060a08101359060c001356116a0565b6105346004803603602081101561079c57600080fd5b5035611843565b6102fc6118d3565b6102fc600480360360408110156107c157600080fd5b506001600160a01b03813581169160200135166118ee565b610361600480360360208110156107ef57600080fd5b50356001600160a01b0316611919565b6103616004803603604081101561081557600080fd5b506001600160a01b038135169060200135611a21565b6102fc611b54565b60368054604080516020601f60026000196101006001881615020190951694909404938401819004810282018101909252828152606093909290918301828280156108bf5780601f10610894576101008083540402835291602001916108bf565b820191906000526020600020905b8154815290600101906020018083116108a257829003601f168201915b5050505050905090565b60006108dd6108d6611bb0565b8484611bb4565b5060015b92915050565b60355490565b60006108fa848484611ca0565b61096a84610906611bb0565b61096585604051806060016040528060288152602001613690602891396001600160a01b038a16600090815260346020526040812090610944611bb0565b6001600160a01b031681526020810191909152604001600020549190611dfd565b611bb4565b5060015b9392505050565b333214806109ff5750610986610dc0565b6001600160a01b031663d936547e336040518263ffffffff1660e01b815260040180826001600160a01b0316815260200191505060206040518083038186803b1580156109d257600080fd5b505afa1580156109e6573d6000803e3d6000fd5b505050506040513d60208110156109fc57600080fd5b50515b610a3e576040805162461bcd60e51b815260206004820152601d6024820152600080516020613722833981519152604482015290519081900360640190fd5b610a483382611e94565b50565b60385460ff1690565b6000610a5e611fa7565b905090565b33321480610aed5750610a74610dc0565b6001600160a01b031663d936547e336040518263ffffffff1660e01b815260040180826001600160a01b0316815260200191505060206040518083038186803b158015610ac057600080fd5b505afa158015610ad4573d6000803e3d6000fd5b505050506040513d6020811015610aea57600080fd5b50515b610b2c576040805162461bcd60e51b815260206004820152601d6024820152600080516020613722833981519152604482015290519081900360640190fd5b6001600160a01b038116610b81576040805162461bcd60e51b815260206004820152601760248201527610985b9ace88125b9d985b1a5908149958da5c1a595b9d604a1b604482015290519081900360640190fd5b610b8c823383611fe2565b5050565b60006108dd610b9d611bb0565b846109658560346000610bae611bb0565b6001600160a01b03908116825260208083019390935260409182016000908120918c168152925290205490612122565b610be661104f565b6001600160a01b0316336001600160a01b031614610c4b576040805162461bcd60e51b815260206004820152601b60248201527f537562736372696265723a204f6e6c7920476f7665726e616e63650000000000604482015290519081900360640190fd5b610c55600061217c565b60405133907faeb196d352664784d1900b0e7414a8face7d29f4dae8c4b0cf68ed477423bbf490600090a2565b600054610100900460ff1680610c9b5750610c9b6121a6565b80610ca9575060005460ff16155b610ce45760405162461bcd60e51b815260040180806020018281038252602e81526020018061361f602e913960400191505060405180910390fd5b600054610100900460ff16158015610d0f576000805460ff1961ff0019909116610100171660011790555b6000826001600160a01b031663313ce5676040518163ffffffff1660e01b815260040160206040518083038186803b158015610d4a57600080fd5b505afa158015610d5e573d6000803e3d6000fd5b505050506040513d6020811015610d7457600080fd5b50519050610d8286866121b7565b610d8b8161226d565b610d9486612283565b610d9d84612359565b610da683612449565b508015610db9576000805461ff00191690555b5050505050565b6000610dca611191565b6001600160a01b031663481c6a756040518163ffffffff1660e01b815260040160206040518083038186803b158015610e0257600080fd5b505afa158015610e16573d6000803e3d6000fd5b505050506040513d6020811015610e2c57600080fd5b5051905090565b33321480610ebd5750610e44610dc0565b6001600160a01b031663d936547e336040518263ffffffff1660e01b815260040180826001600160a01b0316815260200191505060206040518083038186803b158015610e9057600080fd5b505afa158015610ea4573d6000803e3d6000fd5b505050506040513d6020811015610eba57600080fd5b50515b610efc576040805162461bcd60e51b815260206004820152601d6024820152600080516020613722833981519152604482015290519081900360640190fd5b6001600160a01b038516610f51576040805162461bcd60e51b815260206004820152601760248201527610985b9ace88125b9d985b1a5908149958da5c1a595b9d604a1b604482015290519081900360640190fd5b610f596110bc565b6040805163d505accf60e01b8152336004820152306024820152604481018990526064810187905260ff8616608482015260a4810185905260c4810184905290516001600160a01b03929092169163d505accf9160e48082019260009290919082900301818387803b158015610fce57600080fd5b505af1158015610fe2573d6000803e3d6000fd5b50505050610ff1863387611fe2565b505050505050565b60006110036110bc565b6001600160a01b03166370a08231306040518263ffffffff1660e01b815260040180826001600160a01b0316815260200191505060206040518083038186803b158015610e0257600080fd5b6000611059611191565b6001600160a01b0316635aa6e6756040518163ffffffff1660e01b815260040160206040518083038186803b158015610e0257600080fd5b6000610a5e7f260da1bd0b3277b5df511eb3ee2570300c0d5002c849b8340104d112bb42b5be6124e9565b6000610a5e7f90773825e4bc2bc5b176633f3046da46e88d251c6a1ff0816162f0a2ed8410ce6124f0565b6001600160a01b031660009081526033602052604090205490565b61110a61104f565b6001600160a01b0316336001600160a01b03161480611141575061112c610dc0565b6001600160a01b0316336001600160a01b0316145b611180576040805162461bcd60e51b815260206004820152601b602482015260008051602061376c833981519152604482015290519081900360640190fd5b610a488161118c610ff9565b6124f4565b6000610a5e7f1b5717851286d5e98a28354be764b8c0a20eb2fbd059120090ee8bcfe1a9bf6c6124f0565b6001600160a01b03811660009081526099602052604081206108e1906124f0565b6111e561104f565b6001600160a01b0316336001600160a01b03161461124a576040805162461bcd60e51b815260206004820152601b60248201527f537562736372696265723a204f6e6c7920476f7665726e616e63650000000000604482015290519081900360640190fd5b611254600161217c565b60405133907f5ee71a369c8672edded508e624ffc9257fa1ae6886ef32905c18e60196bca39990600090a2565b60008061128c6108e7565b90506000611298610a4b565b60ff16600a0a905081156112c7576112c2826112bc836112b66118d3565b906125a3565b906125fc565b6112c9565b805b9250505090565b60378054604080516020601f60026000196101006001881615020190951694909404938401819004810282018101909252828152606093909290918301828280156108bf5780601f10610894576101008083540402835291602001916108bf565b60006108dd61133e611bb0565b846109658560405180606001604052806025815260200161378c6025913960346000611368611bb0565b6001600160a01b03908116825260208083019390935260409182016000908120918d16815292529020549190611dfd565b60006108dd6113a6611bb0565b8484611ca0565b6113b561104f565b6001600160a01b0316336001600160a01b03161461141a576040805162461bcd60e51b815260206004820152601b60248201527f537562736372696265723a204f6e6c7920476f7665726e616e63650000000000604482015290519081900360640190fd5b61142381612663565b61142b61104f565b6001600160a01b0316336001600160a01b031614610a48576040805162461bcd60e51b815260206004820152601a60248201527f537562736372696265723a2042616420476f7665726e616e6365000000000000604482015290519081900360640190fd5b3332148061151a57506114a1610dc0565b6001600160a01b031663d936547e336040518263ffffffff1660e01b815260040180826001600160a01b0316815260200191505060206040518083038186803b1580156114ed57600080fd5b505afa158015611501573d6000803e3d6000fd5b505050506040513d602081101561151757600080fd5b50515b611559576040805162461bcd60e51b815260206004820152601d6024820152600080516020613722833981519152604482015290519081900360640190fd5b610a48813333611fe2565b61156c61104f565b6001600160a01b0316336001600160a01b031614806115a3575061158e610dc0565b6001600160a01b0316336001600160a01b0316145b6115e2576040805162461bcd60e51b815260206004820152601b602482015260008051602061376c833981519152604482015290519081900360640190fd5b610b8c82826124f4565b6000806115f883611843565b9050806001600160a01b031663c9168a596040518163ffffffff1660e01b815260040160206040518083038186803b15801561163357600080fd5b505afa158015611647573d6000803e3d6000fd5b505050506040513d602081101561165d57600080fd5b50519392505050565b600080611671611b54565b905060005b8181101561169b5761169161168a826115ec565b8490612122565b9250600101611676565b505090565b834211156116f5576040805162461bcd60e51b815260206004820152601d60248201527f45524332305065726d69743a206578706972656420646561646c696e65000000604482015290519081900360640190fd5b6000609a5488888861172a609960008e6001600160a01b03166001600160a01b031681526020019081526020016000206124f0565b8960405160200180878152602001866001600160a01b03168152602001856001600160a01b03168152602001848152602001838152602001828152602001965050505050505060405160208183030381529060405280519060200120905060006117938261268d565b905060006117a3828787876126d9565b9050896001600160a01b0316816001600160a01b03161461180b576040805162461bcd60e51b815260206004820152601e60248201527f45524332305065726d69743a20696e76616c6964207369676e61747572650000604482015290519081900360640190fd5b6001600160a01b038a16600090815260996020526040902061182c90612857565b6118378a8a8a611bb4565b50505050505050505050565b600061184d610dc0565b6001600160a01b0316639f8f324430846040518363ffffffff1660e01b815260040180836001600160a01b031681526020018281526020019250505060206040518083038186803b1580156118a157600080fd5b505afa1580156118b5573d6000803e3d6000fd5b505050506040513d60208110156118cb57600080fd5b505192915050565b6000610a5e6118e0611666565b6118e8610ff9565b90612122565b6001600160a01b03918216600090815260346020908152604080832093909416825291909152205490565b61192161104f565b6001600160a01b0316336001600160a01b031614806119585750611943610dc0565b6001600160a01b0316336001600160a01b0316145b611997576040805162461bcd60e51b815260206004820152601b602482015260008051602061376c833981519152604482015290519081900360640190fd5b806001600160a01b031663853828b66040518163ffffffff1660e01b8152600401600060405180830381600087803b1580156119d257600080fd5b505af11580156119e6573d6000803e3d6000fd5b50506040516001600160a01b03841692507fd6ef475a5774b79c35f05422ab4da23b86c302dc3c2235165302499432562f999150600090a250565b611a2961104f565b6001600160a01b0316336001600160a01b03161480611a605750611a4b610dc0565b6001600160a01b0316336001600160a01b0316145b611a9f576040805162461bcd60e51b815260206004820152601b602482015260008051602061376c833981519152604482015290519081900360640190fd5b816001600160a01b0316632e1a7d4d826040518263ffffffff1660e01b815260040180828152602001915050602060405180830381600087803b158015611ae557600080fd5b505af1158015611af9573d6000803e3d6000fd5b505050506040513d6020811015611b0f57600080fd5b50506040805182815290516001600160a01b038416917f22d324652c93739755cf4581508b60875ebdd78c20c0cff5cf8e23452b299631919081900360200190a25050565b6000611b5e610dc0565b6001600160a01b031663b19c0aa3306040518263ffffffff1660e01b815260040180826001600160a01b0316815260200191505060206040518083038186803b158015610e0257600080fd5b3b151590565b3390565b6001600160a01b038316611bf95760405162461bcd60e51b81526004018080602001828103825260248152602001806136fe6024913960400191505060405180910390fd5b6001600160a01b038216611c3e5760405162461bcd60e51b815260040180806020018281038252602281526020018061358f6022913960400191505060405180910390fd5b6001600160a01b03808416600081815260346020908152604080832094871680845294825291829020859055815185815291517f8c5be1e5ebec7d5bd14f71427d1e84f3dd0314c0f7b2291e5b200ac8c7c3b9259281900390910190a3505050565b6001600160a01b038316611ce55760405162461bcd60e51b81526004018080602001828103825260258152602001806136d96025913960400191505060405180910390fd5b6001600160a01b038216611d2a5760405162461bcd60e51b815260040180806020018281038252602381526020018061354a6023913960400191505060405180910390fd5b611d35838383612268565b611d72816040518060600160405280602681526020016135b1602691396001600160a01b0386166000908152603360205260409020549190611dfd565b6001600160a01b038085166000908152603360205260408082209390935590841681522054611da19082612122565b6001600160a01b0380841660008181526033602090815260409182902094909455805185815290519193928716927fddf252ad1be2c89b69c2b068fc378daa952ba7f163c4a11628f55a4df523b3ef92918290030190a3505050565b60008184841115611e8c5760405162461bcd60e51b81526004018080602001828103825283818151815260200191508051906020019080838360005b83811015611e51578181015183820152602001611e39565b50505050905090810190601f168015611e7e5780820380516001836020036101000a031916815260200191505b509250505060405180910390fd5b505050900390565b60008111611ee9576040805162461bcd60e51b815260206004820152601860248201527f42616e6b3a20496e76616c6964207769746864726177616c0000000000000000604482015290519081900360640190fd5b6000611ef36108e7565b9050611eff8383612860565b6000611f09610ff9565b90506000611f1d836112bc866112b66118d3565b905081811115611f4e5782841415611f3c57611f3761295c565b611f4e565b611f4e611f4982846129da565b612a37565b611f6085611f5a6110bc565b83612bf9565b506040805182815290516001600160a01b038716917f884edad9ce6fa2440d8a54cc123490eb96d2768479d49ff9c7366125a9424364919081900360200190a25050505050565b6000610a5e7f8b73c3c69bb8fe3d512ecc4cf759cc79239f7b179b0ffacaa9a75d522b39400f611fd5612cc5565b611fdd612ccb565b612cd1565b6000611fec611b54565b11612034576040805162461bcd60e51b815260206004820152601360248201527242616e6b3a204e6f205374726174656769657360681b604482015290519081900360640190fd5b60008311612081576040805162461bcd60e51b815260206004820152601560248201527410985b9ace88125b9d985b1a590811195c1bdcda5d605a1b604482015290519081900360640190fd5b600061208b6108e7565b9050600081156120af576120aa6120a06118d3565b6112bc87856125a3565b6120b1565b845b90506120bd8382612d33565b6120dc8430876120cb6110bc565b6001600160a01b0316929190612e25565b6040805186815290516001600160a01b038516917fe1fffcc4923d04b559f4d29a8bfc6cda04eb5b0d3c460751c2402c5c5cc9109c919081900360200190a25050505050565b60008282018381101561096e576040805162461bcd60e51b815260206004820152601b60248201527f536166654d6174683a206164646974696f6e206f766572666c6f770000000000604482015290519081900360640190fd5b610a487f260da1bd0b3277b5df511eb3ee2570300c0d5002c849b8340104d112bb42b5be82612e85565b60006121b130611baa565b15905090565b600054610100900460ff16806121d057506121d06121a6565b806121de575060005460ff16155b6122195760405162461bcd60e51b815260040180806020018281038252602e81526020018061361f602e913960400191505060405180910390fd5b600054610100900460ff16158015612244576000805460ff1961ff0019909116610100171660011790555b61224c612ea0565b6122568383612f41565b8015612268576000805461ff00191690555b505050565b6038805460ff191660ff92909216919091179055565b600054610100900460ff168061229c575061229c6121a6565b806122aa575060005460ff16155b6122e55760405162461bcd60e51b815260040180806020018281038252602e81526020018061361f602e913960400191505060405180910390fd5b600054610100900460ff16158015612310576000805460ff1961ff0019909116610100171660011790555b612318612ea0565b61233b82604051806040016040528060018152602001603160f81b815250613019565b612344826130d9565b8015610b8c576000805461ff00191690555050565b600054610100900460ff168061237257506123726121a6565b80612380575060005460ff16155b6123bb5760405162461bcd60e51b815260040180806020018281038252602e81526020018061361f602e913960400191505060405180910390fd5b600054610100900460ff161580156123e6576000805460ff1961ff0019909116610100171660011790555b6123ef82611baa565b612440576040805162461bcd60e51b815260206004820152601c60248201527f537562736372696265723a20496e76616c696420526567697374727900000000604482015290519081900360640190fd5b61234482612663565b600054610100900460ff168061246257506124626121a6565b80612470575060005460ff16155b6124ab5760405162461bcd60e51b815260040180806020018281038252602e81526020018061361f602e913960400191505060405180910390fd5b600054610100900460ff161580156124d6576000805460ff1961ff0019909116610100171660011790555b6124e0600061217c565b6123448261319f565b5460011490565b5490565b80156125085761250682611f5a6110bc565b505b816001600160a01b031663e8b5e51f6040518163ffffffff1660e01b8152600401600060405180830381600087803b15801561254357600080fd5b505af1158015612557573d6000803e3d6000fd5b5050604080516001600160a01b03861681526020810185905281517fd90d253a9de34d2fdd5a75ae49ea17fcb43af32fc8ea08cc6d2341991dd3872e9450908190039091019150a15050565b6000826125b2575060006108e1565b828202828482816125bf57fe5b041461096e5760405162461bcd60e51b815260040180806020018281038252602181526020018061366f6021913960400191505060405180910390fd5b6000808211612652576040805162461bcd60e51b815260206004820152601a60248201527f536166654d6174683a206469766973696f6e206279207a65726f000000000000604482015290519081900360640190fd5b81838161265b57fe5b049392505050565b610a487f1b5717851286d5e98a28354be764b8c0a20eb2fbd059120090ee8bcfe1a9bf6c826131c5565b6000612697611fa7565b82604051602001808061190160f01b81525060020183815260200182815260200192505050604051602081830303815290604052805190602001209050919050565b60007f7fffffffffffffffffffffffffffffff5d576e7357a4501ddfe92f46681b20a082111561273a5760405162461bcd60e51b81526004018080602001828103825260228152602001806135d76022913960400191505060405180910390fd5b8360ff16601b148061274f57508360ff16601c145b61278a5760405162461bcd60e51b815260040180806020018281038252602281526020018061364d6022913960400191505060405180910390fd5b600060018686868660405160008152602001604052604051808581526020018460ff1681526020018381526020018281526020019450505050506020604051602081039080840390855afa1580156127e6573d6000803e3d6000fd5b5050604051601f1901519150506001600160a01b03811661284e576040805162461bcd60e51b815260206004820152601860248201527f45434453413a20696e76616c6964207369676e61747572650000000000000000604482015290519081900360640190fd5b95945050505050565b80546001019055565b6001600160a01b0382166128a55760405162461bcd60e51b81526004018080602001828103825260218152602001806136b86021913960400191505060405180910390fd5b6128b182600083612268565b6128ee8160405180606001604052806022815260200161356d602291396001600160a01b0385166000908152603360205260409020549190611dfd565b6001600160a01b03831660009081526033602052604090205560355461291490826129da565b6035556040805182815290516000916001600160a01b038516917fddf252ad1be2c89b69c2b068fc378daa952ba7f163c4a11628f55a4df523b3ef9181900360200190a35050565b6000612966611b54565b905060005b81811015610b8c5761297c81611843565b6001600160a01b031663853828b66040518163ffffffff1660e01b8152600401600060405180830381600087803b1580156129b657600080fd5b505af11580156129ca573d6000803e3d6000fd5b50506001909201915061296b9050565b600082821115612a31576040805162461bcd60e51b815260206004820152601e60248201527f536166654d6174683a207375627472616374696f6e206f766572666c6f770000604482015290519081900360640190fd5b50900390565b6000612a41610dc0565b90506000816001600160a01b031663f697a036306040518263ffffffff1660e01b815260040180826001600160a01b0316815260200191505060206040518083038186803b158015612a9257600080fd5b505afa158015612aa6573d6000803e3d6000fd5b505050506040513d6020811015612abc57600080fd5b505190506000612aca611b54565b905060005b8181108015612ade5750600085115b15612b94576000612aee84611843565b6001600160a01b0316632e1a7d4d876040518263ffffffff1660e01b815260040180828152602001915050602060405180830381600087803b158015612b3357600080fd5b505af1158015612b47573d6000803e3d6000fd5b505050506040513d6020811015612b5d57600080fd5b50519050612b6b86826129da565b955081600101915082600185031415612b875760009350612b8e565b8360010193505b50612acf565b836001600160a01b0316630e3da0b8846040518263ffffffff1660e01b815260040180828152602001915050600060405180830381600087803b158015612bda57600080fd5b505af1158015612bee573d6000803e3d6000fd5b505050505050505050565b600081612c085750600061096e565b6000836001600160a01b03166370a08231306040518263ffffffff1660e01b815260040180826001600160a01b0316815260200191505060206040518083038186803b158015612c5757600080fd5b505afa158015612c6b573d6000803e3d6000fd5b505050506040513d6020811015612c8157600080fd5b5051905082811015612ca857612ca16001600160a01b03851686836131c9565b905061096e565b612cbc6001600160a01b03851686856131c9565b8291505061096e565b60655490565b60665490565b6000838383612cde61321b565b3060405160200180868152602001858152602001848152602001838152602001826001600160a01b03168152602001955050505050506040516020818303038152906040528051906020012090509392505050565b6001600160a01b038216612d8e576040805162461bcd60e51b815260206004820152601f60248201527f45524332303a206d696e7420746f20746865207a65726f206164647265737300604482015290519081900360640190fd5b612d9a60008383612268565b603554612da79082612122565b6035556001600160a01b038216600090815260336020526040902054612dcd9082612122565b6001600160a01b03831660008181526033602090815260408083209490945583518581529351929391927fddf252ad1be2c89b69c2b068fc378daa952ba7f163c4a11628f55a4df523b3ef9281900390910190a35050565b604080516001600160a01b0380861660248301528416604482015260648082018490528251808303909101815260849091019091526020810180516001600160e01b03166323b872dd60e01b179052612e7f90859061321f565b50505050565b600081612e93576000612e96565b60015b60ff169092555050565b600054610100900460ff1680612eb95750612eb96121a6565b80612ec7575060005460ff16155b612f025760405162461bcd60e51b815260040180806020018281038252602e81526020018061361f602e913960400191505060405180910390fd5b600054610100900460ff16158015612f2d576000805460ff1961ff0019909116610100171660011790555b8015610a48576000805461ff001916905550565b600054610100900460ff1680612f5a5750612f5a6121a6565b80612f68575060005460ff16155b612fa35760405162461bcd60e51b815260040180806020018281038252602e81526020018061361f602e913960400191505060405180910390fd5b600054610100900460ff16158015612fce576000805460ff1961ff0019909116610100171660011790555b8251612fe19060369060208601906134a8565b508151612ff59060379060208501906134a8565b506038805460ff191660121790558015612268576000805461ff0019169055505050565b600054610100900460ff168061303257506130326121a6565b80613040575060005460ff16155b61307b5760405162461bcd60e51b815260040180806020018281038252602e81526020018061361f602e913960400191505060405180910390fd5b600054610100900460ff161580156130a6576000805460ff1961ff0019909116610100171660011790555b82516020808501919091208351918401919091206065919091556066558015612268576000805461ff0019169055505050565b600054610100900460ff16806130f257506130f26121a6565b80613100575060005460ff16155b61313b5760405162461bcd60e51b815260040180806020018281038252602e81526020018061361f602e913960400191505060405180910390fd5b600054610100900460ff16158015613166576000805460ff1961ff0019909116610100171660011790555b7f6e71edae12b1b97f4d1f60370fef10105fa2faae0126114a169c64845d6126c9609a558015610b8c576000805461ff00191690555050565b610a487f90773825e4bc2bc5b176633f3046da46e88d251c6a1ff0816162f0a2ed8410ce825b9055565b604080516001600160a01b038416602482015260448082018490528251808303909101815260649091019091526020810180516001600160e01b031663a9059cbb60e01b17905261226890849061321f565b4690565b6000613274826040518060400160405280602081526020017f5361666545524332303a206c6f772d6c6576656c2063616c6c206661696c6564815250856001600160a01b03166132d09092919063ffffffff16565b8051909150156122685780806020019051602081101561329357600080fd5b50516122685760405162461bcd60e51b815260040180806020018281038252602a815260200180613742602a913960400191505060405180910390fd5b60606132df84846000856132e7565b949350505050565b6060824710156133285760405162461bcd60e51b81526004018080602001828103825260268152602001806135f96026913960400191505060405180910390fd5b61333185611baa565b613382576040805162461bcd60e51b815260206004820152601d60248201527f416464726573733a2063616c6c20746f206e6f6e2d636f6e7472616374000000604482015290519081900360640190fd5b600080866001600160a01b031685876040518082805190602001908083835b602083106133c05780518252601f1990920191602091820191016133a1565b6001836020036101000a03801982511681845116808217855250505050505090500191505060006040518083038185875af1925050503d8060008114613422576040519150601f19603f3d011682016040523d82523d6000602084013e613427565b606091505b5091509150613437828286613442565b979650505050505050565b6060831561345157508161096e565b8251156134615782518084602001fd5b60405162461bcd60e51b8152602060048201818152845160248401528451859391928392604401919085019080838360008315611e51578181015183820152602001611e39565b828054600181600116156101000203166002900490600052602060002090601f0160209004810192826134de5760008555613524565b82601f106134f757805160ff1916838001178555613524565b82800160010185558215613524579182015b82811115613524578251825591602001919060010190613509565b50613530929150613534565b5090565b5b80821115613530576000815560010161353556fe45524332303a207472616e7366657220746f20746865207a65726f206164647265737345524332303a206275726e20616d6f756e7420657863656564732062616c616e636545524332303a20617070726f766520746f20746865207a65726f206164647265737345524332303a207472616e7366657220616d6f756e7420657863656564732062616c616e636545434453413a20696e76616c6964207369676e6174757265202773272076616c7565416464726573733a20696e73756666696369656e742062616c616e636520666f722063616c6c496e697469616c697a61626c653a20636f6e747261637420697320616c726561647920696e697469616c697a656445434453413a20696e76616c6964207369676e6174757265202776272076616c7565536166654d6174683a206d756c7469706c69636174696f6e206f766572666c6f7745524332303a207472616e7366657220616d6f756e74206578636565647320616c6c6f77616e636545524332303a206275726e2066726f6d20746865207a65726f206164647265737345524332303a207472616e736665722066726f6d20746865207a65726f206164647265737345524332303a20617070726f76652066726f6d20746865207a65726f206164647265737342616e6b3a204f6e6c7920454f41206f722077686974656c69737465640000005361666545524332303a204552433230206f7065726174696f6e20646964206e6f742073756363656564537562736372696265723a204f6e6c7920417574686f72697a6564000000000045524332303a2064656372656173656420616c6c6f77616e63652062656c6f77207a65726fa2646970667358221220d1dfc17b14519279b295e30f20f800e0b7da32c4f483e641430dde4c6d55ee2d64736f6c63430007060033496e697469616c697a61626c653a20636f6e747261637420697320616c726561647920696e697469616c697a6564",
  "devdoc": {
    "details": "Base Upgradeable Bank Contract",
    "kind": "dev",
    "methods": {
      "DOMAIN_SEPARATOR()": {
        "details": "See {IERC20Permit-DOMAIN_SEPARATOR}."
      },
      "allowance(address,address)": {
        "details": "See {IERC20-allowance}."
      },
      "approve(address,uint256)": {
        "details": "See {IERC20-approve}. Requirements: - `spender` cannot be the zero address."
      },
      "balanceOf(address)": {
        "details": "See {IERC20-balanceOf}."
      },
      "decimals()": {
        "details": "Returns the number of decimals used to get its user representation. For example, if `decimals` equals `2`, a balance of `505` tokens should be displayed to a user as `5,05` (`505 / 10 ** 2`). Tokens usually opt for a value of 18, imitating the relationship between Ether and Wei. This is the value {ERC20} uses, unless {_setupDecimals} is called. NOTE: This information is only used for _display_ purposes: it in no way affects any of the arithmetic of the contract, including {IERC20-balanceOf} and {IERC20-transfer}."
      },
      "decreaseAllowance(address,uint256)": {
        "details": "Atomically decreases the allowance granted to `spender` by the caller. This is an alternative to {approve} that can be used as a mitigation for problems described in {IERC20-approve}. Emits an {Approval} event indicating the updated allowance. Requirements: - `spender` cannot be the zero address. - `spender` must have allowance for the caller of at least `subtractedValue`."
      },
      "deposit(uint256)": {
        "details": "Deposits for the caller",
        "params": {
          "amount": "The amount of underlying to deposit"
        }
      },
      "depositFor(uint256,address)": {
        "details": "Deposits for any address except the burn address",
        "params": {
          "amount": "The amount of underlying to deposit",
          "recipient": "The address to receive Bank shares"
        }
      },
      "depositWithPermit(uint256,address,uint256,uint8,bytes32,bytes32)": {
        "params": {
          "amount": "The amount of undelrying to deposit",
          "deadline": "The UNIX timestamp the permit expires at",
          "r": "Half of the ECDSA signature pair",
          "recipient": "The address to receive Bank shares",
          "s": "Half of the ECDSA signature pair",
          "v": "The recovery byte of the signature"
        }
      },
      "exit(address,uint256)": {
        "params": {
          "strategy": "The address of the Strategy to exit"
        }
      },
      "governance()": {
        "returns": {
          "_0": "The current Governance address"
        }
      },
      "increaseAllowance(address,uint256)": {
        "details": "Atomically increases the allowance granted to `spender` by the caller. This is an alternative to {approve} that can be used as a mitigation for problems described in {IERC20-approve}. Emits an {Approval} event indicating the updated allowance. Requirements: - `spender` cannot be the zero address."
      },
      "initializeBank(string,string,address,address)": {
        "details": "Should be called when deploying the proxy contract",
        "params": {
          "name_": "The name of the Bank Token",
          "registry_": "Rhe address of the registry",
          "symbol_": "The symbol of the Bank Token",
          "underlying_": "Rhe address of the underlying token that is deposited"
        }
      },
      "invest(address,uint256)": {
        "details": "Only callable by Governance or Manager",
        "params": {
          "amount": "The amount of underlying to invest in the Strategy",
          "strategy": "The address of the Strategy to invest in"
        }
      },
      "investAll(address)": {
        "details": "Only callable by Governance or Manager",
        "params": {
          "strategy": "The address of the Strategy to invest all underlying in"
        }
      },
      "investedBalance()": {
        "returns": {
          "amount": "The virtual balance invested in all Strategies"
        }
      },
      "manager()": {
        "returns": {
          "_0": "The current Manager address"
        }
      },
      "name()": {
        "details": "Returns the name of the token."
      },
      "nonces(address)": {
        "details": "See {IERC20Permit-nonces}."
      },
      "paused()": {
        "returns": {
          "_0": "Boolean for if Bank is paused"
        }
      },
      "permit(address,address,uint256,uint256,uint8,bytes32,bytes32)": {
        "details": "See {IERC20Permit-permit}."
      },
      "registry()": {
        "returns": {
          "_0": "The current Registry address"
        }
      },
      "setRegistry(address)": {
        "details": "Requires sender to be Governance of the new Registry to avoid bricking.Ideally should not be used",
        "params": {
          "registry_": "The new registry"
        }
      },
      "strategies(uint256)": {
        "params": {
          "i": "The Strategy index"
        },
        "returns": {
          "_0": "The address of the Strategy"
        }
      },
      "strategyBalance(uint256)": {
        "details": "Virtual Balance represents the amount of underlying available if we withdrew all",
        "params": {
          "i": "The Strategy Index"
        },
        "returns": {
          "_0": "The virtual balance of underlying invested in the Strategy"
        }
      },
      "symbol()": {
        "details": "Returns the symbol of the token, usually a shorter version of the name."
      },
      "totalStrategies()": {
        "returns": {
          "_0": "The number of Strategies this Bank uses"
        }
      },
      "totalSupply()": {
        "details": "See {IERC20-totalSupply}."
      },
      "transfer(address,uint256)": {
        "details": "See {IERC20-transfer}. Requirements: - `recipient` cannot be the zero address. - the caller must have a balance of at least `amount`."
      },
      "transferFrom(address,address,uint256)": {
        "details": "See {IERC20-transferFrom}. Emits an {Approval} event indicating the updated allowance. This is not required by the EIP. See the note at the beginning of {ERC20}. Requirements: - `sender` and `recipient` cannot be the zero address. - `sender` must have a balance of at least `amount`. - the caller must have allowance for ``sender``'s tokens of at least `amount`."
      },
      "underlying()": {
        "returns": {
          "_0": "The underlying token address"
        }
      },
      "underlyingBalance()": {
        "returns": {
          "_0": "Underlying token balance"
        }
      },
      "virtualBalance()": {
        "returns": {
          "_0": "The balance of underlying if we were to exit all Strategies"
        }
      },
      "virtualPrice()": {
        "returns": {
          "_0": "The amount of underlying each token represents"
        }
      }
    },
    "title": "Oh! Finance Bank",
    "version": 1
  },
  "userdoc": {
    "events": {
      "Deposit(address,uint256)": {
        "notice": "Emitted when a user deposits an amount of underlying"
      },
      "Exit(address,uint256)": {
        "notice": "Event emitted when an amount is withdrawn and exits a strategy"
      },
      "ExitAll(address)": {
        "notice": "Event emitted when all capital is withdrawn and exitted from a strategy"
      },
      "Invest(address,uint256)": {
        "notice": "Emitted when the Bank invests in a Strategy"
      },
      "Pause(address)": {
        "notice": "Event emitted when an amount is withdrawn and exits a strategy"
      },
      "Unpause(address)": {
        "notice": "Event emitted when all capital is withdrawn and exitted from a strategy"
      },
      "Withdraw(address,uint256)": {
        "notice": "Emitted when a user withdraws an amount of underlying"
      }
    },
    "kind": "user",
    "methods": {
      "constructor": {
        "notice": "Initialize the Bank Logic"
      },
      "deposit(uint256)": {
        "notice": "Deposit an amount of underlying to receive Bank shares"
      },
      "depositFor(uint256,address)": {
        "notice": "Deposit an amount of underlying for a given recipient"
      },
      "depositWithPermit(uint256,address,uint256,uint8,bytes32,bytes32)": {
        "notice": "Deposit with Permit for ERC712 Compliant Tokens"
      },
      "exit(address,uint256)": {
        "notice": "Exit and withdraw a given amount from a strategy"
      },
      "exitAll(address)": {
        "notice": "Exit and withdraw all underlying from a given strategy"
      },
      "governance()": {
        "notice": "Get the Governance address"
      },
      "initializeBank(string,string,address,address)": {
        "notice": "Initialize the Bank Proxy"
      },
      "invest(address,uint256)": {
        "notice": "Invest a given amount underlying into a given strategy"
      },
      "investAll(address)": {
        "notice": "Invest all available underlying into a given strategy"
      },
      "investedBalance()": {
        "notice": "Get the total virtual amount invested in all Strategies"
      },
      "manager()": {
        "notice": "Get the Manager address"
      },
      "pause()": {
        "notice": "Pause the Bank"
      },
      "paused()": {
        "notice": "Pause status for this Bank"
      },
      "registry()": {
        "notice": "Get the Registry address"
      },
      "setRegistry(address)": {
        "notice": "Set the Registry for the contract. Only callable by Governance."
      },
      "strategies(uint256)": {
        "notice": "The Bank Strategy at index i"
      },
      "strategyBalance(uint256)": {
        "notice": "Get the virtual balance invested in the Strategy at a given index"
      },
      "totalStrategies()": {
        "notice": "Total Strategies for this Bank"
      },
      "underlying()": {
        "notice": "The underlying token that is deposited"
      },
      "underlyingBalance()": {
        "notice": "Get the underlying balance on the Bank"
      },
      "unpause()": {
        "notice": "Unpause the Bank"
      },
      "virtualBalance()": {
        "notice": "Get the total virtual amount available to the bank"
      },
      "virtualPrice()": {
        "notice": "The virtual price of each token"
      }
    },
    "notice": "ERC-20 Token that represents user share ownership",
    "version": 1
  },
  "storageLayout": {
    "storage": [
      {
        "astId": 847,
        "contract": "contracts/bank/OhBank.sol:OhBank",
        "label": "_initialized",
        "offset": 0,
        "slot": "0",
        "type": "t_bool"
      },
      {
        "astId": 850,
        "contract": "contracts/bank/OhBank.sol:OhBank",
        "label": "_initializing",
        "offset": 1,
        "slot": "0",
        "type": "t_bool"
      },
      {
        "astId": 1802,
        "contract": "contracts/bank/OhBank.sol:OhBank",
        "label": "__gap",
        "offset": 0,
        "slot": "1",
        "type": "t_array(t_uint256)50_storage"
      },
      {
        "astId": 926,
        "contract": "contracts/bank/OhBank.sol:OhBank",
        "label": "_balances",
        "offset": 0,
        "slot": "51",
        "type": "t_mapping(t_address,t_uint256)"
      },
      {
        "astId": 932,
        "contract": "contracts/bank/OhBank.sol:OhBank",
        "label": "_allowances",
        "offset": 0,
        "slot": "52",
        "type": "t_mapping(t_address,t_mapping(t_address,t_uint256))"
      },
      {
        "astId": 934,
        "contract": "contracts/bank/OhBank.sol:OhBank",
        "label": "_totalSupply",
        "offset": 0,
        "slot": "53",
        "type": "t_uint256"
      },
      {
        "astId": 936,
        "contract": "contracts/bank/OhBank.sol:OhBank",
        "label": "_name",
        "offset": 0,
        "slot": "54",
        "type": "t_string_storage"
      },
      {
        "astId": 938,
        "contract": "contracts/bank/OhBank.sol:OhBank",
        "label": "_symbol",
        "offset": 0,
        "slot": "55",
        "type": "t_string_storage"
      },
      {
        "astId": 940,
        "contract": "contracts/bank/OhBank.sol:OhBank",
        "label": "_decimals",
        "offset": 0,
        "slot": "56",
        "type": "t_uint8"
      },
      {
        "astId": 1435,
        "contract": "contracts/bank/OhBank.sol:OhBank",
        "label": "__gap",
        "offset": 0,
        "slot": "57",
        "type": "t_array(t_uint256)44_storage"
      },
      {
        "astId": 123,
        "contract": "contracts/bank/OhBank.sol:OhBank",
        "label": "_HASHED_NAME",
        "offset": 0,
        "slot": "101",
        "type": "t_bytes32"
      },
      {
        "astId": 125,
        "contract": "contracts/bank/OhBank.sol:OhBank",
        "label": "_HASHED_VERSION",
        "offset": 0,
        "slot": "102",
        "type": "t_bytes32"
      },
      {
        "astId": 274,
        "contract": "contracts/bank/OhBank.sol:OhBank",
        "label": "__gap",
        "offset": 0,
        "slot": "103",
        "type": "t_array(t_uint256)50_storage"
      },
      {
        "astId": 299,
        "contract": "contracts/bank/OhBank.sol:OhBank",
        "label": "_nonces",
        "offset": 0,
        "slot": "153",
        "type": "t_mapping(t_address,t_struct(Counter)1813_storage)"
      },
      {
        "astId": 301,
        "contract": "contracts/bank/OhBank.sol:OhBank",
        "label": "_PERMIT_TYPEHASH",
        "offset": 0,
        "slot": "154",
        "type": "t_bytes32"
      },
      {
        "astId": 448,
        "contract": "contracts/bank/OhBank.sol:OhBank",
        "label": "__gap",
        "offset": 0,
        "slot": "155",
        "type": "t_array(t_uint256)49_storage"
      }
    ],
    "types": {
      "t_address": {
        "encoding": "inplace",
        "label": "address",
        "numberOfBytes": "20"
      },
      "t_array(t_uint256)44_storage": {
        "base": "t_uint256",
        "encoding": "inplace",
        "label": "uint256[44]",
        "numberOfBytes": "1408"
      },
      "t_array(t_uint256)49_storage": {
        "base": "t_uint256",
        "encoding": "inplace",
        "label": "uint256[49]",
        "numberOfBytes": "1568"
      },
      "t_array(t_uint256)50_storage": {
        "base": "t_uint256",
        "encoding": "inplace",
        "label": "uint256[50]",
        "numberOfBytes": "1600"
      },
      "t_bool": {
        "encoding": "inplace",
        "label": "bool",
        "numberOfBytes": "1"
      },
      "t_bytes32": {
        "encoding": "inplace",
        "label": "bytes32",
        "numberOfBytes": "32"
      },
      "t_mapping(t_address,t_mapping(t_address,t_uint256))": {
        "encoding": "mapping",
        "key": "t_address",
        "label": "mapping(address => mapping(address => uint256))",
        "numberOfBytes": "32",
        "value": "t_mapping(t_address,t_uint256)"
      },
      "t_mapping(t_address,t_struct(Counter)1813_storage)": {
        "encoding": "mapping",
        "key": "t_address",
        "label": "mapping(address => struct CountersUpgradeable.Counter)",
        "numberOfBytes": "32",
        "value": "t_struct(Counter)1813_storage"
      },
      "t_mapping(t_address,t_uint256)": {
        "encoding": "mapping",
        "key": "t_address",
        "label": "mapping(address => uint256)",
        "numberOfBytes": "32",
        "value": "t_uint256"
      },
      "t_string_storage": {
        "encoding": "bytes",
        "label": "string",
        "numberOfBytes": "32"
      },
      "t_struct(Counter)1813_storage": {
        "encoding": "inplace",
        "label": "struct CountersUpgradeable.Counter",
        "members": [
          {
            "astId": 1812,
            "contract": "contracts/bank/OhBank.sol:OhBank",
            "label": "_value",
            "offset": 0,
            "slot": "0",
            "type": "t_uint256"
          }
        ],
        "numberOfBytes": "32"
      },
      "t_uint256": {
        "encoding": "inplace",
        "label": "uint256",
        "numberOfBytes": "32"
      },
      "t_uint8": {
        "encoding": "inplace",
        "label": "uint8",
        "numberOfBytes": "1"
      }
    }
  }
}