{
  "address": "0x8E5bd22A0606A83183974bA2522C69b4EBdcd92C",
  "abi": [
    {
      "inputs": [],
      "stateMutability": "nonpayable",
      "type": "constructor"
    },
    {
      "anonymous": false,
      "inputs": [
        {
          "indexed": true,
          "internalType": "address",
          "name": "router",
          "type": "address"
        },
        {
          "indexed": true,
          "internalType": "address",
          "name": "token",
          "type": "address"
        },
        {
          "indexed": false,
          "internalType": "uint256",
          "name": "amount",
          "type": "uint256"
        }
      ],
      "name": "Liquidate",
      "type": "event"
    },
    {
      "anonymous": false,
      "inputs": [
        {
          "indexed": true,
          "internalType": "address",
          "name": "token",
          "type": "address"
        },
        {
          "indexed": false,
          "internalType": "uint256",
          "name": "amount",
          "type": "uint256"
        },
        {
          "indexed": false,
          "internalType": "address",
          "name": "recipient",
          "type": "address"
        }
      ],
      "name": "Sweep",
      "type": "event"
    },
    {
      "inputs": [],
      "name": "bank",
      "outputs": [
        {
          "internalType": "address",
          "name": "",
          "type": "address"
        }
      ],
      "stateMutability": "view",
      "type": "function"
    },
    {
      "inputs": [],
      "name": "comptroller",
      "outputs": [
        {
          "internalType": "address",
          "name": "",
          "type": "address"
        }
      ],
      "stateMutability": "view",
      "type": "function"
    },
    {
      "inputs": [],
      "name": "derivative",
      "outputs": [
        {
          "internalType": "address",
          "name": "",
          "type": "address"
        }
      ],
      "stateMutability": "view",
      "type": "function"
    },
    {
      "inputs": [],
      "name": "derivativeBalance",
      "outputs": [
        {
          "internalType": "uint256",
          "name": "",
          "type": "uint256"
        }
      ],
      "stateMutability": "view",
      "type": "function"
    },
    {
      "inputs": [],
      "name": "governance",
      "outputs": [
        {
          "internalType": "address",
          "name": "",
          "type": "address"
        }
      ],
      "stateMutability": "view",
      "type": "function"
    },
    {
      "inputs": [
        {
          "internalType": "address",
          "name": "registry_",
          "type": "address"
        },
        {
          "internalType": "address",
          "name": "bank_",
          "type": "address"
        },
        {
          "internalType": "address",
          "name": "underlying_",
          "type": "address"
        },
        {
          "internalType": "address",
          "name": "derivative_",
          "type": "address"
        },
        {
          "internalType": "address",
          "name": "reward_",
          "type": "address"
        },
        {
          "internalType": "address",
          "name": "comptroller_",
          "type": "address"
        }
      ],
      "name": "initializeCompoundStrategy",
      "outputs": [],
      "stateMutability": "nonpayable",
      "type": "function"
    },
    {
      "inputs": [],
      "name": "invest",
      "outputs": [],
      "stateMutability": "nonpayable",
      "type": "function"
    },
    {
      "inputs": [],
      "name": "investedBalance",
      "outputs": [
        {
          "internalType": "uint256",
          "name": "",
          "type": "uint256"
        }
      ],
      "stateMutability": "view",
      "type": "function"
    },
    {
      "inputs": [],
      "name": "manager",
      "outputs": [
        {
          "internalType": "address",
          "name": "",
          "type": "address"
        }
      ],
      "stateMutability": "view",
      "type": "function"
    },
    {
      "inputs": [],
      "name": "registry",
      "outputs": [
        {
          "internalType": "address",
          "name": "",
          "type": "address"
        }
      ],
      "stateMutability": "view",
      "type": "function"
    },
    {
      "inputs": [],
      "name": "reward",
      "outputs": [
        {
          "internalType": "address",
          "name": "",
          "type": "address"
        }
      ],
      "stateMutability": "view",
      "type": "function"
    },
    {
      "inputs": [],
      "name": "rewardBalance",
      "outputs": [
        {
          "internalType": "uint256",
          "name": "",
          "type": "uint256"
        }
      ],
      "stateMutability": "view",
      "type": "function"
    },
    {
      "inputs": [
        {
          "internalType": "address",
          "name": "registry_",
          "type": "address"
        }
      ],
      "name": "setRegistry",
      "outputs": [],
      "stateMutability": "nonpayable",
      "type": "function"
    },
    {
      "inputs": [
        {
          "internalType": "address",
          "name": "token",
          "type": "address"
        },
        {
          "internalType": "uint256",
          "name": "amount",
          "type": "uint256"
        },
        {
          "internalType": "address",
          "name": "recipient",
          "type": "address"
        }
      ],
      "name": "sweep",
      "outputs": [],
      "stateMutability": "nonpayable",
      "type": "function"
    },
    {
      "inputs": [],
      "name": "underlying",
      "outputs": [
        {
          "internalType": "address",
          "name": "",
          "type": "address"
        }
      ],
      "stateMutability": "view",
      "type": "function"
    },
    {
      "inputs": [],
      "name": "underlyingBalance",
      "outputs": [
        {
          "internalType": "uint256",
          "name": "",
          "type": "uint256"
        }
      ],
      "stateMutability": "view",
      "type": "function"
    },
    {
      "inputs": [
        {
          "internalType": "uint256",
          "name": "amount",
          "type": "uint256"
        }
      ],
      "name": "withdraw",
      "outputs": [
        {
          "internalType": "uint256",
          "name": "",
          "type": "uint256"
        }
      ],
      "stateMutability": "nonpayable",
      "type": "function"
    },
    {
      "inputs": [],
      "name": "withdrawAll",
      "outputs": [],
      "stateMutability": "nonpayable",
      "type": "function"
    }
  ],
  "transactionHash": "0x8b8dd43d816aeee620bd4e24aecfdda7bb08d4c044c41e6f33a9e1bf75ac8cdf",
  "args": [],
  "solcInputHash": "e2f886b8a24d1a496d54c6b0fef6217b",
  "bytecode": "0x60806040523480156200001157600080fd5b50600054610100900460ff16806200002e57506200002e62000134565b806200003d575060005460ff16155b6200007a5760405162461bcd60e51b815260040180806020018281038252602e81526020018062001ccd602e913960400191505060405180910390fd5b600054610100900460ff16158015620000a6576000805460ff1961ff0019909116610100171660011790555b6000620000b262000152565b6001600160a01b031614620000c357fe5b6000620000cf62000184565b6001600160a01b031614620000e057fe5b6000620000ec620001b1565b6001600160a01b031614620000fd57fe5b600062000109620001de565b6001600160a01b0316146200011a57fe5b80156200012d576000805461ff00191690555b5062000215565b60006200014c306200020b60201b6200090f1760201c565b15905090565b60006200017f7f1b5717851286d5e98a28354be764b8c0a20eb2fbd059120090ee8bcfe1a9bf6c62000211565b905090565b60006200017f7fd2eff96e29993ca5431993c3a205e12e198965c0e1fdd87b4899b57f1e611c7462000211565b60006200017f7f0fad97fe3ec7d6c1e9191a09a0c4ccb7a831b6605392e57d2fedb8501a4dc81262000211565b60006200017f7faeb865605058f37eedb4467ee2609ddec592b0c9a6f7f7cb0db3feabe544c71c62000211565b3b151590565b5490565b611aa880620002256000396000f3fe608060405234801561001057600080fd5b50600436106101165760003560e01c806376cdb03b116100a2578063a91ee0dc11610071578063a91ee0dc1461020e578063aa5c3ab414610234578063c9168a591461023c578063dc2c256f14610244578063e8b5e51f1461027a57610116565b806376cdb03b146101a65780637b103999146101ae578063853828b6146101b6578063928334fa146101c057610116565b8063481c6a75116100e9578063481c6a751461017e57806359356c5c146101865780635aa6e6751461018e5780635fe3b567146101965780636f307dc31461019e57610116565b806319776d8e1461011b5780631985a89f14610135578063228cb733146101595780632e1a7d4d14610161575b600080fd5b610123610282565b60408051918252519081900360200190f35b61013d61032a565b604080516001600160a01b039092168252519081900360200190f35b61013d61035a565b6101236004803603602081101561017757600080fd5b5035610385565b61013d6103fd565b61012361043f565b61013d610449565b61013d61048b565b61013d6104b6565b61013d6104e1565b61013d61050c565b6101be610537565b005b6101be600480360360c08110156101d657600080fd5b506001600160a01b038135811691602081013582169160408201358116916060810135821691608082013581169160a00135166105b4565b6101be6004803603602081101561022457600080fd5b50356001600160a01b0316610688565b61012361076e565b610123610798565b6101be6004803603606081101561025a57600080fd5b506001600160a01b038135811691602081013591604090910135166107d7565b6101be61089a565b60008061028d61032a565b6001600160a01b031614156102a457506000610327565b6102ac61032a565b6001600160a01b03166370a08231306040518263ffffffff1660e01b815260040180826001600160a01b0316815260200191505060206040518083038186803b1580156102f857600080fd5b505afa15801561030c573d6000803e3d6000fd5b505050506040513d602081101561032257600080fd5b505190505b90565b60006103557f4ff4c9b81c0bf267e01129f4817e03efc0163ee7133b87bd58118a96bbce43d3610915565b905090565b60006103557faeb865605058f37eedb4467ee2609ddec592b0c9a6f7f7cb0db3feabe544c71c610915565b600061038f6104e1565b6001600160a01b0316336001600160a01b0316146103ea576040805162461bcd60e51b815260206004820152601360248201527253747261746567793a204f6e6c792042616e6b60681b604482015290519081900360640190fd5b60006103f63384610919565b9392505050565b600061040761050c565b6001600160a01b031663481c6a756040518163ffffffff1660e01b815260040160206040518083038186803b1580156102f857600080fd5b60006102ac6104b6565b600061045361050c565b6001600160a01b0316635aa6e6756040518163ffffffff1660e01b815260040160206040518083038186803b1580156102f857600080fd5b60006103557f5afedb916735b48cdf292f42c56bdd9f2c18a47029ac6473a9597ce1cb6a8661610915565b60006103557f0fad97fe3ec7d6c1e9191a09a0c4ccb7a831b6605392e57d2fedb8501a4dc812610915565b60006103557fd2eff96e29993ca5431993c3a205e12e198965c0e1fdd87b4899b57f1e611c74610915565b60006103557f1b5717851286d5e98a28354be764b8c0a20eb2fbd059120090ee8bcfe1a9bf6c610915565b61053f6104e1565b6001600160a01b0316336001600160a01b03161461059a576040805162461bcd60e51b815260206004820152601360248201527253747261746567793a204f6e6c792042616e6b60681b604482015290519081900360640190fd5b60006105a4610798565b90506105b03382610919565b5050565b600054610100900460ff16806105cd57506105cd6109b8565b806105db575060005460ff16155b6106165760405162461bcd60e51b815260040180806020018281038252602e8152602001806119c4602e913960400191505060405180910390fd5b600054610100900460ff16158015610641576000805460ff1961ff0019909116610100171660011790555b61064e87878787876109c9565b61065782610a85565b61066d6001600160a01b03851686600019610b30565b801561067f576000805461ff00191690555b50505050505050565b610690610449565b6001600160a01b0316336001600160a01b0316146106f5576040805162461bcd60e51b815260206004820152601b60248201527f537562736372696265723a204f6e6c7920476f7665726e616e63650000000000604482015290519081900360640190fd5b6106fe81610c48565b610706610449565b6001600160a01b0316336001600160a01b03161461076b576040805162461bcd60e51b815260206004820152601a60248201527f537562736372696265723a2042616420476f7665726e616e6365000000000000604482015290519081900360640190fd5b50565b60008061077961035a565b6001600160a01b0316141561079057506000610327565b6102ac61035a565b6000806107ab6107a661032a565b610c72565b90506107d1670de0b6b3a76400006107cb6107c4610282565b8490610cdf565b90610d38565b91505090565b6107df610449565b6001600160a01b0316336001600160a01b031614610844576040805162461bcd60e51b815260206004820152601b60248201527f537562736372696265723a204f6e6c7920476f7665726e616e63650000000000604482015290519081900360640190fd5b61084f818484610d9f565b50604080518381526001600160a01b0383811660208301528251908616927f8d71d334346acd8aade4cdca3af39a37fca2620cd870d28ccf94ae4ade61c8f3928290030190a2505050565b6108a26104e1565b6001600160a01b0316336001600160a01b0316146108fd576040805162461bcd60e51b815260206004820152601360248201527253747261746567793a204f6e6c792042616e6b60681b604482015290519081900360640190fd5b610905610e6b565b61090d610ea6565b565b3b151590565b5490565b600081610928575060006109b2565b6000610932610798565b9050600061094c826107cb86670de0b6b3a7640000610cdf565b90506000610966670de0b6b3a76400006107cb8486610cdf565b9050828111156109865761098161097b61032a565b84610ed1565b610997565b61099761099161032a565b82610ed1565b60006109ab876109a56104b6565b88610d9f565b9450505050505b92915050565b60006109c33061090f565b15905090565b600054610100900460ff16806109e257506109e26109b8565b806109f0575060005460ff16155b610a2b5760405162461bcd60e51b815260040180806020018281038252602e8152602001806119c4602e913960400191505060405180910390fd5b600054610100900460ff16158015610a56576000805460ff1961ff0019909116610100171660011790555b610a5f86610fa4565b610a6b85858585611094565b8015610a7d576000805461ff00191690555b505050505050565b600054610100900460ff1680610a9e5750610a9e6109b8565b80610aac575060005460ff16155b610ae75760405162461bcd60e51b815260040180806020018281038252602e8152602001806119c4602e913960400191505060405180910390fd5b600054610100900460ff16158015610b12576000805460ff1961ff0019909116610100171660011790555b610b1b8261115e565b80156105b0576000805461ff00191690555050565b801580610bb6575060408051636eb1769f60e11b81523060048201526001600160a01b03848116602483015291519185169163dd62ed3e91604480820192602092909190829003018186803b158015610b8857600080fd5b505afa158015610b9c573d6000803e3d6000fd5b505050506040513d6020811015610bb257600080fd5b5051155b610bf15760405162461bcd60e51b8152600401808060200182810382526036815260200180611a3d6036913960400191505060405180910390fd5b604080516001600160a01b038416602482015260448082018490528251808303909101815260649091019091526020810180516001600160e01b031663095ea7b360e01b179052610c43908490611188565b505050565b61076b7f1b5717851286d5e98a28354be764b8c0a20eb2fbd059120090ee8bcfe1a9bf6c82611239565b6000816001600160a01b031663182df0f56040518163ffffffff1660e01b815260040160206040518083038186803b158015610cad57600080fd5b505afa158015610cc1573d6000803e3d6000fd5b505050506040513d6020811015610cd757600080fd5b505192915050565b600082610cee575060006109b2565b82820282848281610cfb57fe5b04146103f65760405162461bcd60e51b81526004018080602001828103825260218152602001806119f26021913960400191505060405180910390fd5b6000808211610d8e576040805162461bcd60e51b815260206004820152601a60248201527f536166654d6174683a206469766973696f6e206279207a65726f000000000000604482015290519081900360640190fd5b818381610d9757fe5b049392505050565b600081610dae575060006103f6565b6000836001600160a01b03166370a08231306040518263ffffffff1660e01b815260040180826001600160a01b0316815260200191505060206040518083038186803b158015610dfd57600080fd5b505afa158015610e11573d6000803e3d6000fd5b505050506040513d6020811015610e2757600080fd5b5051905082811015610e4e57610e476001600160a01b038516868361123d565b90506103f6565b610e626001600160a01b038516868561123d565b50909392505050565b610e7b610e7661048b565b61128f565b6000610e8561076e565b9050801561076b5761076b610e9861035a565b610ea06104b6565b836112ea565b6000610eb061043f565b9050801561076b5761076b610ec36104b6565b610ecb61032a565b836114b7565b80610edb576105b0565b6000826001600160a01b031663852a12e3836040518263ffffffff1660e01b815260040180828152602001915050602060405180830381600087803b158015610f2357600080fd5b505af1158015610f37573d6000803e3d6000fd5b505050506040513d6020811015610f4d57600080fd5b505190508015610c43576040805162461bcd60e51b815260206004820152601b60248201527f436f6d706f756e643a2052656465656d20756e6465726c79696e670000000000604482015290519081900360640190fd5b600054610100900460ff1680610fbd5750610fbd6109b8565b80610fcb575060005460ff16155b6110065760405162461bcd60e51b815260040180806020018281038252602e8152602001806119c4602e913960400191505060405180910390fd5b600054610100900460ff16158015611031576000805460ff1961ff0019909116610100171660011790555b61103a8261090f565b61108b576040805162461bcd60e51b815260206004820152601c60248201527f537562736372696265723a20496e76616c696420526567697374727900000000604482015290519081900360640190fd5b610b1b82610c48565b600054610100900460ff16806110ad57506110ad6109b8565b806110bb575060005460ff16155b6110f65760405162461bcd60e51b815260040180806020018281038252602e8152602001806119c4602e913960400191505060405180910390fd5b600054610100900460ff16158015611121576000805460ff1961ff0019909116610100171660011790555b61112a8561159a565b611133846115c4565b61113c836115ee565b61114582611618565b8015611157576000805461ff00191690555b5050505050565b61076b7f5afedb916735b48cdf292f42c56bdd9f2c18a47029ac6473a9597ce1cb6a866182611239565b60006111dd826040518060400160405280602081526020017f5361666545524332303a206c6f772d6c6576656c2063616c6c206661696c6564815250856001600160a01b03166116429092919063ffffffff16565b805190915015610c43578080602001905160208110156111fc57600080fd5b5051610c435760405162461bcd60e51b815260040180806020018281038252602a815260200180611a13602a913960400191505060405180910390fd5b9055565b604080516001600160a01b038416602482015260448082018490528251808303909101815260649091019091526020810180516001600160e01b031663a9059cbb60e01b179052610c43908490611188565b604080516374d7814960e11b815230600482015290516001600160a01b0383169163e9af029291602480830192600092919082900301818387803b1580156112d657600080fd5b505af1158015611157573d6000803e3d6000fd5b60006112f46103fd565b90506000816001600160a01b031663921c86d286866040518363ffffffff1660e01b815260040180836001600160a01b03168152602001826001600160a01b031681526020019250505060206040518083038186803b15801561135657600080fd5b505afa15801561136a573d6000803e3d6000fd5b505050506040513d602081101561138057600080fd5b5051905061138f818685610d9f565b5060408051636f70e66f60e01b81526001600160a01b0384811660048301528781166024830152868116604483015260648201869052600160848301529151600092841691636f70e66f9160a480830192602092919082900301818787803b1580156113fa57600080fd5b505af115801561140e573d6000803e3d6000fd5b505050506040513d602081101561142457600080fd5b505190506001600160a01b038316634893042861143f6104e1565b87846040518463ffffffff1660e01b815260040180846001600160a01b03168152602001836001600160a01b031681526020018281526020019350505050600060405180830381600087803b15801561149757600080fd5b505af11580156114ab573d6000803e3d6000fd5b50505050505050505050565b6114cb6001600160a01b0384168383611659565b6000826001600160a01b031663a0712d68836040518263ffffffff1660e01b815260040180828152602001915050602060405180830381600087803b15801561151357600080fd5b505af1158015611527573d6000803e3d6000fd5b505050506040513d602081101561153d57600080fd5b505190508015611594576040805162461bcd60e51b815260206004820152601760248201527f436f6d706f756e643a20426f72726f77206661696c6564000000000000000000604482015290519081900360640190fd5b50505050565b61076b7fd2eff96e29993ca5431993c3a205e12e198965c0e1fdd87b4899b57f1e611c7482611239565b61076b7f0fad97fe3ec7d6c1e9191a09a0c4ccb7a831b6605392e57d2fedb8501a4dc81282611239565b61076b7f4ff4c9b81c0bf267e01129f4817e03efc0163ee7133b87bd58118a96bbce43d382611239565b61076b7faeb865605058f37eedb4467ee2609ddec592b0c9a6f7f7cb0db3feabe544c71c82611239565b60606116518484600085611744565b949350505050565b60006116ef82856001600160a01b031663dd62ed3e30876040518363ffffffff1660e01b815260040180836001600160a01b03168152602001826001600160a01b031681526020019250505060206040518083038186803b1580156116bd57600080fd5b505afa1580156116d1573d6000803e3d6000fd5b505050506040513d60208110156116e757600080fd5b50519061189f565b604080516001600160a01b038616602482015260448082018490528251808303909101815260649091019091526020810180516001600160e01b031663095ea7b360e01b179052909150611594908590611188565b6060824710156117855760405162461bcd60e51b815260040180806020018281038252602681526020018061199e6026913960400191505060405180910390fd5b61178e8561090f565b6117df576040805162461bcd60e51b815260206004820152601d60248201527f416464726573733a2063616c6c20746f206e6f6e2d636f6e7472616374000000604482015290519081900360640190fd5b600080866001600160a01b031685876040518082805190602001908083835b6020831061181d5780518252601f1990920191602091820191016117fe565b6001836020036101000a03801982511681845116808217855250505050505090500191505060006040518083038185875af1925050503d806000811461187f576040519150601f19603f3d011682016040523d82523d6000602084013e611884565b606091505b50915091506118948282866118f9565b979650505050505050565b6000828201838110156103f6576040805162461bcd60e51b815260206004820152601b60248201527f536166654d6174683a206164646974696f6e206f766572666c6f770000000000604482015290519081900360640190fd5b606083156119085750816103f6565b8251156119185782518084602001fd5b8160405162461bcd60e51b81526004018080602001828103825283818151815260200191508051906020019080838360005b8381101561196257818101518382015260200161194a565b50505050905090810190601f16801561198f5780820380516001836020036101000a031916815260200191505b509250505060405180910390fdfe416464726573733a20696e73756666696369656e742062616c616e636520666f722063616c6c496e697469616c697a61626c653a20636f6e747261637420697320616c726561647920696e697469616c697a6564536166654d6174683a206d756c7469706c69636174696f6e206f766572666c6f775361666545524332303a204552433230206f7065726174696f6e20646964206e6f7420737563636565645361666545524332303a20617070726f76652066726f6d206e6f6e2d7a65726f20746f206e6f6e2d7a65726f20616c6c6f77616e6365a2646970667358221220d8249f9976f7d7c0d43a42a2223cacf4b3f60a25ce6a8e0fc652f8a54660ca6d64736f6c63430007060033496e697469616c697a61626c653a20636f6e747261637420697320616c726561647920696e697469616c697a6564",
  "devdoc": {
    "details": "https://compound.finance/docs/ctokens",
    "kind": "dev",
    "methods": {
      "derivativeBalance()": {
        "details": "Balance of derivative tokens received from Strategy, if applicable",
        "returns": {
          "_0": "The balance of derivative tokens"
        }
      },
      "governance()": {
        "returns": {
          "_0": "The current Governance address"
        }
      },
      "initializeCompoundStrategy(address,address,address,address,address,address)": {
        "details": "The function should be called at time of deployment",
        "params": {
          "bank_": "the bank associated with the strategy",
          "comptroller_": "the Compound rewards contract",
          "derivative_": "the cToken address received from Compound",
          "registry_": "the registry contract",
          "reward_": "the address of the reward token COMP",
          "underlying_": "the underlying token that is deposited"
        }
      },
      "investedBalance()": {
        "details": "Get the exchange rate (which is scaled up by 1e18) and multiply by amount of cTokens",
        "returns": {
          "_0": "The amount of underlying the strategy has invested"
        }
      },
      "manager()": {
        "returns": {
          "_0": "The current Manager address"
        }
      },
      "registry()": {
        "returns": {
          "_0": "The current Registry address"
        }
      },
      "rewardBalance()": {
        "details": "Balance of reward tokens awaiting liquidation, if applicable"
      },
      "setRegistry(address)": {
        "details": "Requires sender to be Governance of the new Registry to avoid bricking.Ideally should not be used",
        "params": {
          "registry_": "The new registry"
        }
      },
      "sweep(address,uint256,address)": {
        "params": {
          "amount": "The amount of tokens to sweep",
          "recipient": "The address to send the sweeped tokens to",
          "token": "The address of the token to sweep"
        }
      },
      "underlyingBalance()": {
        "details": "Balance of underlying awaiting Strategy investment"
      }
    },
    "title": "Oh! Finance Compound Strategy",
    "version": 1
  },
  "userdoc": {
    "kind": "user",
    "methods": {
      "bank()": {
        "notice": "The Bank that the Strategy is associated with"
      },
      "constructor": {
        "notice": "Initialize the Compound Strategy Logic"
      },
      "derivative()": {
        "notice": "The derivative token received from AaveV2 (aToken)"
      },
      "governance()": {
        "notice": "Get the Governance address"
      },
      "initializeCompoundStrategy(address,address,address,address,address,address)": {
        "notice": "Initializes the Compound Strategy Proxy"
      },
      "investedBalance()": {
        "notice": "Get the balance of underlying invested by the Strategy"
      },
      "manager()": {
        "notice": "Get the Manager address"
      },
      "registry()": {
        "notice": "Get the Registry address"
      },
      "reward()": {
        "notice": "The reward token received from AaveV2 (stkAave)"
      },
      "setRegistry(address)": {
        "notice": "Set the Registry for the contract. Only callable by Governance."
      },
      "sweep(address,uint256,address)": {
        "notice": "Governance function to sweep any stuck / airdrop tokens to a given recipient"
      },
      "underlying()": {
        "notice": "The underlying token the Strategy invests in AaveV2"
      }
    },
    "notice": "Standard, unleveraged strategy. Invest underlying tokens into derivative cTokens",
    "version": 1
  },
  "storageLayout": {
    "storage": [
      {
        "astId": 847,
        "contract": "contracts/strategies/compound/OhCompoundStrategy.sol:OhCompoundStrategy",
        "label": "_initialized",
        "offset": 0,
        "slot": "0",
        "type": "t_bool"
      },
      {
        "astId": 850,
        "contract": "contracts/strategies/compound/OhCompoundStrategy.sol:OhCompoundStrategy",
        "label": "_initializing",
        "offset": 1,
        "slot": "0",
        "type": "t_bool"
      }
    ],
    "types": {
      "t_bool": {
        "encoding": "inplace",
        "label": "bool",
        "numberOfBytes": "1"
      }
    }
  }
}