{
  "address": "0xb11f5Fe6f9946429f250f6e4EC75e2B11477B351",
  "abi": [
    {
      "inputs": [
        {
          "internalType": "address",
          "name": "registry_",
          "type": "address"
        },
        {
          "internalType": "address",
          "name": "_token",
          "type": "address"
        },
        {
          "internalType": "uint256",
          "name": "_timelockDelay",
          "type": "uint256"
        },
        {
          "internalType": "uint256",
          "name": "_timelockLength",
          "type": "uint256"
        }
      ],
      "stateMutability": "nonpayable",
      "type": "constructor"
    },
    {
      "anonymous": false,
      "inputs": [
        {
          "indexed": true,
          "internalType": "address",
          "name": "user",
          "type": "address"
        },
        {
          "indexed": false,
          "internalType": "uint256",
          "name": "amount",
          "type": "uint256"
        }
      ],
      "name": "Add",
      "type": "event"
    },
    {
      "anonymous": false,
      "inputs": [
        {
          "indexed": true,
          "internalType": "address",
          "name": "user",
          "type": "address"
        },
        {
          "indexed": false,
          "internalType": "uint256",
          "name": "amount",
          "type": "uint256"
        }
      ],
      "name": "Claim",
      "type": "event"
    },
    {
      "inputs": [
        {
          "internalType": "address[]",
          "name": "users",
          "type": "address[]"
        },
        {
          "internalType": "uint256[]",
          "name": "amounts",
          "type": "uint256[]"
        }
      ],
      "name": "add",
      "outputs": [],
      "stateMutability": "nonpayable",
      "type": "function"
    },
    {
      "inputs": [
        {
          "internalType": "address",
          "name": "",
          "type": "address"
        }
      ],
      "name": "balances",
      "outputs": [
        {
          "internalType": "uint256",
          "name": "",
          "type": "uint256"
        }
      ],
      "stateMutability": "view",
      "type": "function"
    },
    {
      "inputs": [],
      "name": "claim",
      "outputs": [],
      "stateMutability": "nonpayable",
      "type": "function"
    },
    {
      "inputs": [
        {
          "internalType": "address",
          "name": "user",
          "type": "address"
        }
      ],
      "name": "claimable",
      "outputs": [
        {
          "internalType": "uint256",
          "name": "amount",
          "type": "uint256"
        }
      ],
      "stateMutability": "view",
      "type": "function"
    },
    {
      "inputs": [
        {
          "internalType": "address",
          "name": "",
          "type": "address"
        }
      ],
      "name": "claimed",
      "outputs": [
        {
          "internalType": "uint256",
          "name": "",
          "type": "uint256"
        }
      ],
      "stateMutability": "view",
      "type": "function"
    },
    {
      "inputs": [],
      "name": "governance",
      "outputs": [
        {
          "internalType": "address",
          "name": "",
          "type": "address"
        }
      ],
      "stateMutability": "view",
      "type": "function"
    },
    {
      "inputs": [],
      "name": "manager",
      "outputs": [
        {
          "internalType": "address",
          "name": "",
          "type": "address"
        }
      ],
      "stateMutability": "view",
      "type": "function"
    },
    {
      "inputs": [],
      "name": "registry",
      "outputs": [
        {
          "internalType": "address",
          "name": "",
          "type": "address"
        }
      ],
      "stateMutability": "view",
      "type": "function"
    },
    {
      "inputs": [
        {
          "internalType": "address",
          "name": "registry_",
          "type": "address"
        }
      ],
      "name": "setRegistry",
      "outputs": [],
      "stateMutability": "nonpayable",
      "type": "function"
    },
    {
      "inputs": [],
      "name": "timelockLength",
      "outputs": [
        {
          "internalType": "uint256",
          "name": "",
          "type": "uint256"
        }
      ],
      "stateMutability": "view",
      "type": "function"
    },
    {
      "inputs": [],
      "name": "timelockStart",
      "outputs": [
        {
          "internalType": "uint256",
          "name": "",
          "type": "uint256"
        }
      ],
      "stateMutability": "view",
      "type": "function"
    },
    {
      "inputs": [],
      "name": "token",
      "outputs": [
        {
          "internalType": "address",
          "name": "",
          "type": "address"
        }
      ],
      "stateMutability": "view",
      "type": "function"
    }
  ],
  "transactionHash": "0x646e9ea34d0698baaebf1b785a535d60cbe78321c47820d2807d4c0b7343df14",
  "args": [
    "0xb60406a48693c06142085f860Cee9C14D72B217E",
    "0x16ba8Efe847EBDFef99d399902ec29397D403C30",
    2592000,
    124416000
  ],
  "solcInputHash": "2ae1fbaa0a2bdfe558222a1906c1c210",
  "bytecode": "0x608060405234801561001057600080fd5b506040516110ea3803806110ea8339818101604052608081101561003357600080fd5b5080516020808301516040840151606090940151600160005592939092909184906100679082906109c56100f6821b17901c565b6100b8576040805162461bcd60e51b815260206004820152601c60248201527f537562736372696265723a20496e76616c696420526567697374727900000000604482015290519081900360640190fd5b600180546001600160a01b039283166001600160a01b03199182161790915560048054959092169416939093179092554201600555600655506100fc565b3b151590565b610fdf8061010b6000396000f3fe608060405234801561001057600080fd5b50600436106100b45760003560e01c80634e71d92d116100715780634e71d92d146102745780635aa6e6751461027c5780637b10399914610284578063a91ee0dc1461028c578063c884ef83146102b2578063fc0c546a146102d8576100b4565b8063219a1f81146100b95780632315550e146100d357806327e235e3146101fc578063402914f51461022257806342d1a55014610248578063481c6a7514610250575b600080fd5b6100c16102e0565b60408051918252519081900360200190f35b6101fa600480360360408110156100e957600080fd5b81019060208101813564010000000081111561010457600080fd5b82018360208201111561011657600080fd5b8035906020019184602083028401116401000000008311171561013857600080fd5b919080806020026020016040519081016040528093929190818152602001838360200280828437600092019190915250929594936020810193503591505064010000000081111561018857600080fd5b82018360208201111561019a57600080fd5b803590602001918460208302840111640100000000831117156101bc57600080fd5b9190808060200260200160405190810160405280939291908181526020018383602002808284376000920191909152509295506102e6945050505050565b005b6100c16004803603602081101561021257600080fd5b50356001600160a01b03166104eb565b6100c16004803603602081101561023857600080fd5b50356001600160a01b03166104fd565b6100c16105e3565b6102586105e9565b604080516001600160a01b039092168252519081900360200190f35b6101fa61065c565b610258610801565b610258610843565b6101fa600480360360208110156102a257600080fd5b50356001600160a01b0316610852565b6100c1600480360360208110156102c857600080fd5b50356001600160a01b03166109a4565b6102586109b6565b60065481565b6102ee610801565b6001600160a01b0316336001600160a01b031614610353576040805162461bcd60e51b815260206004820152601b60248201527f537562736372696265723a204f6e6c7920476f7665726e616e63650000000000604482015290519081900360640190fd5b80518251146103a9576040805162461bcd60e51b815260206004820152601960248201527f54696d656c6f636b3a20417272697479206d69736d6174636800000000000000604482015290519081900360640190fd5b8151600090815b8181101561045d5760008582815181106103c657fe5b6020026020010151905060008583815181106103de57fe5b6020908102919091018101516001600160a01b038416600090815260029092526040909120819055905061041285826109cb565b6040805183815290519196506001600160a01b038416917f2728c9d3205d667bbc0eefdfeda366261b4d021949630c047f3e5834b30611ab9181900360200190a250506001016103b0565b5060048054604080516323b872dd60e01b8152339381019390935230602484015260448301859052516001600160a01b03909116916323b872dd9160648083019260209291908290030181600087803b1580156104b957600080fd5b505af11580156104cd573d6000803e3d6000fd5b505050506040513d60208110156104e357600080fd5b505050505050565b60026020526000908152604090205481565b6001600160a01b038116600090815260036020526040812054600554421015610540576001600160a01b03831660009081526002602052604090205491506105dd565b60065460055461054f916109cb565b421115610580576001600160a01b0383166000908152600260205260409020546105799082610a2e565b91506105dd565b600061059760055442610a2e90919063ffffffff16565b6006546001600160a01b038616600090815260026020526040812054929350916105cc91906105c69085610a8b565b90610ae4565b90506105d88184610a2e565b935050505b50919050565b60055481565b60006105f3610843565b6001600160a01b031663481c6a756040518163ffffffff1660e01b815260040160206040518083038186803b15801561062b57600080fd5b505afa15801561063f573d6000803e3d6000fd5b505050506040513d602081101561065557600080fd5b5051905090565b600260005414156106b4576040805162461bcd60e51b815260206004820152601f60248201527f5265656e7472616e637947756172643a207265656e7472616e742063616c6c00604482015290519081900360640190fd5b6002600055600554421161070f576040805162461bcd60e51b815260206004820152601a60248201527f54696d656c6f636b3a204c6f636b206e6f742073746172746564000000000000604482015290519081900360640190fd5b33600061071b826104fd565b905060008111610768576040805162461bcd60e51b815260206004820152601360248201527254696d656c6f636b3a204e6f20546f6b656e7360681b604482015290519081900360640190fd5b6001600160a01b03821660009081526003602052604090205461078b90826109cb565b6001600160a01b038084166000908152600360205260409020919091556004546107b89184911683610b4b565b506040805182815290516001600160a01b038416917f47cee97cb7acd717b3c0aa1435d004cd5b3c8c57d70dbceb4e4458bbd60e39d4919081900360200190a250506001600055565b600061080b610843565b6001600160a01b0316635aa6e6756040518163ffffffff1660e01b815260040160206040518083038186803b15801561062b57600080fd5b6001546001600160a01b031690565b61085a610801565b6001600160a01b0316336001600160a01b0316146108bf576040805162461bcd60e51b815260206004820152601b60248201527f537562736372696265723a204f6e6c7920476f7665726e616e63650000000000604482015290519081900360640190fd5b6108c8816109c5565b610919576040805162461bcd60e51b815260206004820152601c60248201527f537562736372696265723a20496e76616c696420526567697374727900000000604482015290519081900360640190fd5b600180546001600160a01b0319166001600160a01b03831617905561093c610801565b6001600160a01b0316336001600160a01b0316146109a1576040805162461bcd60e51b815260206004820152601a60248201527f537562736372696265723a2042616420476f7665726e616e6365000000000000604482015290519081900360640190fd5b50565b60036020526000908152604090205481565b6004546001600160a01b031681565b3b151590565b600082820183811015610a25576040805162461bcd60e51b815260206004820152601b60248201527f536166654d6174683a206164646974696f6e206f766572666c6f770000000000604482015290519081900360640190fd5b90505b92915050565b600082821115610a85576040805162461bcd60e51b815260206004820152601e60248201527f536166654d6174683a207375627472616374696f6e206f766572666c6f770000604482015290519081900360640190fd5b50900390565b600082610a9a57506000610a28565b82820282848281610aa757fe5b0414610a255760405162461bcd60e51b8152600401808060200182810382526021815260200180610f5f6021913960400191505060405180910390fd5b6000808211610b3a576040805162461bcd60e51b815260206004820152601a60248201527f536166654d6174683a206469766973696f6e206279207a65726f000000000000604482015290519081900360640190fd5b818381610b4357fe5b049392505050565b600081610b5a57506000610c13565b6000836001600160a01b03166370a08231306040518263ffffffff1660e01b815260040180826001600160a01b0316815260200191505060206040518083038186803b158015610ba957600080fd5b505afa158015610bbd573d6000803e3d6000fd5b505050506040513d6020811015610bd357600080fd5b5051905082811015610bfa57610bf36001600160a01b0385168683610c1a565b9050610c13565b610c0e6001600160a01b0385168685610c1a565b829150505b9392505050565b604080516001600160a01b038416602482015260448082018490528251808303909101815260649091019091526020810180516001600160e01b031663a9059cbb60e01b179052610c6c908490610c71565b505050565b6000610cc6826040518060400160405280602081526020017f5361666545524332303a206c6f772d6c6576656c2063616c6c206661696c6564815250856001600160a01b0316610d229092919063ffffffff16565b805190915015610c6c57808060200190516020811015610ce557600080fd5b5051610c6c5760405162461bcd60e51b815260040180806020018281038252602a815260200180610f80602a913960400191505060405180910390fd5b6060610d318484600085610d39565b949350505050565b606082471015610d7a5760405162461bcd60e51b8152600401808060200182810382526026815260200180610f396026913960400191505060405180910390fd5b610d83856109c5565b610dd4576040805162461bcd60e51b815260206004820152601d60248201527f416464726573733a2063616c6c20746f206e6f6e2d636f6e7472616374000000604482015290519081900360640190fd5b600080866001600160a01b031685876040518082805190602001908083835b60208310610e125780518252601f199092019160209182019101610df3565b6001836020036101000a03801982511681845116808217855250505050505090500191505060006040518083038185875af1925050503d8060008114610e74576040519150601f19603f3d011682016040523d82523d6000602084013e610e79565b606091505b5091509150610e89828286610e94565b979650505050505050565b60608315610ea3575081610c13565b825115610eb35782518084602001fd5b8160405162461bcd60e51b81526004018080602001828103825283818151815260200191508051906020019080838360005b83811015610efd578181015183820152602001610ee5565b50505050905090810190601f168015610f2a5780820380516001836020036101000a031916815260200191505b509250505060405180910390fdfe416464726573733a20696e73756666696369656e742062616c616e636520666f722063616c6c536166654d6174683a206d756c7469706c69636174696f6e206f766572666c6f775361666545524332303a204552433230206f7065726174696f6e20646964206e6f742073756363656564a2646970667358221220a3fc0c6b25622ea3386322be36159b292a2c0b6e4637a1b53d16d60ddbab6b3564736f6c63430007060033",
  "devdoc": {
    "kind": "dev",
    "methods": {
      "add(address[],uint256[])": {
        "details": "Only callable by Governance, delegates token votes to msg.sender until they are claimed",
        "params": {
          "amounts": "The array of amounts of tokens to add to each users vesting schedule",
          "users": "The array of users to be added to the vesting contract"
        }
      },
      "claim()": {
        "details": "Reentrancy guard to prevent double claims"
      },
      "claimable(address)": {
        "details": "Available = ((Balances[user] * Time_Passed) / Total_Time) - Claimed[user]",
        "params": {
          "user": "The user address to check"
        },
        "returns": {
          "amount": "The amount of tokens available to claim"
        }
      },
      "constructor": {
        "params": {
          "_timelockDelay": "Seconds to delay the timelock from starting",
          "_timelockLength": "The length of the timelock in seconds",
          "_token": "The address of the Oh! Finance Token",
          "registry_": "The address of the Registry"
        }
      },
      "governance()": {
        "returns": {
          "_0": "The current Governance address"
        }
      },
      "manager()": {
        "returns": {
          "_0": "The current Manager address"
        }
      },
      "registry()": {
        "returns": {
          "_0": "The current Registry address"
        }
      },
      "setRegistry(address)": {
        "details": "Requires sender to be Governance of the new Registry to avoid bricking.Ideally should not be used",
        "params": {
          "registry_": "The new registry"
        }
      }
    },
    "title": "Oh! Finance Token Timelock",
    "version": 1
  },
  "userdoc": {
    "events": {
      "Add(address,uint256)": {
        "notice": "Emitted when a user is added to the timelock"
      },
      "Claim(address,uint256)": {
        "notice": "Emitted every time a user claims tokens"
      }
    },
    "kind": "user",
    "methods": {
      "add(address[],uint256[])": {
        "notice": "Add a set of users to the vesting contract with a set amount"
      },
      "balances(address)": {
        "notice": "The total vested balance of tokens a user can claim"
      },
      "claim()": {
        "notice": "Claim all available tokens for the msg.sender, if any"
      },
      "claimable(address)": {
        "notice": "Available tokens available for a user to claim"
      },
      "claimed(address)": {
        "notice": "The total amount of tokens a user has already claimed"
      },
      "constructor": {
        "notice": "Timelock constructor"
      },
      "governance()": {
        "notice": "Get the Governance address"
      },
      "manager()": {
        "notice": "Get the Manager address"
      },
      "registry()": {
        "notice": "Get the Registry address"
      },
      "setRegistry(address)": {
        "notice": "Set the Registry for the contract. Only callable by Governance."
      },
      "timelockLength()": {
        "notice": "The length in seconds of the timelock"
      },
      "timelockStart()": {
        "notice": "The UNIX timestamp that the timelock starts at"
      },
      "token()": {
        "notice": "The Oh! Finance Token address"
      }
    },
    "notice": "Contract to manage linear token vesting over a given time periodUsers accrue vested tokens as soon as the timelock starts, every second",
    "version": 1
  },
  "storageLayout": {
    "storage": [
      {
        "astId": 4538,
        "contract": "contracts/OhTimelock.sol:OhTimelock",
        "label": "_status",
        "offset": 0,
        "slot": "0",
        "type": "t_uint256"
      },
      {
        "astId": 14458,
        "contract": "contracts/OhTimelock.sol:OhTimelock",
        "label": "_registry",
        "offset": 0,
        "slot": "1",
        "type": "t_address"
      },
      {
        "astId": 6679,
        "contract": "contracts/OhTimelock.sol:OhTimelock",
        "label": "balances",
        "offset": 0,
        "slot": "2",
        "type": "t_mapping(t_address,t_uint256)"
      },
      {
        "astId": 6684,
        "contract": "contracts/OhTimelock.sol:OhTimelock",
        "label": "claimed",
        "offset": 0,
        "slot": "3",
        "type": "t_mapping(t_address,t_uint256)"
      },
      {
        "astId": 6687,
        "contract": "contracts/OhTimelock.sol:OhTimelock",
        "label": "token",
        "offset": 0,
        "slot": "4",
        "type": "t_address"
      },
      {
        "astId": 6690,
        "contract": "contracts/OhTimelock.sol:OhTimelock",
        "label": "timelockStart",
        "offset": 0,
        "slot": "5",
        "type": "t_uint256"
      },
      {
        "astId": 6693,
        "contract": "contracts/OhTimelock.sol:OhTimelock",
        "label": "timelockLength",
        "offset": 0,
        "slot": "6",
        "type": "t_uint256"
      }
    ],
    "types": {
      "t_address": {
        "encoding": "inplace",
        "label": "address",
        "numberOfBytes": "20"
      },
      "t_mapping(t_address,t_uint256)": {
        "encoding": "mapping",
        "key": "t_address",
        "label": "mapping(address => uint256)",
        "numberOfBytes": "32",
        "value": "t_uint256"
      },
      "t_uint256": {
        "encoding": "inplace",
        "label": "uint256",
        "numberOfBytes": "32"
      }
    }
  }
}