{
  "address": "0x2046547d3768A94de530FBbA86CD821D4cCf0165",
  "abi": [
    {
      "inputs": [
        {
          "internalType": "address",
          "name": "_registry",
          "type": "address"
        },
        {
          "internalType": "address",
          "name": "_weth",
          "type": "address"
        }
      ],
      "stateMutability": "nonpayable",
      "type": "constructor"
    },
    {
      "inputs": [
        {
          "internalType": "address",
          "name": "from",
          "type": "address"
        },
        {
          "internalType": "address",
          "name": "to",
          "type": "address"
        }
      ],
      "name": "getSwapInfo",
      "outputs": [
        {
          "internalType": "address",
          "name": "router",
          "type": "address"
        },
        {
          "internalType": "address[]",
          "name": "path",
          "type": "address[]"
        }
      ],
      "stateMutability": "view",
      "type": "function"
    },
    {
      "inputs": [],
      "name": "governance",
      "outputs": [
        {
          "internalType": "address",
          "name": "",
          "type": "address"
        }
      ],
      "stateMutability": "view",
      "type": "function"
    },
    {
      "inputs": [
        {
          "internalType": "address",
          "name": "recipient",
          "type": "address"
        },
        {
          "internalType": "address",
          "name": "from",
          "type": "address"
        },
        {
          "internalType": "address",
          "name": "to",
          "type": "address"
        },
        {
          "internalType": "uint256",
          "name": "amount",
          "type": "uint256"
        },
        {
          "internalType": "uint256",
          "name": "minOut",
          "type": "uint256"
        }
      ],
      "name": "liquidate",
      "outputs": [
        {
          "internalType": "uint256",
          "name": "",
          "type": "uint256"
        }
      ],
      "stateMutability": "nonpayable",
      "type": "function"
    },
    {
      "inputs": [],
      "name": "manager",
      "outputs": [
        {
          "internalType": "address",
          "name": "",
          "type": "address"
        }
      ],
      "stateMutability": "view",
      "type": "function"
    },
    {
      "inputs": [],
      "name": "registry",
      "outputs": [
        {
          "internalType": "address",
          "name": "",
          "type": "address"
        }
      ],
      "stateMutability": "view",
      "type": "function"
    },
    {
      "inputs": [
        {
          "internalType": "address",
          "name": "registry_",
          "type": "address"
        }
      ],
      "name": "setRegistry",
      "outputs": [],
      "stateMutability": "nonpayable",
      "type": "function"
    },
    {
      "inputs": [
        {
          "internalType": "address",
          "name": "router",
          "type": "address"
        },
        {
          "internalType": "address",
          "name": "from",
          "type": "address"
        },
        {
          "internalType": "address",
          "name": "to",
          "type": "address"
        },
        {
          "internalType": "address[]",
          "name": "path",
          "type": "address[]"
        }
      ],
      "name": "setSwapRoutes",
      "outputs": [],
      "stateMutability": "nonpayable",
      "type": "function"
    },
    {
      "inputs": [
        {
          "internalType": "address",
          "name": "",
          "type": "address"
        },
        {
          "internalType": "address",
          "name": "",
          "type": "address"
        },
        {
          "internalType": "address",
          "name": "",
          "type": "address"
        },
        {
          "internalType": "uint256",
          "name": "",
          "type": "uint256"
        }
      ],
      "name": "swapRoutes",
      "outputs": [
        {
          "internalType": "address",
          "name": "",
          "type": "address"
        }
      ],
      "stateMutability": "view",
      "type": "function"
    },
    {
      "inputs": [
        {
          "internalType": "address",
          "name": "",
          "type": "address"
        },
        {
          "internalType": "address",
          "name": "",
          "type": "address"
        }
      ],
      "name": "tokenSwapRouter",
      "outputs": [
        {
          "internalType": "address",
          "name": "",
          "type": "address"
        }
      ],
      "stateMutability": "view",
      "type": "function"
    },
    {
      "inputs": [],
      "name": "weth",
      "outputs": [
        {
          "internalType": "address",
          "name": "",
          "type": "address"
        }
      ],
      "stateMutability": "view",
      "type": "function"
    }
  ],
  "transactionHash": "0x2920c226212c4eff2f65afd52dfb77d2ff300d42ec3fbfa25f1236822a91db79",
  "args": [
    "0xb60406a48693c06142085f860Cee9C14D72B217E",
    "0xC02aaA39b223FE8D0A0e5C4F27eAD9083C756Cc2"
  ],
  "solcInputHash": "e2f886b8a24d1a496d54c6b0fef6217b",
  "bytecode": "0x608060405234801561001057600080fd5b506040516110963803806110968339818101604052604081101561003357600080fd5b50805160209182015190918290610053908290610a846100d9821b17901c565b6100a4576040805162461bcd60e51b815260206004820152601c60248201527f537562736372696265723a20496e76616c696420526567697374727900000000604482015290519081900360640190fd5b600080546001600160a01b039283166001600160a01b03199182161790915560038054939092169216919091179055506100df565b3b151590565b610fa8806100ee6000396000f3fe608060405234801561001057600080fd5b506004361061009e5760003560e01c8063a91ee0dc11610066578063a91ee0dc14610133578063ae39ecfc1461015b578063b066223f146101ed578063db33ab101461021b578063e69de846146102df5761009e565b80633fc8cef3146100a3578063481c6a75146100c75780635aa6e675146100cf5780636f70e66f146100d75780637b1039991461012b575b600080fd5b6100ab61031b565b604080516001600160a01b039092168252519081900360200190f35b6100ab61032a565b6100ab61039d565b610119600480360360a08110156100ed57600080fd5b506001600160a01b038135811691602081013582169160408201351690606081013590608001356103df565b60408051918252519081900360200190f35b6100ab61063c565b6101596004803603602081101561014957600080fd5b50356001600160a01b031661064b565b005b6101896004803603604081101561017157600080fd5b506001600160a01b038135811691602001351661079d565b60405180836001600160a01b0316815260200180602001828103825283818151815260200191508051906020019060200280838360005b838110156101d85781810151838201526020016101c0565b50505050905001935050505060405180910390f35b6100ab6004803603604081101561020357600080fd5b506001600160a01b0381358116916020013516610845565b6101596004803603608081101561023157600080fd5b6001600160a01b038235811692602081013582169260408201359092169181019060808101606082013564010000000081111561026d57600080fd5b82018360208201111561027f57600080fd5b803590602001918460208302840111640100000000831117156102a157600080fd5b91908080602002602001604051908101604052809392919081815260200183836020028082843760009201919091525092955061086b945050505050565b6100ab600480360360808110156102f557600080fd5b506001600160a01b03813581169160208101358216916040820135169060600135610a32565b6003546001600160a01b031681565b600061033461063c565b6001600160a01b031663481c6a756040518163ffffffff1660e01b815260040160206040518083038186803b15801561036c57600080fd5b505afa158015610380573d6000803e3d6000fd5b505050506040513d602081101561039657600080fd5b5051905090565b60006103a761063c565b6001600160a01b0316635aa6e6756040518163ffffffff1660e01b815260040160206040518083038186803b15801561036c57600080fd5b6001600160a01b0380851660008181526002602090815260408083208886168085529083528184205490951680845260018352818420948452938252808320948352938152838220805485518184028101840190965280865292948593909283018282801561047757602002820191906000526020600020905b81546001600160a01b03168152600190910190602001808311610459575b5050505050905061049c8286896001600160a01b0316610a8a9092919063ffffffff16565b6000826001600160a01b03166338ed17398787858d426040518663ffffffff1660e01b81526004018086815260200185815260200180602001846001600160a01b03168152602001838152602001828103825285818151815260200191508051906020019060200280838360005b8381101561052257818101518382015260200161050a565b505050509050019650505050505050600060405180830381600087803b15801561054b57600080fd5b505af115801561055f573d6000803e3d6000fd5b505050506040513d6000823e601f3d908101601f19168201604052602081101561058857600080fd5b81019080805160405193929190846401000000008211156105a857600080fd5b9083019060208201858111156105bd57600080fd5b82518660208202830111640100000000821117156105da57600080fd5b82525081516020918201928201910280838360005b838110156106075781810151838201526020016105ef565b5050505090500160405250505090508060018351038151811061062657fe5b6020026020010151935050505095945050505050565b6000546001600160a01b031690565b61065361039d565b6001600160a01b0316336001600160a01b0316146106b8576040805162461bcd60e51b815260206004820152601b60248201527f537562736372696265723a204f6e6c7920476f7665726e616e63650000000000604482015290519081900360640190fd5b6106c181610a84565b610712576040805162461bcd60e51b815260206004820152601c60248201527f537562736372696265723a20496e76616c696420526567697374727900000000604482015290519081900360640190fd5b600080546001600160a01b0319166001600160a01b03831617905561073561039d565b6001600160a01b0316336001600160a01b03161461079a576040805162461bcd60e51b815260206004820152601a60248201527f537562736372696265723a2042616420476f7665726e616e6365000000000000604482015290519081900360640190fd5b50565b6001600160a01b03808316600081815260026020908152604080832086861680855290835281842054909516808452600183528184209484529382528083209483529381529083902080548451818402810184019095528085529293606093909283018282801561083757602002820191906000526020600020905b81546001600160a01b03168152600190910190602001808311610819575b505050505090509250929050565b60026020908152600092835260408084209091529082529020546001600160a01b031681565b61087361039d565b6001600160a01b0316336001600160a01b0316146108d8576040805162461bcd60e51b815260206004820152601b60248201527f537562736372696265723a204f6e6c7920476f7665726e616e63650000000000604482015290519081900360640190fd5b8051816000826108e457fe5b60200260200101516001600160a01b0316846001600160a01b031614610951576040805162461bcd60e51b815260206004820152601860248201527f4c697175696461746f723a20496e76616c69642046726f6d0000000000000000604482015290519081900360640190fd5b81600182038151811061096057fe5b60200260200101516001600160a01b0316836001600160a01b0316146109c6576040805162461bcd60e51b81526020600482015260166024820152754c697175696461746f723a20496e76616c696420546f60501b604482015290519081900360640190fd5b6001600160a01b03848116600081815260026020908152604080832088861680855290835281842080546001600160a01b031916968c16968717905594835260018252808320938352928152828220938252928352208351610a2a92850190610ea8565b505050505050565b60016020528360005260406000206020528260005260406000206020528160005260406000208181548110610a6657600080fd5b6000918252602090912001546001600160a01b031693508492505050565b3b151590565b6000610b2082856001600160a01b031663dd62ed3e30876040518363ffffffff1660e01b815260040180836001600160a01b03168152602001826001600160a01b031681526020019250505060206040518083038186803b158015610aee57600080fd5b505afa158015610b02573d6000803e3d6000fd5b505050506040513d6020811015610b1857600080fd5b505190610b7b565b604080516001600160a01b038616602482015260448082018490528251808303909101815260649091019091526020810180516001600160e01b031663095ea7b360e01b179052909150610b75908590610bdc565b50505050565b600082820183811015610bd5576040805162461bcd60e51b815260206004820152601b60248201527f536166654d6174683a206164646974696f6e206f766572666c6f770000000000604482015290519081900360640190fd5b9392505050565b6000610c31826040518060400160405280602081526020017f5361666545524332303a206c6f772d6c6576656c2063616c6c206661696c6564815250856001600160a01b0316610c929092919063ffffffff16565b805190915015610c8d57808060200190516020811015610c5057600080fd5b5051610c8d5760405162461bcd60e51b815260040180806020018281038252602a815260200180610f49602a913960400191505060405180910390fd5b505050565b6060610ca18484600085610ca9565b949350505050565b606082471015610cea5760405162461bcd60e51b8152600401808060200182810382526026815260200180610f236026913960400191505060405180910390fd5b610cf385610a84565b610d44576040805162461bcd60e51b815260206004820152601d60248201527f416464726573733a2063616c6c20746f206e6f6e2d636f6e7472616374000000604482015290519081900360640190fd5b600080866001600160a01b031685876040518082805190602001908083835b60208310610d825780518252601f199092019160209182019101610d63565b6001836020036101000a03801982511681845116808217855250505050505090500191505060006040518083038185875af1925050503d8060008114610de4576040519150601f19603f3d011682016040523d82523d6000602084013e610de9565b606091505b5091509150610df9828286610e04565b979650505050505050565b60608315610e13575081610bd5565b825115610e235782518084602001fd5b8160405162461bcd60e51b81526004018080602001828103825283818151815260200191508051906020019080838360005b83811015610e6d578181015183820152602001610e55565b50505050905090810190601f168015610e9a5780820380516001836020036101000a031916815260200191505b509250505060405180910390fd5b828054828255906000526020600020908101928215610efd579160200282015b82811115610efd57825182546001600160a01b0319166001600160a01b03909116178255602090920191600190910190610ec8565b50610f09929150610f0d565b5090565b5b80821115610f095760008155600101610f0e56fe416464726573733a20696e73756666696369656e742062616c616e636520666f722063616c6c5361666545524332303a204552433230206f7065726174696f6e20646964206e6f742073756363656564a2646970667358221220bab6340508a66509c822e660b94a992a3a58f3e50d262010d7c0a3160e4a149764736f6c63430007060033",
  "devdoc": {
    "details": "This version generalizes the router address",
    "kind": "dev",
    "methods": {
      "constructor": {
        "params": {
          "_registry": "The address of the Registry",
          "_weth": "The address of WETH or the wrapped underlying coin"
        }
      },
      "getSwapInfo(address,address)": {
        "params": {
          "from": "The token that we have",
          "to": "The token that we want"
        }
      },
      "governance()": {
        "returns": {
          "_0": "The current Governance address"
        }
      },
      "liquidate(address,address,address,uint256,uint256)": {
        "details": "Send proceeds to the caller, `msg.sender` will typically be a Strategy",
        "params": {
          "amount": "The amount of 'from' tokens to swap",
          "from": "The token we have",
          "minOut": "The minimum output amount accepted",
          "recipient": "The recipient of the swap",
          "to": "The token we want to swap to"
        },
        "returns": {
          "_0": "The amount of 'to' tokens received"
        }
      },
      "manager()": {
        "returns": {
          "_0": "The current Manager address"
        }
      },
      "registry()": {
        "returns": {
          "_0": "The current Registry address"
        }
      },
      "setRegistry(address)": {
        "details": "Requires sender to be Governance of the new Registry to avoid bricking.Ideally should not be used",
        "params": {
          "registry_": "The new registry"
        }
      },
      "setSwapRoutes(address,address,address,address[])": {
        "params": {
          "from": "The token that we have",
          "path": "The swap path used to get the desired token",
          "to": "The token that we want"
        }
      }
    },
    "title": "Oh! Finance Liquidator V2",
    "version": 1
  },
  "userdoc": {
    "kind": "user",
    "methods": {
      "constructor": {
        "notice": "Initialize the Liquidator with Uniswap and Sushiswap V2 Router Addresses"
      },
      "getSwapInfo(address,address)": {
        "notice": "Get the router and swap path for a token pair"
      },
      "governance()": {
        "notice": "Get the Governance address"
      },
      "liquidate(address,address,address,uint256,uint256)": {
        "notice": "Liquidate an amount of 'from' tokens to 'to' tokens from this address"
      },
      "manager()": {
        "notice": "Get the Manager address"
      },
      "registry()": {
        "notice": "Get the Registry address"
      },
      "setRegistry(address)": {
        "notice": "Set the Registry for the contract. Only callable by Governance."
      },
      "setSwapRoutes(address,address,address,address[])": {
        "notice": "Set liquidation route for a token pair on Uniswap"
      },
      "swapRoutes(address,address,address,uint256)": {
        "notice": "mapping of router to source token to desired token to swap liquidation route"
      },
      "tokenSwapRouter(address,address)": {
        "notice": "mapping of source token to desired token to router used for liquidation"
      },
      "weth()": {
        "notice": "address of WETH"
      }
    },
    "notice": "Contract to manage standard token liquidations on UniswapV2-like routers",
    "version": 1
  },
  "storageLayout": {
    "storage": [
      {
        "astId": 14458,
        "contract": "contracts/liquidators/OhLiquidatorV2.sol:OhLiquidatorV2",
        "label": "_registry",
        "offset": 0,
        "slot": "0",
        "type": "t_address"
      },
      {
        "astId": 11904,
        "contract": "contracts/liquidators/OhLiquidatorV2.sol:OhLiquidatorV2",
        "label": "swapRoutes",
        "offset": 0,
        "slot": "1",
        "type": "t_mapping(t_address,t_mapping(t_address,t_mapping(t_address,t_array(t_address)dyn_storage)))"
      },
      {
        "astId": 11911,
        "contract": "contracts/liquidators/OhLiquidatorV2.sol:OhLiquidatorV2",
        "label": "tokenSwapRouter",
        "offset": 0,
        "slot": "2",
        "type": "t_mapping(t_address,t_mapping(t_address,t_address))"
      },
      {
        "astId": 11915,
        "contract": "contracts/liquidators/OhLiquidatorV2.sol:OhLiquidatorV2",
        "label": "weth",
        "offset": 0,
        "slot": "3",
        "type": "t_address"
      }
    ],
    "types": {
      "t_address": {
        "encoding": "inplace",
        "label": "address",
        "numberOfBytes": "20"
      },
      "t_array(t_address)dyn_storage": {
        "base": "t_address",
        "encoding": "dynamic_array",
        "label": "address[]",
        "numberOfBytes": "32"
      },
      "t_mapping(t_address,t_address)": {
        "encoding": "mapping",
        "key": "t_address",
        "label": "mapping(address => address)",
        "numberOfBytes": "32",
        "value": "t_address"
      },
      "t_mapping(t_address,t_array(t_address)dyn_storage)": {
        "encoding": "mapping",
        "key": "t_address",
        "label": "mapping(address => address[])",
        "numberOfBytes": "32",
        "value": "t_array(t_address)dyn_storage"
      },
      "t_mapping(t_address,t_mapping(t_address,t_address))": {
        "encoding": "mapping",
        "key": "t_address",
        "label": "mapping(address => mapping(address => address))",
        "numberOfBytes": "32",
        "value": "t_mapping(t_address,t_address)"
      },
      "t_mapping(t_address,t_mapping(t_address,t_array(t_address)dyn_storage))": {
        "encoding": "mapping",
        "key": "t_address",
        "label": "mapping(address => mapping(address => address[]))",
        "numberOfBytes": "32",
        "value": "t_mapping(t_address,t_array(t_address)dyn_storage)"
      },
      "t_mapping(t_address,t_mapping(t_address,t_mapping(t_address,t_array(t_address)dyn_storage)))": {
        "encoding": "mapping",
        "key": "t_address",
        "label": "mapping(address => mapping(address => mapping(address => address[])))",
        "numberOfBytes": "32",
        "value": "t_mapping(t_address,t_mapping(t_address,t_array(t_address)dyn_storage))"
      }
    }
  }
}