{
  "address": "0x85a9758e7ffDD0B63c73D71F976C1e0cEDA53202",
  "abi": [
    {
      "inputs": [
        {
          "internalType": "address",
          "name": "registry_",
          "type": "address"
        },
        {
          "internalType": "address",
          "name": "token_",
          "type": "address"
        }
      ],
      "stateMutability": "nonpayable",
      "type": "constructor"
    },
    {
      "anonymous": false,
      "inputs": [
        {
          "indexed": true,
          "internalType": "address",
          "name": "bank",
          "type": "address"
        },
        {
          "indexed": true,
          "internalType": "address",
          "name": "strategy",
          "type": "address"
        },
        {
          "indexed": false,
          "internalType": "uint256",
          "name": "profitAmount",
          "type": "uint256"
        },
        {
          "indexed": false,
          "internalType": "uint256",
          "name": "buybackAmount",
          "type": "uint256"
        },
        {
          "indexed": false,
          "internalType": "uint256",
          "name": "managementAmount",
          "type": "uint256"
        }
      ],
      "name": "AccrueRevenue",
      "type": "event"
    },
    {
      "anonymous": false,
      "inputs": [
        {
          "indexed": true,
          "internalType": "address",
          "name": "from",
          "type": "address"
        },
        {
          "indexed": false,
          "internalType": "uint256",
          "name": "amount",
          "type": "uint256"
        },
        {
          "indexed": false,
          "internalType": "uint256",
          "name": "buybackAmount",
          "type": "uint256"
        }
      ],
      "name": "Buyback",
      "type": "event"
    },
    {
      "anonymous": false,
      "inputs": [
        {
          "indexed": true,
          "internalType": "address",
          "name": "bank",
          "type": "address"
        },
        {
          "indexed": true,
          "internalType": "address",
          "name": "strategy",
          "type": "address"
        }
      ],
      "name": "Finance",
      "type": "event"
    },
    {
      "anonymous": false,
      "inputs": [
        {
          "indexed": true,
          "internalType": "address",
          "name": "bank",
          "type": "address"
        }
      ],
      "name": "FinanceAll",
      "type": "event"
    },
    {
      "anonymous": false,
      "inputs": [
        {
          "indexed": true,
          "internalType": "address",
          "name": "bank",
          "type": "address"
        }
      ],
      "name": "Rebalance",
      "type": "event"
    },
    {
      "inputs": [],
      "name": "FEE_DENOMINATOR",
      "outputs": [
        {
          "internalType": "uint256",
          "name": "",
          "type": "uint256"
        }
      ],
      "stateMutability": "view",
      "type": "function"
    },
    {
      "inputs": [],
      "name": "MAX_BUYBACK_FEE",
      "outputs": [
        {
          "internalType": "uint256",
          "name": "",
          "type": "uint256"
        }
      ],
      "stateMutability": "view",
      "type": "function"
    },
    {
      "inputs": [],
      "name": "MAX_MANAGEMENT_FEE",
      "outputs": [
        {
          "internalType": "uint256",
          "name": "",
          "type": "uint256"
        }
      ],
      "stateMutability": "view",
      "type": "function"
    },
    {
      "inputs": [],
      "name": "MIN_BUYBACK_FEE",
      "outputs": [
        {
          "internalType": "uint256",
          "name": "",
          "type": "uint256"
        }
      ],
      "stateMutability": "view",
      "type": "function"
    },
    {
      "inputs": [],
      "name": "MIN_MANAGEMENT_FEE",
      "outputs": [
        {
          "internalType": "uint256",
          "name": "",
          "type": "uint256"
        }
      ],
      "stateMutability": "view",
      "type": "function"
    },
    {
      "inputs": [
        {
          "internalType": "address",
          "name": "bank",
          "type": "address"
        },
        {
          "internalType": "address",
          "name": "underlying",
          "type": "address"
        },
        {
          "internalType": "uint256",
          "name": "amount",
          "type": "uint256"
        }
      ],
      "name": "accrueRevenue",
      "outputs": [],
      "stateMutability": "nonpayable",
      "type": "function"
    },
    {
      "inputs": [
        {
          "internalType": "uint256",
          "name": "i",
          "type": "uint256"
        }
      ],
      "name": "banks",
      "outputs": [
        {
          "internalType": "address",
          "name": "",
          "type": "address"
        }
      ],
      "stateMutability": "view",
      "type": "function"
    },
    {
      "inputs": [
        {
          "internalType": "address",
          "name": "from",
          "type": "address"
        }
      ],
      "name": "buyback",
      "outputs": [],
      "stateMutability": "nonpayable",
      "type": "function"
    },
    {
      "inputs": [],
      "name": "buybackFee",
      "outputs": [
        {
          "internalType": "uint256",
          "name": "",
          "type": "uint256"
        }
      ],
      "stateMutability": "view",
      "type": "function"
    },
    {
      "inputs": [
        {
          "internalType": "address",
          "name": "bank",
          "type": "address"
        },
        {
          "internalType": "address",
          "name": "strategy",
          "type": "address"
        }
      ],
      "name": "exit",
      "outputs": [],
      "stateMutability": "nonpayable",
      "type": "function"
    },
    {
      "inputs": [
        {
          "internalType": "address",
          "name": "bank",
          "type": "address"
        }
      ],
      "name": "exitAll",
      "outputs": [],
      "stateMutability": "nonpayable",
      "type": "function"
    },
    {
      "inputs": [
        {
          "internalType": "address",
          "name": "bank",
          "type": "address"
        }
      ],
      "name": "finance",
      "outputs": [],
      "stateMutability": "nonpayable",
      "type": "function"
    },
    {
      "inputs": [
        {
          "internalType": "address",
          "name": "bank",
          "type": "address"
        }
      ],
      "name": "financeAll",
      "outputs": [],
      "stateMutability": "nonpayable",
      "type": "function"
    },
    {
      "inputs": [],
      "name": "governance",
      "outputs": [
        {
          "internalType": "address",
          "name": "",
          "type": "address"
        }
      ],
      "stateMutability": "view",
      "type": "function"
    },
    {
      "inputs": [
        {
          "internalType": "address",
          "name": "",
          "type": "address"
        },
        {
          "internalType": "address",
          "name": "",
          "type": "address"
        }
      ],
      "name": "liquidators",
      "outputs": [
        {
          "internalType": "address",
          "name": "",
          "type": "address"
        }
      ],
      "stateMutability": "view",
      "type": "function"
    },
    {
      "inputs": [],
      "name": "managementFee",
      "outputs": [
        {
          "internalType": "uint256",
          "name": "",
          "type": "uint256"
        }
      ],
      "stateMutability": "view",
      "type": "function"
    },
    {
      "inputs": [],
      "name": "manager",
      "outputs": [
        {
          "internalType": "address",
          "name": "",
          "type": "address"
        }
      ],
      "stateMutability": "view",
      "type": "function"
    },
    {
      "inputs": [
        {
          "internalType": "address",
          "name": "bank",
          "type": "address"
        }
      ],
      "name": "rebalance",
      "outputs": [],
      "stateMutability": "nonpayable",
      "type": "function"
    },
    {
      "inputs": [],
      "name": "registry",
      "outputs": [
        {
          "internalType": "address",
          "name": "",
          "type": "address"
        }
      ],
      "stateMutability": "view",
      "type": "function"
    },
    {
      "inputs": [
        {
          "internalType": "address",
          "name": "_bank",
          "type": "address"
        },
        {
          "internalType": "bool",
          "name": "_approved",
          "type": "bool"
        }
      ],
      "name": "setBank",
      "outputs": [],
      "stateMutability": "nonpayable",
      "type": "function"
    },
    {
      "inputs": [
        {
          "internalType": "uint256",
          "name": "_buybackFee",
          "type": "uint256"
        }
      ],
      "name": "setBuybackFee",
      "outputs": [],
      "stateMutability": "nonpayable",
      "type": "function"
    },
    {
      "inputs": [
        {
          "internalType": "address",
          "name": "_liquidator",
          "type": "address"
        },
        {
          "internalType": "address",
          "name": "_from",
          "type": "address"
        },
        {
          "internalType": "address",
          "name": "_to",
          "type": "address"
        }
      ],
      "name": "setLiquidator",
      "outputs": [],
      "stateMutability": "nonpayable",
      "type": "function"
    },
    {
      "inputs": [
        {
          "internalType": "uint256",
          "name": "_managementFee",
          "type": "uint256"
        }
      ],
      "name": "setManagementFee",
      "outputs": [],
      "stateMutability": "nonpayable",
      "type": "function"
    },
    {
      "inputs": [
        {
          "internalType": "address",
          "name": "registry_",
          "type": "address"
        }
      ],
      "name": "setRegistry",
      "outputs": [],
      "stateMutability": "nonpayable",
      "type": "function"
    },
    {
      "inputs": [
        {
          "internalType": "address",
          "name": "_bank",
          "type": "address"
        },
        {
          "internalType": "address",
          "name": "_strategy",
          "type": "address"
        },
        {
          "internalType": "bool",
          "name": "_approved",
          "type": "bool"
        }
      ],
      "name": "setStrategy",
      "outputs": [],
      "stateMutability": "nonpayable",
      "type": "function"
    },
    {
      "inputs": [
        {
          "internalType": "address",
          "name": "_contract",
          "type": "address"
        },
        {
          "internalType": "bool",
          "name": "_whitelisted",
          "type": "bool"
        }
      ],
      "name": "setWhitelisted",
      "outputs": [],
      "stateMutability": "nonpayable",
      "type": "function"
    },
    {
      "inputs": [
        {
          "internalType": "uint256",
          "name": "i",
          "type": "uint256"
        }
      ],
      "name": "setWithdrawIndex",
      "outputs": [],
      "stateMutability": "nonpayable",
      "type": "function"
    },
    {
      "inputs": [
        {
          "internalType": "address",
          "name": "bank",
          "type": "address"
        },
        {
          "internalType": "uint256",
          "name": "i",
          "type": "uint256"
        }
      ],
      "name": "strategies",
      "outputs": [
        {
          "internalType": "address",
          "name": "",
          "type": "address"
        }
      ],
      "stateMutability": "view",
      "type": "function"
    },
    {
      "inputs": [],
      "name": "token",
      "outputs": [
        {
          "internalType": "address",
          "name": "",
          "type": "address"
        }
      ],
      "stateMutability": "view",
      "type": "function"
    },
    {
      "inputs": [],
      "name": "totalBanks",
      "outputs": [
        {
          "internalType": "uint256",
          "name": "",
          "type": "uint256"
        }
      ],
      "stateMutability": "view",
      "type": "function"
    },
    {
      "inputs": [
        {
          "internalType": "address",
          "name": "bank",
          "type": "address"
        }
      ],
      "name": "totalStrategies",
      "outputs": [
        {
          "internalType": "uint256",
          "name": "",
          "type": "uint256"
        }
      ],
      "stateMutability": "view",
      "type": "function"
    },
    {
      "inputs": [
        {
          "internalType": "address",
          "name": "",
          "type": "address"
        }
      ],
      "name": "whitelisted",
      "outputs": [
        {
          "internalType": "bool",
          "name": "",
          "type": "bool"
        }
      ],
      "stateMutability": "view",
      "type": "function"
    },
    {
      "inputs": [
        {
          "internalType": "address",
          "name": "bank",
          "type": "address"
        }
      ],
      "name": "withdrawIndex",
      "outputs": [
        {
          "internalType": "uint256",
          "name": "",
          "type": "uint256"
        }
      ],
      "stateMutability": "view",
      "type": "function"
    }
  ],
  "transactionHash": "0xb3c69c139bb51587482cf040ad25415aaa7db0b35c5be0930f422db25090f232",
  "args": [
    "0xb60406a48693c06142085f860Cee9C14D72B217E",
    "0x16ba8Efe847EBDFef99d399902ec29397D403C30"
  ],
  "solcInputHash": "e2f886b8a24d1a496d54c6b0fef6217b",
  "bytecode": "0x60806040523480156200001157600080fd5b50604051620025e6380380620025e6833981810160405260408110156200003757600080fd5b508051602091820151909182906200005a90829062001ced620000ec821b17901c565b620000ac576040805162461bcd60e51b815260206004820152601c60248201527f537562736372696265723a20496e76616c696420526567697374727900000000604482015290519081900360640190fd5b600080546001600160a01b039283166001600160a01b031991821617909155600180549390921692169190911790555060c86002556014600355620000f2565b3b151590565b6124e480620001026000396000f3fe608060405234801561001057600080fd5b50600436106101fa5760003560e01c8063a1b827231161011a578063d73792a9116100ad578063f697a0361161007c578063f697a03614610550578063fb3e6f2914610576578063fc0c546a1461059c578063fd263390146105a4578063fe56e232146105d2576101fa565b8063d73792a9146104e0578063d936547e146104e8578063eb0dff6614610522578063f01cc0a614610548576101fa565b8063aa4fbf4a116100e9578063aa4fbf4a14610454578063b19c0aa31461048c578063bae7c80d146104b2578063d36b5937146104d8576101fa565b8063a1b82723146103f0578063a625403a146103f8578063a6f7f5d614610426578063a91ee0dc1461042e576101fa565b8063606b473a11610192578063921c86d211610161578063921c86d2146103685780639281aa0b146103965780639908840c146103585780639f8f3244146103c4576101fa565b8063606b473a146102fa5780636ed77343146103205780637140f2e8146103585780637b10399914610360576101fa565b80634567bfba116101ce5780634567bfba14610297578063481c6a75146102b457806348930428146102bc5780635aa6e675146102f2576101fa565b806285ae2b146101ff5780630e3da0b81461023857806321c28191146102575780633b2d081c1461027d575b600080fd5b61021c6004803603602081101561021557600080fd5b50356105ef565b604080516001600160a01b039092168252519081900360200190f35b6102556004803603602081101561024e57600080fd5b5035610602565b005b6102556004803603602081101561026d57600080fd5b50356001600160a01b0316610678565b610285610935565b60408051918252519081900360200190f35b610255600480360360208110156102ad57600080fd5b503561093b565b61021c610a46565b610255600480360360608110156102d257600080fd5b506001600160a01b03813581169160208101359091169060400135610ab9565b61021c610bf4565b6102556004803603602081101561031057600080fd5b50356001600160a01b0316610c36565b6102556004803603606081101561033657600080fd5b506001600160a01b038135811691602081013582169160409091013516610eaa565b610285610f9c565b61021c610fa1565b61021c6004803603604081101561037e57600080fd5b506001600160a01b0381358116916020013516610fb0565b610255600480360360408110156103ac57600080fd5b506001600160a01b0381351690602001351515610fd6565b61021c600480360360408110156103da57600080fd5b506001600160a01b0381351690602001356110b8565b6102856110e1565b6102556004803603604081101561040e57600080fd5b506001600160a01b03813581169160200135166110e7565b6102856111ad565b6102556004803603602081101561044457600080fd5b50356001600160a01b03166111b3565b6102556004803603606081101561046a57600080fd5b506001600160a01b0381358116916020810135909116906040013515156112f3565b610285600480360360208110156104a257600080fd5b50356001600160a01b0316611496565b610255600480360360208110156104c857600080fd5b50356001600160a01b03166114b7565b6102856116f0565b6102856116f5565b61050e600480360360208110156104fe57600080fd5b50356001600160a01b03166116fb565b604080519115158252519081900360200190f35b6102556004803603602081101561053857600080fd5b50356001600160a01b0316611710565b610285611829565b6102856004803603602081101561056657600080fd5b50356001600160a01b031661183a565b6102556004803603602081101561058c57600080fd5b50356001600160a01b0316611858565b61021c611a9d565b610255600480360360408110156105ba57600080fd5b506001600160a01b0381351690602001351515611aac565b610255600480360360208110156105e857600080fd5b5035611bea565b60006105fc600683611cf3565b92915050565b3361060e600682611cff565b610654576040805162461bcd60e51b81526020600482015260126024820152714d616e616765723a204f6e6c792042616e6b60701b604482015290519081900360640190fd5b50336000908152600a60205260409020805460ff191660ff92909216919091179055565b3332148061069557503360009081526005602052604090205460ff165b6106d4576040805162461bcd60e51b815260206004820152601e6024820152600080516020612465833981519152604482015290519081900360640190fd5b806106e0600682611cff565b610726576040805162461bcd60e51b81526020600482015260126024820152714d616e616765723a204f6e6c792042616e6b60701b604482015290519081900360640190fd5b6001600160a01b038216600090815260086020526040812061074790611d14565b905060005b818110156107df576001600160a01b038416600081815260086020526040902063eb0dff669061077c9084611cf3565b6040518263ffffffff1660e01b815260040180826001600160a01b03168152602001915050600060405180830381600087803b1580156107bb57600080fd5b505af11580156107cf573d6000803e3d6000fd5b50506001909201915061074c9050565b506000836001600160a01b03166359356c5c6040518163ffffffff1660e01b815260040160206040518083038186803b15801561081b57600080fd5b505afa15801561082f573d6000803e3d6000fd5b505050506040513d602081101561084557600080fd5b5051905060005b828110156108fa57600083838161085f57fe5b6001600160a01b03881660008181526008602052604090209290910492509063b9b8c2469061088e9085611cf3565b836040518363ffffffff1660e01b815260040180836001600160a01b0316815260200182815260200192505050600060405180830381600087803b1580156108d557600080fd5b505af11580156108e9573d6000803e3d6000fd5b50506001909301925061084c915050565b506040516001600160a01b038516907fa61bd16ebda9d1c8ec2a61970b39e6640e55ed8433a22765a1b5217b72c4a81290600090a250505050565b60025481565b610943610bf4565b6001600160a01b0316336001600160a01b031614610996576040805162461bcd60e51b815260206004820152601b6024820152600080516020612424833981519152604482015290519081900360640190fd5b606481116109eb576040805162461bcd60e51b815260206004820152601960248201527f52656769737472793a20496e76616c6964204275796261636b00000000000000604482015290519081900360640190fd5b6101f48110610a41576040805162461bcd60e51b815260206004820152601a60248201527f52656769737472793a204275796261636b20546f6f2048696768000000000000604482015290519081900360640190fd5b600255565b6000610a50610fa1565b6001600160a01b031663481c6a756040518163ffffffff1660e01b815260040160206040518083038186803b158015610a8857600080fd5b505afa158015610a9c573d6000803e3d6000fd5b505050506040513d6020811015610ab257600080fd5b5051905090565b6001600160a01b038316600090815260086020526040902083903390610adf9082611cff565b610b29576040805162461bcd60e51b81526020600482015260166024820152754d616e616765723a204f6e6c7920537472617465677960501b604482015290519081900360640190fd5b6000610b4c6103e8610b4660025487611d1f90919063ffffffff16565b90611d78565b90506000610b6b6103e8610b4660035488611d1f90919063ffffffff16565b90506000610b8382610b7d8886611ddf565b90611ddf565b9050610b90328884611e3c565b50610b9c338883611e3c565b506040805182815260208101859052808201849052905133916001600160a01b038b16917faa199a16983a8f166eb461939bd1b0bd1881e692fa38dbb98bd89c856052cd849181900360600190a35050505050505050565b6000610bfe610fa1565b6001600160a01b0316635aa6e6756040518163ffffffff1660e01b815260040160206040518083038186803b158015610a8857600080fd5b33321480610c5357503360009081526005602052604090205460ff165b610c92576040805162461bcd60e51b815260206004820152601e6024820152600080516020612465833981519152604482015290519081900360640190fd5b80610c9e600682611cff565b610ce4576040805162461bcd60e51b81526020600482015260126024820152714d616e616765723a204f6e6c792042616e6b60701b604482015290519081900360640190fd5b6001600160a01b0382166000908152600860205260408120610d0590611d14565b905060008111610d55576040805162461bcd60e51b81526020600482015260166024820152754d616e616765723a204e6f205374726174656769657360501b604482015290519081900360640190fd5b6000836001600160a01b03166359356c5c6040518163ffffffff1660e01b815260040160206040518083038186803b158015610d9057600080fd5b505afa158015610da4573d6000803e3d6000fd5b505050506040513d6020811015610dba57600080fd5b5051905060005b82811015610e6f576000838381610dd457fe5b6001600160a01b03881660008181526008602052604090209290910492509063b9b8c24690610e039085611cf3565b836040518363ffffffff1660e01b815260040180836001600160a01b0316815260200182815260200192505050600060405180830381600087803b158015610e4a57600080fd5b505af1158015610e5e573d6000803e3d6000fd5b505060019093019250610dc1915050565b506040516001600160a01b038516907fb888c73f8596c5d056c9c67c35e5ed784af064b3112cd851b2b860f9c2b6ccc990600090a250505050565b610eb2610bf4565b6001600160a01b0316336001600160a01b031614610f05576040805162461bcd60e51b815260206004820152601b6024820152600080516020612424833981519152604482015290519081900360640190fd5b610f17836001600160a01b0316611ced565b610f60576040805162461bcd60e51b815260206004820152601560248201527413585b9859d95c8e88139bdd0810dbdb9d1c9858dd605a1b604482015290519081900360640190fd5b6001600160a01b0391821660009081526004602090815260408083209385168352929052208054919092166001600160a01b0319909116179055565b606481565b6000546001600160a01b031690565b60046020908152600092835260408084209091529082529020546001600160a01b031681565b610fde610bf4565b6001600160a01b0316336001600160a01b031614611031576040805162461bcd60e51b815260206004820152601b6024820152600080516020612424833981519152604482015290519081900360640190fd5b611043826001600160a01b0316611ced565b61108d576040805162461bcd60e51b8152602060048201526016602482015275149959da5cdd1c9e4e88139bdd0810dbdb9d1c9858dd60521b604482015290519081900360640190fd5b6001600160a01b03919091166000908152600560205260409020805460ff1916911515919091179055565b6001600160a01b03821660009081526008602052604081206110da9083611cf3565b9392505050565b6101f481565b6110ef610bf4565b6001600160a01b0316336001600160a01b031614611142576040805162461bcd60e51b815260206004820152601b6024820152600080516020612424833981519152604482015290519081900360640190fd5b816001600160a01b031663eb0dff66826040518263ffffffff1660e01b815260040180826001600160a01b03168152602001915050600060405180830381600087803b15801561119157600080fd5b505af11580156111a5573d6000803e3d6000fd5b505050505050565b60035481565b6111bb610bf4565b6001600160a01b0316336001600160a01b03161461120e576040805162461bcd60e51b815260206004820152601b6024820152600080516020612424833981519152604482015290519081900360640190fd5b61121781611ced565b611268576040805162461bcd60e51b815260206004820152601c60248201527f537562736372696265723a20496e76616c696420526567697374727900000000604482015290519081900360640190fd5b600080546001600160a01b0319166001600160a01b03831617905561128b610bf4565b6001600160a01b0316336001600160a01b0316146112f0576040805162461bcd60e51b815260206004820152601a60248201527f537562736372696265723a2042616420476f7665726e616e6365000000000000604482015290519081900360640190fd5b50565b6112fb610bf4565b6001600160a01b0316336001600160a01b03161461134e576040805162461bcd60e51b815260206004820152601b6024820152600080516020612424833981519152604482015290519081900360640190fd5b611360826001600160a01b0316611ced565b80156113795750611379836001600160a01b0316611ced565b6113c2576040805162461bcd60e51b815260206004820152601560248201527413585b9859d95c8e88139bdd0810dbdb9d1c9858dd605a1b604482015290519081900360640190fd5b6001600160a01b03831660009081526008602052604081206113e49084611cff565b90508115158115151415611434576040805162461bcd60e51b81526020600482015260126024820152714d616e616765723a204e6f204368616e676560701b604482015290519081900360640190fd5b801561146c5761144484846110e7565b6001600160a01b03841660009081526008602052604090206114669084611f08565b50611490565b6001600160a01b038416600090815260086020526040902061148e9084611f1d565b505b50505050565b6001600160a01b03811660009081526008602052604081206105fc90611d14565b333214806114d457503360009081526005602052604090205460ff165b611513576040805162461bcd60e51b815260206004820152601e6024820152600080516020612465833981519152604482015290519081900360640190fd5b8061151f600682611cff565b611565576040805162461bcd60e51b81526020600482015260126024820152714d616e616765723a204f6e6c792042616e6b60701b604482015290519081900360640190fd5b6001600160a01b038216600090815260086020526040812061158690611d14565b9050600081116115d6576040805162461bcd60e51b81526020600482015260166024820152754d616e616765723a204e6f205374726174656769657360501b604482015290519081900360640190fd5b6001600160a01b03831660009081526009602052604081205460ff168281101561160257809150611607565b600091505b6001600160a01b038516600090815260086020526040812061162c9060ff8516611cf3565b9050856001600160a01b031663753842db826040518263ffffffff1660e01b815260040180826001600160a01b03168152602001915050600060405180830381600087803b15801561167d57600080fd5b505af1158015611691573d6000803e3d6000fd5b505050506001600160a01b03868116600081815260096020526040808220805460ff19166001890160ff1617905551928416927fffdb70e99f7f3262c2641a400deab1ad02aa7c2a59e0be6a116e71867296b20b9190a3505050505050565b600081565b6103e881565b60056020526000908152604090205460ff1681565b611718610bf4565b6001600160a01b0316336001600160a01b03161461176b576040805162461bcd60e51b815260206004820152601b6024820152600080516020612424833981519152604482015290519081900360640190fd5b6001600160a01b038116600090815260086020526040812061178c90611d14565b905060005b81811015611824576001600160a01b038316600081815260086020526040902063eb0dff66906117c19084611cf3565b6040518263ffffffff1660e01b815260040180826001600160a01b03168152602001915050600060405180830381600087803b15801561180057600080fd5b505af1158015611814573d6000803e3d6000fd5b5050600190920191506117919050565b505050565b60006118356006611d14565b905090565b6001600160a01b03166000908152600a602052604090205460ff1690565b3332148061187557503360009081526005602052604090205460ff165b6118b4576040805162461bcd60e51b815260206004820152601e6024820152600080516020612465833981519152604482015290519081900360640190fd5b6001546001600160a01b0382811660008181526004602081815260408084209686168085529682528084205481516370a0823160e01b8152309481019490945290519516949293926370a08231926024808201939291829003018186803b15801561191e57600080fd5b505afa158015611932573d6000803e3d6000fd5b505050506040513d602081101561194857600080fd5b50519050611957828583611e3c565b5060408051636f70e66f60e01b81523060048201526001600160a01b038681166024830152858116604483015260648201849052600160848301529151600092851691636f70e66f9160a480830192602092919082900301818787803b1580156119c057600080fd5b505af11580156119d4573d6000803e3d6000fd5b505050506040513d60208110156119ea57600080fd5b505160408051630852cd8d60e31b81526004810183905290519192506001600160a01b038616916342966c689160248082019260009290919082900301818387803b158015611a3857600080fd5b505af1158015611a4c573d6000803e3d6000fd5b5050604080518581526020810185905281516001600160a01b038a1694507f2dcc2439519c7d06fca9f8ae01e07f4f3c6ca21b5cdf8eff42cb75cf34d223c993509081900390910190a25050505050565b6001546001600160a01b031681565b611ab4610bf4565b6001600160a01b0316336001600160a01b031614611b07576040805162461bcd60e51b815260206004820152601b6024820152600080516020612424833981519152604482015290519081900360640190fd5b611b19826001600160a01b0316611ced565b611b62576040805162461bcd60e51b815260206004820152601560248201527413585b9859d95c8e88139bdd0810dbdb9d1c9858dd605a1b604482015290519081900360640190fd5b6000611b6f600684611cff565b90508115158115151415611bbf576040805162461bcd60e51b81526020600482015260126024820152714d616e616765723a204e6f204368616e676560701b604482015290519081900360640190fd5b8015611bdf57611bce83611710565b611bd9600684611f08565b50611824565b611490600684611f1d565b611bf2610bf4565b6001600160a01b0316336001600160a01b031614611c45576040805162461bcd60e51b815260206004820152601b6024820152600080516020612424833981519152604482015290519081900360640190fd5b60008111611c93576040805162461bcd60e51b8152602060048201526016602482015275149959da5cdd1c9e4e88125b9d985b1a59081359db5d60521b604482015290519081900360640190fd5b60648110611ce8576040805162461bcd60e51b815260206004820152601760248201527f52656769737472793a204d676d7420546f6f2048696768000000000000000000604482015290519081900360640190fd5b600355565b3b151590565b60006110da8383611f32565b60006110da836001600160a01b038416611f96565b60006105fc82611fae565b600082611d2e575060006105fc565b82820282848281611d3b57fe5b04146110da5760405162461bcd60e51b81526004018080602001828103825260218152602001806124446021913960400191505060405180910390fd5b6000808211611dce576040805162461bcd60e51b815260206004820152601a60248201527f536166654d6174683a206469766973696f6e206279207a65726f000000000000604482015290519081900360640190fd5b818381611dd757fe5b049392505050565b600082821115611e36576040805162461bcd60e51b815260206004820152601e60248201527f536166654d6174683a207375627472616374696f6e206f766572666c6f770000604482015290519081900360640190fd5b50900390565b600081611e4b575060006110da565b6000836001600160a01b03166370a08231306040518263ffffffff1660e01b815260040180826001600160a01b0316815260200191505060206040518083038186803b158015611e9a57600080fd5b505afa158015611eae573d6000803e3d6000fd5b505050506040513d6020811015611ec457600080fd5b5051905082811015611eeb57611ee46001600160a01b0385168683611fb2565b90506110da565b611eff6001600160a01b0385168685611fb2565b50909392505050565b60006110da836001600160a01b038416612004565b60006110da836001600160a01b0384166120ca565b81546000908210611f745760405162461bcd60e51b81526004018080602001828103825260228152602001806123dc6022913960400191505060405180910390fd5b826000018281548110611f8357fe5b9060005260206000200154905092915050565b60009081526001919091016020526040902054151590565b5490565b604080516001600160a01b038416602482015260448082018490528251808303909101815260649091019091526020810180516001600160e01b031663a9059cbb60e01b179052611824908490612114565b600081815260018301602052604081205480156120c0578354600019808301919081019060009087908390811061203757fe5b906000526020600020015490508087600001848154811061205457fe5b60009182526020808320909101929092558281526001898101909252604090209084019055865487908061208457fe5b600190038181906000526020600020016000905590558660010160008781526020019081526020016000206000905560019450505050506105fc565b60009150506105fc565b60006120d68383611f96565b61210c575081546001818101845560008481526020808220909301849055845484825282860190935260409020919091556105fc565b5060006105fc565b6000612169826040518060400160405280602081526020017f5361666545524332303a206c6f772d6c6576656c2063616c6c206661696c6564815250856001600160a01b03166121c59092919063ffffffff16565b8051909150156118245780806020019051602081101561218857600080fd5b50516118245760405162461bcd60e51b815260040180806020018281038252602a815260200180612485602a913960400191505060405180910390fd5b60606121d484846000856121dc565b949350505050565b60608247101561221d5760405162461bcd60e51b81526004018080602001828103825260268152602001806123fe6026913960400191505060405180910390fd5b61222685611ced565b612277576040805162461bcd60e51b815260206004820152601d60248201527f416464726573733a2063616c6c20746f206e6f6e2d636f6e7472616374000000604482015290519081900360640190fd5b600080866001600160a01b031685876040518082805190602001908083835b602083106122b55780518252601f199092019160209182019101612296565b6001836020036101000a03801982511681845116808217855250505050505090500191505060006040518083038185875af1925050503d8060008114612317576040519150601f19603f3d011682016040523d82523d6000602084013e61231c565b606091505b509150915061232c828286612337565b979650505050505050565b606083156123465750816110da565b8251156123565782518084602001fd5b8160405162461bcd60e51b81526004018080602001828103825283818151815260200191508051906020019080838360005b838110156123a0578181015183820152602001612388565b50505050905090810190601f1680156123cd5780820380516001836020036101000a031916815260200191505b509250505060405180910390fdfe456e756d657261626c655365743a20696e646578206f7574206f6620626f756e6473416464726573733a20696e73756666696369656e742062616c616e636520666f722063616c6c537562736372696265723a204f6e6c7920476f7665726e616e63650000000000536166654d6174683a206d756c7469706c69636174696f6e206f766572666c6f774d616e616765723a204f6e6c7920454f41206f722057686974656c69737400005361666545524332303a204552433230206f7065726174696f6e20646964206e6f742073756363656564a26469706673582212203b5ec7de7465a07e3811299d238238bea1dcb682a4840212550b5fbb30f689dc64736f6c63430007060033",
  "devdoc": {
    "details": "This contract is used as the main control point for executing strategies",
    "kind": "dev",
    "methods": {
      "accrueRevenue(address,address,uint256)": {
        "details": "Only callable by approved Strategies",
        "params": {
          "amount": "The total amount of profit received from liquidation",
          "bank": "The address of the Bank which uses the Strategy"
        }
      },
      "buyback(address)": {
        "details": "Burns all proceeds",
        "params": {
          "from": "The address of the token to liquidate for Oh! Tokens"
        }
      },
      "constructor": {
        "details": "Sets initial buyback and management fee parameters",
        "params": {
          "registry_": "The address of the registry",
          "token_": "The address of the Oh! Token"
        }
      },
      "exit(address,address)": {
        "params": {
          "bank": "The bank that will be used to exit the strategy",
          "strategy": "The strategy to be exited"
        }
      },
      "exitAll(address)": {
        "params": {
          "bank": "The bank that will be used to exit the strategy"
        }
      },
      "finance(address)": {
        "details": "Only allow this function to be called on approved Banks",
        "params": {
          "bank": "The address of the Bank to finance"
        }
      },
      "financeAll(address)": {
        "details": "Deposit queue not needed here as all Strategies are equally invested inOnly allow this function to be called on approved Banks",
        "params": {
          "bank": "The address of the Bank to finance"
        }
      },
      "governance()": {
        "returns": {
          "_0": "The current Governance address"
        }
      },
      "manager()": {
        "returns": {
          "_0": "The current Manager address"
        }
      },
      "rebalance(address)": {
        "params": {
          "bank": "The bank to rebalance"
        }
      },
      "registry()": {
        "returns": {
          "_0": "The current Registry address"
        }
      },
      "setBank(address,bool)": {
        "details": "Only Governance can call this function",
        "params": {
          "_approved": "the approval status of the bank",
          "_bank": "the bank to be approved/unapproved"
        }
      },
      "setBuybackFee(uint256)": {
        "details": "Only Governance; base 1000, 1% = 10",
        "params": {
          "_buybackFee": "The new buyback fee"
        }
      },
      "setLiquidator(address,address,address)": {
        "details": "Only Governance can call this function",
        "params": {
          "_from": "the token we have to liquidate",
          "_liquidator": "the liquidator contract",
          "_to": "the token we want to receive"
        }
      },
      "setManagementFee(uint256)": {
        "details": "Only Governance; base 1000, 1% = 10",
        "params": {
          "_managementFee": "The new management fee"
        }
      },
      "setRegistry(address)": {
        "details": "Requires sender to be Governance of the new Registry to avoid bricking.Ideally should not be used",
        "params": {
          "registry_": "The new registry"
        }
      },
      "setStrategy(address,address,bool)": {
        "details": "Only Governance can call this function",
        "params": {
          "_approved": "the approval status of the Strategy",
          "_bank": "the bank which uses the strategy",
          "_strategy": "the strategy to be approved/unapproved"
        }
      },
      "setWhitelisted(address,bool)": {
        "details": "Only Governance can call this function",
        "params": {
          "_contract": "the strategy contract",
          "_whitelisted": "the whitelisted status of the strategy"
        }
      },
      "setWithdrawIndex(uint256)": {
        "params": {
          "i": "The "
        }
      },
      "strategies(address,uint256)": {
        "params": {
          "bank": "The address of the Bank that contains the Strategy",
          "i": "The Bank queue index to check"
        }
      },
      "totalStrategies(address)": {
        "params": {
          "bank": "The Bank we are checking"
        },
        "returns": {
          "_0": "Amount of active strategies"
        }
      },
      "withdrawIndex(address)": {
        "params": {
          "bank": "The Bank to check the next Strategy for"
        },
        "returns": {
          "_0": "The index of the Strategy"
        }
      }
    },
    "stateVariables": {
      "_banks": {
        "details": "The set of Banks approved for investing"
      },
      "_depositQueue": {
        "details": "The mapping of Banks to next Strategy index it will deposit to"
      },
      "_strategies": {
        "details": "The mapping of Banks to active Strategies"
      },
      "_withdrawQueue": {
        "details": "The mapping of Banks to next Strategy index it will withdraw from"
      }
    },
    "title": "Oh! Finance Manager",
    "version": 1
  },
  "userdoc": {
    "events": {
      "AccrueRevenue(address,address,uint256,uint256,uint256)": {
        "notice": "Emitted when a Bank realizes profit via liquidation "
      },
      "Buyback(address,uint256,uint256)": {
        "notice": "Emitted when a buyback is performed with an amount of from tokens"
      },
      "Finance(address,address)": {
        "notice": "Emitted when a Bank's capital is invested in a single Strategy "
      },
      "FinanceAll(address)": {
        "notice": "Emitted when a Bank's capital is invested in all Strategies"
      },
      "Rebalance(address)": {
        "notice": "Emitted when a Bank's capital is rebalanced"
      }
    },
    "kind": "user",
    "methods": {
      "FEE_DENOMINATOR()": {
        "notice": "Denominator for calculating protocol fees"
      },
      "MAX_BUYBACK_FEE()": {
        "notice": "Maximum buyback fee, 50%"
      },
      "MAX_MANAGEMENT_FEE()": {
        "notice": "Maximum management fee, 10%"
      },
      "MIN_BUYBACK_FEE()": {
        "notice": "Minimum buyback fee, 10%"
      },
      "MIN_MANAGEMENT_FEE()": {
        "notice": "Minimum management fee, 0%"
      },
      "accrueRevenue(address,address,uint256)": {
        "notice": "Accrue revenue from a Strategy"
      },
      "banks(uint256)": {
        "notice": "Get the Bank"
      },
      "buyback(address)": {
        "notice": "Perform a token buyback with accrued revenue"
      },
      "buybackFee()": {
        "notice": "The amount of profits reserved for protocol buybacks, base 1000"
      },
      "constructor": {
        "notice": "Deploy the Manager with the Registry reference"
      },
      "exit(address,address)": {
        "notice": "Exit a given strategy for a given bank"
      },
      "exitAll(address)": {
        "notice": "Exit from all strategies for a given bank"
      },
      "finance(address)": {
        "notice": "Finance the next Strategy in the Bank queue with all available underlying"
      },
      "financeAll(address)": {
        "notice": "Evenly finance underlying to all strategies"
      },
      "governance()": {
        "notice": "Get the Governance address"
      },
      "liquidators(address,address)": {
        "notice": "The mapping of `from` token to `to` token to liquidator contract"
      },
      "managementFee()": {
        "notice": "The amount of profits reserved for fund management, base 1000"
      },
      "manager()": {
        "notice": "Get the Manager address"
      },
      "rebalance(address)": {
        "notice": "Rebalance Bank exposure by withdrawing all, then evenly distributing underlying to all strategies"
      },
      "registry()": {
        "notice": "Get the Registry address"
      },
      "setBank(address,bool)": {
        "notice": "Adds or removes a Bank for investment"
      },
      "setBuybackFee(uint256)": {
        "notice": "Sets the protocol buyback percentage (Profit Share)"
      },
      "setLiquidator(address,address,address)": {
        "notice": "Sets the Liquidator contract for a given token"
      },
      "setManagementFee(uint256)": {
        "notice": "Sets the protocol management fee percentage"
      },
      "setRegistry(address)": {
        "notice": "Set the Registry for the contract. Only callable by Governance."
      },
      "setStrategy(address,address,bool)": {
        "notice": "Adds or removes a Strategy for a given Bank"
      },
      "setWhitelisted(address,bool)": {
        "notice": "Whitelists strategy for Bank use/management"
      },
      "setWithdrawIndex(uint256)": {
        "notice": "Set the withdrawal index"
      },
      "strategies(address,uint256)": {
        "notice": "Get the Strategy at a given index for a given Bank"
      },
      "token()": {
        "notice": "The address of the Oh! Finance Token"
      },
      "totalStrategies(address)": {
        "notice": "Get total number of strategies for a given bank"
      },
      "whitelisted(address)": {
        "notice": "The mapping of contracts that are whitelisted for Bank use/management"
      },
      "withdrawIndex(address)": {
        "notice": "Get the index of the Strategy to withdraw from for a given Bank"
      }
    },
    "notice": "The Manager contains references to all active banks, strategies, and liquidation contracts.",
    "version": 1
  },
  "storageLayout": {
    "storage": [
      {
        "astId": 14458,
        "contract": "contracts/manager/OhManager.sol:OhManager",
        "label": "_registry",
        "offset": 0,
        "slot": "0",
        "type": "t_address"
      },
      {
        "astId": 12157,
        "contract": "contracts/manager/OhManager.sol:OhManager",
        "label": "token",
        "offset": 0,
        "slot": "1",
        "type": "t_address"
      },
      {
        "astId": 12161,
        "contract": "contracts/manager/OhManager.sol:OhManager",
        "label": "buybackFee",
        "offset": 0,
        "slot": "2",
        "type": "t_uint256"
      },
      {
        "astId": 12165,
        "contract": "contracts/manager/OhManager.sol:OhManager",
        "label": "managementFee",
        "offset": 0,
        "slot": "3",
        "type": "t_uint256"
      },
      {
        "astId": 12173,
        "contract": "contracts/manager/OhManager.sol:OhManager",
        "label": "liquidators",
        "offset": 0,
        "slot": "4",
        "type": "t_mapping(t_address,t_mapping(t_address,t_address))"
      },
      {
        "astId": 12179,
        "contract": "contracts/manager/OhManager.sol:OhManager",
        "label": "whitelisted",
        "offset": 0,
        "slot": "5",
        "type": "t_mapping(t_address,t_bool)"
      },
      {
        "astId": 12182,
        "contract": "contracts/manager/OhManager.sol:OhManager",
        "label": "_banks",
        "offset": 0,
        "slot": "6",
        "type": "t_struct(AddressSet)4311_storage"
      },
      {
        "astId": 12187,
        "contract": "contracts/manager/OhManager.sol:OhManager",
        "label": "_strategies",
        "offset": 0,
        "slot": "8",
        "type": "t_mapping(t_address,t_struct(AddressSet)4311_storage)"
      },
      {
        "astId": 12192,
        "contract": "contracts/manager/OhManager.sol:OhManager",
        "label": "_depositQueue",
        "offset": 0,
        "slot": "9",
        "type": "t_mapping(t_address,t_uint8)"
      },
      {
        "astId": 12197,
        "contract": "contracts/manager/OhManager.sol:OhManager",
        "label": "_withdrawQueue",
        "offset": 0,
        "slot": "10",
        "type": "t_mapping(t_address,t_uint8)"
      }
    ],
    "types": {
      "t_address": {
        "encoding": "inplace",
        "label": "address",
        "numberOfBytes": "20"
      },
      "t_array(t_bytes32)dyn_storage": {
        "base": "t_bytes32",
        "encoding": "dynamic_array",
        "label": "bytes32[]",
        "numberOfBytes": "32"
      },
      "t_bool": {
        "encoding": "inplace",
        "label": "bool",
        "numberOfBytes": "1"
      },
      "t_bytes32": {
        "encoding": "inplace",
        "label": "bytes32",
        "numberOfBytes": "32"
      },
      "t_mapping(t_address,t_address)": {
        "encoding": "mapping",
        "key": "t_address",
        "label": "mapping(address => address)",
        "numberOfBytes": "32",
        "value": "t_address"
      },
      "t_mapping(t_address,t_bool)": {
        "encoding": "mapping",
        "key": "t_address",
        "label": "mapping(address => bool)",
        "numberOfBytes": "32",
        "value": "t_bool"
      },
      "t_mapping(t_address,t_mapping(t_address,t_address))": {
        "encoding": "mapping",
        "key": "t_address",
        "label": "mapping(address => mapping(address => address))",
        "numberOfBytes": "32",
        "value": "t_mapping(t_address,t_address)"
      },
      "t_mapping(t_address,t_struct(AddressSet)4311_storage)": {
        "encoding": "mapping",
        "key": "t_address",
        "label": "mapping(address => struct EnumerableSet.AddressSet)",
        "numberOfBytes": "32",
        "value": "t_struct(AddressSet)4311_storage"
      },
      "t_mapping(t_address,t_uint8)": {
        "encoding": "mapping",
        "key": "t_address",
        "label": "mapping(address => uint8)",
        "numberOfBytes": "32",
        "value": "t_uint8"
      },
      "t_mapping(t_bytes32,t_uint256)": {
        "encoding": "mapping",
        "key": "t_bytes32",
        "label": "mapping(bytes32 => uint256)",
        "numberOfBytes": "32",
        "value": "t_uint256"
      },
      "t_struct(AddressSet)4311_storage": {
        "encoding": "inplace",
        "label": "struct EnumerableSet.AddressSet",
        "members": [
          {
            "astId": 4310,
            "contract": "contracts/manager/OhManager.sol:OhManager",
            "label": "_inner",
            "offset": 0,
            "slot": "0",
            "type": "t_struct(Set)4046_storage"
          }
        ],
        "numberOfBytes": "64"
      },
      "t_struct(Set)4046_storage": {
        "encoding": "inplace",
        "label": "struct EnumerableSet.Set",
        "members": [
          {
            "astId": 4041,
            "contract": "contracts/manager/OhManager.sol:OhManager",
            "label": "_values",
            "offset": 0,
            "slot": "0",
            "type": "t_array(t_bytes32)dyn_storage"
          },
          {
            "astId": 4045,
            "contract": "contracts/manager/OhManager.sol:OhManager",
            "label": "_indexes",
            "offset": 0,
            "slot": "1",
            "type": "t_mapping(t_bytes32,t_uint256)"
          }
        ],
        "numberOfBytes": "64"
      },
      "t_uint256": {
        "encoding": "inplace",
        "label": "uint256",
        "numberOfBytes": "32"
      },
      "t_uint8": {
        "encoding": "inplace",
        "label": "uint8",
        "numberOfBytes": "1"
      }
    }
  }
}