{
  "address": "0x16ba8Efe847EBDFef99d399902ec29397D403C30",
  "abi": [
    {
      "inputs": [
        {
          "internalType": "address",
          "name": "registry_",
          "type": "address"
        }
      ],
      "stateMutability": "nonpayable",
      "type": "constructor"
    },
    {
      "anonymous": false,
      "inputs": [
        {
          "indexed": true,
          "internalType": "address",
          "name": "owner",
          "type": "address"
        },
        {
          "indexed": true,
          "internalType": "address",
          "name": "spender",
          "type": "address"
        },
        {
          "indexed": false,
          "internalType": "uint256",
          "name": "value",
          "type": "uint256"
        }
      ],
      "name": "Approval",
      "type": "event"
    },
    {
      "anonymous": false,
      "inputs": [
        {
          "indexed": true,
          "internalType": "address",
          "name": "delegator",
          "type": "address"
        },
        {
          "indexed": true,
          "internalType": "address",
          "name": "fromDelegate",
          "type": "address"
        },
        {
          "indexed": true,
          "internalType": "address",
          "name": "toDelegate",
          "type": "address"
        }
      ],
      "name": "DelegateChanged",
      "type": "event"
    },
    {
      "anonymous": false,
      "inputs": [
        {
          "indexed": true,
          "internalType": "address",
          "name": "delegate",
          "type": "address"
        },
        {
          "indexed": false,
          "internalType": "uint256",
          "name": "previousBalance",
          "type": "uint256"
        },
        {
          "indexed": false,
          "internalType": "uint256",
          "name": "newBalance",
          "type": "uint256"
        }
      ],
      "name": "DelegateVotesChanged",
      "type": "event"
    },
    {
      "anonymous": false,
      "inputs": [
        {
          "indexed": true,
          "internalType": "address",
          "name": "from",
          "type": "address"
        },
        {
          "indexed": true,
          "internalType": "address",
          "name": "to",
          "type": "address"
        },
        {
          "indexed": false,
          "internalType": "uint256",
          "name": "value",
          "type": "uint256"
        }
      ],
      "name": "Transfer",
      "type": "event"
    },
    {
      "inputs": [],
      "name": "DELEGATION_TYPEHASH",
      "outputs": [
        {
          "internalType": "bytes32",
          "name": "",
          "type": "bytes32"
        }
      ],
      "stateMutability": "view",
      "type": "function"
    },
    {
      "inputs": [],
      "name": "DOMAIN_SEPARATOR",
      "outputs": [
        {
          "internalType": "bytes32",
          "name": "",
          "type": "bytes32"
        }
      ],
      "stateMutability": "view",
      "type": "function"
    },
    {
      "inputs": [],
      "name": "DOMAIN_TYPEHASH",
      "outputs": [
        {
          "internalType": "bytes32",
          "name": "",
          "type": "bytes32"
        }
      ],
      "stateMutability": "view",
      "type": "function"
    },
    {
      "inputs": [],
      "name": "MAX_SUPPLY",
      "outputs": [
        {
          "internalType": "uint256",
          "name": "",
          "type": "uint256"
        }
      ],
      "stateMutability": "view",
      "type": "function"
    },
    {
      "inputs": [],
      "name": "PERMIT_TYPEHASH",
      "outputs": [
        {
          "internalType": "bytes32",
          "name": "",
          "type": "bytes32"
        }
      ],
      "stateMutability": "view",
      "type": "function"
    },
    {
      "inputs": [
        {
          "internalType": "address",
          "name": "owner",
          "type": "address"
        },
        {
          "internalType": "address",
          "name": "spender",
          "type": "address"
        }
      ],
      "name": "allowance",
      "outputs": [
        {
          "internalType": "uint256",
          "name": "",
          "type": "uint256"
        }
      ],
      "stateMutability": "view",
      "type": "function"
    },
    {
      "inputs": [
        {
          "internalType": "address",
          "name": "spender",
          "type": "address"
        },
        {
          "internalType": "uint256",
          "name": "amount",
          "type": "uint256"
        }
      ],
      "name": "approve",
      "outputs": [
        {
          "internalType": "bool",
          "name": "",
          "type": "bool"
        }
      ],
      "stateMutability": "nonpayable",
      "type": "function"
    },
    {
      "inputs": [
        {
          "internalType": "address",
          "name": "account",
          "type": "address"
        }
      ],
      "name": "balanceOf",
      "outputs": [
        {
          "internalType": "uint256",
          "name": "",
          "type": "uint256"
        }
      ],
      "stateMutability": "view",
      "type": "function"
    },
    {
      "inputs": [
        {
          "internalType": "uint256",
          "name": "amount",
          "type": "uint256"
        }
      ],
      "name": "burn",
      "outputs": [],
      "stateMutability": "nonpayable",
      "type": "function"
    },
    {
      "inputs": [
        {
          "internalType": "address",
          "name": "",
          "type": "address"
        },
        {
          "internalType": "uint32",
          "name": "",
          "type": "uint32"
        }
      ],
      "name": "checkpoints",
      "outputs": [
        {
          "internalType": "uint32",
          "name": "fromBlock",
          "type": "uint32"
        },
        {
          "internalType": "uint256",
          "name": "votes",
          "type": "uint256"
        }
      ],
      "stateMutability": "view",
      "type": "function"
    },
    {
      "inputs": [],
      "name": "decimals",
      "outputs": [
        {
          "internalType": "uint8",
          "name": "",
          "type": "uint8"
        }
      ],
      "stateMutability": "view",
      "type": "function"
    },
    {
      "inputs": [
        {
          "internalType": "address",
          "name": "spender",
          "type": "address"
        },
        {
          "internalType": "uint256",
          "name": "subtractedValue",
          "type": "uint256"
        }
      ],
      "name": "decreaseAllowance",
      "outputs": [
        {
          "internalType": "bool",
          "name": "",
          "type": "bool"
        }
      ],
      "stateMutability": "nonpayable",
      "type": "function"
    },
    {
      "inputs": [
        {
          "internalType": "address",
          "name": "delegatee",
          "type": "address"
        }
      ],
      "name": "delegate",
      "outputs": [],
      "stateMutability": "nonpayable",
      "type": "function"
    },
    {
      "inputs": [
        {
          "internalType": "address",
          "name": "delegator",
          "type": "address"
        },
        {
          "internalType": "address",
          "name": "delegatee",
          "type": "address"
        },
        {
          "internalType": "uint256",
          "name": "deadline",
          "type": "uint256"
        },
        {
          "internalType": "uint8",
          "name": "v",
          "type": "uint8"
        },
        {
          "internalType": "bytes32",
          "name": "r",
          "type": "bytes32"
        },
        {
          "internalType": "bytes32",
          "name": "s",
          "type": "bytes32"
        }
      ],
      "name": "delegateBySig",
      "outputs": [],
      "stateMutability": "nonpayable",
      "type": "function"
    },
    {
      "inputs": [
        {
          "internalType": "address",
          "name": "",
          "type": "address"
        }
      ],
      "name": "delegates",
      "outputs": [
        {
          "internalType": "address",
          "name": "",
          "type": "address"
        }
      ],
      "stateMutability": "view",
      "type": "function"
    },
    {
      "inputs": [
        {
          "internalType": "address",
          "name": "account",
          "type": "address"
        }
      ],
      "name": "getCurrentVotes",
      "outputs": [
        {
          "internalType": "uint256",
          "name": "",
          "type": "uint256"
        }
      ],
      "stateMutability": "view",
      "type": "function"
    },
    {
      "inputs": [
        {
          "internalType": "address",
          "name": "account",
          "type": "address"
        },
        {
          "internalType": "uint256",
          "name": "blockNumber",
          "type": "uint256"
        }
      ],
      "name": "getPriorVotes",
      "outputs": [
        {
          "internalType": "uint256",
          "name": "",
          "type": "uint256"
        }
      ],
      "stateMutability": "view",
      "type": "function"
    },
    {
      "inputs": [],
      "name": "governance",
      "outputs": [
        {
          "internalType": "address",
          "name": "",
          "type": "address"
        }
      ],
      "stateMutability": "view",
      "type": "function"
    },
    {
      "inputs": [
        {
          "internalType": "address",
          "name": "spender",
          "type": "address"
        },
        {
          "internalType": "uint256",
          "name": "addedValue",
          "type": "uint256"
        }
      ],
      "name": "increaseAllowance",
      "outputs": [
        {
          "internalType": "bool",
          "name": "",
          "type": "bool"
        }
      ],
      "stateMutability": "nonpayable",
      "type": "function"
    },
    {
      "inputs": [],
      "name": "manager",
      "outputs": [
        {
          "internalType": "address",
          "name": "",
          "type": "address"
        }
      ],
      "stateMutability": "view",
      "type": "function"
    },
    {
      "inputs": [
        {
          "internalType": "address",
          "name": "recipient",
          "type": "address"
        },
        {
          "internalType": "uint256",
          "name": "amount",
          "type": "uint256"
        }
      ],
      "name": "mint",
      "outputs": [],
      "stateMutability": "nonpayable",
      "type": "function"
    },
    {
      "inputs": [],
      "name": "name",
      "outputs": [
        {
          "internalType": "string",
          "name": "",
          "type": "string"
        }
      ],
      "stateMutability": "view",
      "type": "function"
    },
    {
      "inputs": [
        {
          "internalType": "address",
          "name": "",
          "type": "address"
        }
      ],
      "name": "nonces",
      "outputs": [
        {
          "internalType": "uint256",
          "name": "",
          "type": "uint256"
        }
      ],
      "stateMutability": "view",
      "type": "function"
    },
    {
      "inputs": [
        {
          "internalType": "address",
          "name": "",
          "type": "address"
        }
      ],
      "name": "numCheckpoints",
      "outputs": [
        {
          "internalType": "uint32",
          "name": "",
          "type": "uint32"
        }
      ],
      "stateMutability": "view",
      "type": "function"
    },
    {
      "inputs": [
        {
          "internalType": "address",
          "name": "owner",
          "type": "address"
        },
        {
          "internalType": "address",
          "name": "spender",
          "type": "address"
        },
        {
          "internalType": "uint256",
          "name": "value",
          "type": "uint256"
        },
        {
          "internalType": "uint256",
          "name": "deadline",
          "type": "uint256"
        },
        {
          "internalType": "uint8",
          "name": "v",
          "type": "uint8"
        },
        {
          "internalType": "bytes32",
          "name": "r",
          "type": "bytes32"
        },
        {
          "internalType": "bytes32",
          "name": "s",
          "type": "bytes32"
        }
      ],
      "name": "permit",
      "outputs": [],
      "stateMutability": "nonpayable",
      "type": "function"
    },
    {
      "inputs": [],
      "name": "registry",
      "outputs": [
        {
          "internalType": "address",
          "name": "",
          "type": "address"
        }
      ],
      "stateMutability": "view",
      "type": "function"
    },
    {
      "inputs": [
        {
          "internalType": "address",
          "name": "registry_",
          "type": "address"
        }
      ],
      "name": "setRegistry",
      "outputs": [],
      "stateMutability": "nonpayable",
      "type": "function"
    },
    {
      "inputs": [],
      "name": "symbol",
      "outputs": [
        {
          "internalType": "string",
          "name": "",
          "type": "string"
        }
      ],
      "stateMutability": "view",
      "type": "function"
    },
    {
      "inputs": [],
      "name": "totalSupply",
      "outputs": [
        {
          "internalType": "uint256",
          "name": "",
          "type": "uint256"
        }
      ],
      "stateMutability": "view",
      "type": "function"
    },
    {
      "inputs": [
        {
          "internalType": "address",
          "name": "recipient",
          "type": "address"
        },
        {
          "internalType": "uint256",
          "name": "amount",
          "type": "uint256"
        }
      ],
      "name": "transfer",
      "outputs": [
        {
          "internalType": "bool",
          "name": "",
          "type": "bool"
        }
      ],
      "stateMutability": "nonpayable",
      "type": "function"
    },
    {
      "inputs": [
        {
          "internalType": "address",
          "name": "sender",
          "type": "address"
        },
        {
          "internalType": "address",
          "name": "recipient",
          "type": "address"
        },
        {
          "internalType": "uint256",
          "name": "amount",
          "type": "uint256"
        }
      ],
      "name": "transferFrom",
      "outputs": [
        {
          "internalType": "bool",
          "name": "",
          "type": "bool"
        }
      ],
      "stateMutability": "nonpayable",
      "type": "function"
    }
  ],
  "transactionHash": "0x7f71bca4672ffd73b11203fd49973526de3ed60432b260fd8b923dc87b38961b",
  "args": [
    "0xb60406a48693c06142085f860Cee9C14D72B217E"
  ],
  "solcInputHash": "c029f0aa65e9de4be775e65679cfa07f",
  "bytecode": "0x60a06040523480156200001157600080fd5b50604051620028c0380380620028c0833981810160405260208110156200003757600080fd5b5051604080518082018252600b81526a4f68212046696e616e636560a81b60208281019182528351808501909452600284526109e960f31b9084015281518493916200008791600391906200081e565b5080516200009d9060049060208401906200081e565b505060058054601260ff1990911617905550620000c6816200022c602090811b620014a917901c565b62000118576040805162461bcd60e51b815260206004820152601c60248201527f537562736372696265723a20496e76616c696420526567697374727900000000604482015290519081900360640190fd5b600580546001600160a01b0390921661010002610100600160a81b03199092169190911790557f8b73c3c69bb8fe3d512ecc4cf759cc79239f7b179b0ffacaa9a75d522b39400f6200016962000232565b80516020918201206040805180820190915260018152603160f81b9201919091527fc89efdaa54c0f20c7adf612882df0950f5a951637e0307cdcb4c672f298b8bc6620001b5620002cc565b3060405160200180868152602001858152602001848152602001838152602001826001600160a01b0316815260200195505050505050604051602081830303815290604052805190602001206080818152505062000225336a52b7d2dcc80cd2e4000000620002d060201b60201c565b50620008ca565b3b151590565b60038054604080516020601f6002600019610100600188161502019095169490940493840181900481028201810190925282815260609390929091830182828015620002c25780601f106200029657610100808354040283529160200191620002c2565b820191906000526020600020905b815481529060010190602001808311620002a457829003601f168201915b5050505050905090565b4690565b6a52b7d2dcc80cd2e4000000620002ff82620002eb62000395565b6200039b60201b620014af1790919060201c565b111562000353576040805162461bcd60e51b815260206004820152601a60248201527f546f6b656e3a204d617820537570706c79204578636565646564000000000000604482015290519081900360640190fd5b6200036a8282620003fd60201b620015091760201c565b6001600160a01b03808316600090815260066020526040812054620003919216836200050c565b5050565b60025490565b600082820183811015620003f6576040805162461bcd60e51b815260206004820152601b60248201527f536166654d6174683a206164646974696f6e206f766572666c6f770000000000604482015290519081900360640190fd5b9392505050565b6001600160a01b03821662000459576040805162461bcd60e51b815260206004820152601f60248201527f45524332303a206d696e7420746f20746865207a65726f206164647265737300604482015290519081900360640190fd5b620004676000838362000679565b62000483816002546200039b60201b620014af1790919060201c565b6002556001600160a01b03821660009081526020818152604090912054620004b6918390620014af6200039b821b17901c565b6001600160a01b0383166000818152602081815260408083209490945583518581529351929391927fddf252ad1be2c89b69c2b068fc378daa952ba7f163c4a11628f55a4df523b3ef9281900390910190a35050565b816001600160a01b0316836001600160a01b0316141580156200052f5750600081115b1562000679576001600160a01b03831615620005d7576001600160a01b03831660009081526009602052604081205463ffffffff16908162000573576000620005a5565b6001600160a01b038516600090815260076020908152604080832063ffffffff60001987011684529091529020600101545b90506000620005c384836200067e60201b620015f91790919060201c565b9050620005d386848484620006dc565b5050505b6001600160a01b0382161562000679576001600160a01b03821660009081526009602052604081205463ffffffff1690816200061557600062000647565b6001600160a01b038416600090815260076020908152604080832063ffffffff60001987011684529091529020600101545b905060006200066584836200039b60201b620014af1790919060201c565b90506200067585848484620006dc565b5050505b505050565b600082821115620006d6576040805162461bcd60e51b815260206004820152601e60248201527f536166654d6174683a207375627472616374696f6e206f766572666c6f770000604482015290519081900360640190fd5b50900390565b4363ffffffff8416158015906200072457506001600160a01b038516600090815260076020908152604080832063ffffffff6000198901811685529252909120548282169116145b1562000763576001600160a01b038516600090815260076020908152604080832063ffffffff60001989011684529091529020600101829055620007d4565b60408051808201825263ffffffff808416825260208083018681526001600160a01b038a166000818152600784528681208b8616825284528681209551865490861663ffffffff19918216178755925160019687015590815260099092529390208054928801909116919092161790555b604080518481526020810184905281516001600160a01b038816927fdec2bacdd2f05b59de34da9b523dff8be42e5e38e818c82fdb0bae774387a724928290030190a25050505050565b828054600181600116156101000203166002900490600052602060002090601f016020900481019282620008565760008555620008a1565b82601f106200087157805160ff1916838001178555620008a1565b82800160010185558215620008a1579182015b82811115620008a157825182559160200191906001019062000884565b50620008af929150620008b3565b5090565b5b80821115620008af5760008155600101620008b4565b608051611fd1620008ef60003980610856528061100052806112e25250611fd16000f3fe608060405234801561001057600080fd5b50600436106101e55760003560e01c80635c19a95c1161010f578063a9059cbb116100a2578063d505accf11610071578063d505accf146105da578063dd62ed3e1461062b578063e7a324dc14610659578063f1127ed814610661576101e5565b8063a9059cbb14610517578063a91ee0dc14610543578063b20d7fa914610569578063b4b5ea57146105b4576101e5565b80637b103999116100de5780637b103999146104b55780637ecebe00146104bd57806395d89b41146104e3578063a457c2d7146104eb576101e5565b80635c19a95c146103fe5780636fcfff451461042457806370a0823114610463578063782d6fe114610489576101e5565b806332cb6b0c1161018757806342966c681161015657806342966c681461038f578063481c6a75146103ac578063587cde1e146103d05780635aa6e675146103f6576101e5565b806332cb6b0c146103255780633644e5151461032d578063395093511461033557806340c10f1914610361576101e5565b806320606b70116101c357806320606b70146102c157806323b872dd146102c957806330adf81f146102ff578063313ce56714610307576101e5565b806306fdde03146101ea578063095ea7b31461026757806318160ddd146102a7575b600080fd5b6101f26106b3565b6040805160208082528351818301528351919283929083019185019080838360005b8381101561022c578181015183820152602001610214565b50505050905090810190601f1680156102595780820380516001836020036101000a031916815260200191505b509250505060405180910390f35b6102936004803603604081101561027d57600080fd5b506001600160a01b038135169060200135610749565b604080519115158252519081900360200190f35b6102af610767565b60408051918252519081900360200190f35b6102af61076d565b610293600480360360608110156102df57600080fd5b506001600160a01b03813581169160208101359091169060400135610791565b6102af610818565b61030f61083c565b6040805160ff9092168252519081900360200190f35b6102af610845565b6102af610854565b6102936004803603604081101561034b57600080fd5b506001600160a01b038135169060200135610878565b61038d6004803603604081101561037757600080fd5b506001600160a01b0381351690602001356108c6565b005b61038d600480360360208110156103a557600080fd5b5035610941565b6103b461094e565b604080516001600160a01b039092168252519081900360200190f35b6103b4600480360360208110156103e657600080fd5b50356001600160a01b03166109c1565b6103b46109dc565b61038d6004803603602081101561041457600080fd5b50356001600160a01b0316610a1e565b61044a6004803603602081101561043a57600080fd5b50356001600160a01b0316610a28565b6040805163ffffffff9092168252519081900360200190f35b6102af6004803603602081101561047957600080fd5b50356001600160a01b0316610a40565b6102af6004803603604081101561049f57600080fd5b506001600160a01b038135169060200135610a5b565b6103b4610c74565b6102af600480360360208110156104d357600080fd5b50356001600160a01b0316610c88565b6101f2610c9a565b6102936004803603604081101561050157600080fd5b506001600160a01b038135169060200135610cfb565b6102936004803603604081101561052d57600080fd5b506001600160a01b038135169060200135610d63565b61038d6004803603602081101561055957600080fd5b50356001600160a01b0316610d77565b61038d600480360360c081101561057f57600080fd5b506001600160a01b03813581169160208101359091169060408101359060ff6060820135169060808101359060a00135610ecb565b6102af600480360360208110156105ca57600080fd5b50356001600160a01b0316611149565b61038d600480360360e08110156105f057600080fd5b506001600160a01b03813581169160208101359091169060408101359060608101359060ff6080820135169060a08101359060c001356111ad565b6102af6004803603604081101561064157600080fd5b506001600160a01b038135811691602001351661142d565b6102af611458565b6106936004803603604081101561067757600080fd5b5080356001600160a01b0316906020013563ffffffff1661147c565b6040805163ffffffff909316835260208301919091528051918290030190f35b60038054604080516020601f600260001961010060018816150201909516949094049384018190048102820181019092528281526060939092909183018282801561073f5780601f106107145761010080835404028352916020019161073f565b820191906000526020600020905b81548152906001019060200180831161072257829003601f168201915b5050505050905090565b600061075d610756611656565b848461165a565b5060015b92915050565b60025490565b7f8b73c3c69bb8fe3d512ecc4cf759cc79239f7b179b0ffacaa9a75d522b39400f81565b600061079e848484611746565b61080e846107aa611656565b61080985604051806060016040528060288152602001611ee5602891396001600160a01b038a166000908152600160205260408120906107e8611656565b6001600160a01b031681526020810191909152604001600020549190611788565b61165a565b5060019392505050565b7f6e71edae12b1b97f4d1f60370fef10105fa2faae0126114a169c64845d6126c981565b60055460ff1690565b6a52b7d2dcc80cd2e400000081565b7f000000000000000000000000000000000000000000000000000000000000000081565b600061075d610885611656565b846108098560016000610896611656565b6001600160a01b03908116825260208083019390935260409182016000908120918c1681529252902054906114af565b6108ce6109dc565b6001600160a01b0316336001600160a01b031614610933576040805162461bcd60e51b815260206004820152601b60248201527f537562736372696265723a204f6e6c7920476f7665726e616e63650000000000604482015290519081900360640190fd5b61093d828261181f565b5050565b61094b33826118bf565b50565b6000610958610c74565b6001600160a01b031663481c6a756040518163ffffffff1660e01b815260040160206040518083038186803b15801561099057600080fd5b505afa1580156109a4573d6000803e3d6000fd5b505050506040513d60208110156109ba57600080fd5b5051905090565b6006602052600090815260409020546001600160a01b031681565b60006109e6610c74565b6001600160a01b0316635aa6e6756040518163ffffffff1660e01b815260040160206040518083038186803b15801561099057600080fd5b61094b33826118ef565b60096020526000908152604090205463ffffffff1681565b6001600160a01b031660009081526020819052604090205490565b6000438210610ab1576040805162461bcd60e51b815260206004820152601c60248201527f4765745072696f72566f7465733a20496e76616c696420426c6f636b00000000604482015290519081900360640190fd5b6001600160a01b03831660009081526009602052604090205463ffffffff1680610adf576000915050610761565b6001600160a01b038416600090815260076020908152604080832063ffffffff600019860181168552925290912054168310610b4e576001600160a01b03841660009081526007602090815260408083206000199490940163ffffffff16835292905220600101549050610761565b6001600160a01b038416600090815260076020908152604080832083805290915290205463ffffffff16831015610b89576000915050610761565b600060001982015b8163ffffffff168163ffffffff161115610c3d576000600263ffffffff848403166001600160a01b038916600090815260076020908152604080832094909304860363ffffffff8181168452948252918390208351808501909452805490941680845260019094015490830152925090871415610c18576020015194506107619350505050565b805163ffffffff16871115610c2f57819350610c36565b6001820392505b5050610b91565b506001600160a01b038516600090815260076020908152604080832063ffffffff9094168352929052206001015491505092915050565b60055461010090046001600160a01b031690565b60086020526000908152604090205481565b60048054604080516020601f600260001961010060018816150201909516949094049384018190048102820181019092528281526060939092909183018282801561073f5780601f106107145761010080835404028352916020019161073f565b600061075d610d08611656565b8461080985604051806060016040528060258152602001611f776025913960016000610d32611656565b6001600160a01b03908116825260208083019390935260409182016000908120918d16815292529020549190611788565b600061075d610d70611656565b8484611746565b610d7f6109dc565b6001600160a01b0316336001600160a01b031614610de4576040805162461bcd60e51b815260206004820152601b60248201527f537562736372696265723a204f6e6c7920476f7665726e616e63650000000000604482015290519081900360640190fd5b610ded816114a9565b610e3e576040805162461bcd60e51b815260206004820152601c60248201527f537562736372696265723a20496e76616c696420526567697374727900000000604482015290519081900360640190fd5b60058054610100600160a81b0319166101006001600160a01b03841602179055610e666109dc565b6001600160a01b0316336001600160a01b03161461094b576040805162461bcd60e51b815260206004820152601a60248201527f537562736372696265723a2042616420476f7665726e616e6365000000000000604482015290519081900360640190fd5b83421115610f20576040805162461bcd60e51b815260206004820152601c60248201527f44656c65676174653a20496e76616c69642045787069726174696f6e00000000604482015290519081900360640190fd5b6001600160a01b038616610f7b576040805162461bcd60e51b815260206004820152601b60248201527f44656c65676174653a20496e76616c69642044656c656761746f720000000000604482015290519081900360640190fd5b6001600160a01b0380871660008181526008602090815260408083205481517f6e12c49d4bb994bfc9ac87645136942a7d50ac01f816689809847f85f4c8f2d48185015280830195909552948a1660608501526080840185905260a08085018a90528151808603909101815260c08501825280519083012061190160f01b60e08601527f000000000000000000000000000000000000000000000000000000000000000060e286015261010280860191909152815180860390910181526101228501808352815191840191909120939052610142840180825283905260ff881661016285015261018284018790526101a284018690525191926001926101c28083019392601f198301929081900390910190855afa1580156110a1573d6000803e3d6000fd5b505050602060405103516001600160a01b0316886001600160a01b031614611110576040805162461bcd60e51b815260206004820152601b60248201527f44656c65676174653a20496e76616c6964205369676e61747572650000000000604482015290519081900360640190fd5b61111b8260016114af565b6001600160a01b03891660009081526008602052604090205561113e88886118ef565b50505b505050505050565b6001600160a01b03811660009081526009602052604081205463ffffffff16806111745760006111a6565b6001600160a01b038316600090815260076020908152604080832063ffffffff60001986011684529091529020600101545b9392505050565b83421115611202576040805162461bcd60e51b815260206004820152601860248201527f5065726d69743a20496e76616c696420446561646c696e650000000000000000604482015290519081900360640190fd5b6001600160a01b038716611255576040805162461bcd60e51b81526020600482015260156024820152742832b936b4ba1d1024b73b30b634b21027bbb732b960591b604482015290519081900360640190fd5b6001600160a01b0380881660008181526008602090815260408083205481517f6e71edae12b1b97f4d1f60370fef10105fa2faae0126114a169c64845d6126c98185015280830195909552948b166060850152608084018a905260a0840185905260c08085018a90528151808603909101815260e08501825280519083012061190160f01b6101008601527f000000000000000000000000000000000000000000000000000000000000000061010286015261012280860191909152815180860390910181526101428501808352815191840191909120939052610162840180825283905260ff88166101828501526101a284018790526101c284018690525191926001926101e28083019392601f198301929081900390910190855afa158015611384573d6000803e3d6000fd5b505050602060405103516001600160a01b0316896001600160a01b0316146113f3576040805162461bcd60e51b815260206004820152601960248201527f5065726d69743a20496e76616c6964205369676e617475726500000000000000604482015290519081900360640190fd5b6113fe8260016114af565b6001600160a01b038a1660009081526008602052604090205561142289898961165a565b505050505050505050565b6001600160a01b03918216600090815260016020908152604080832093909416825291909152205490565b7f6e12c49d4bb994bfc9ac87645136942a7d50ac01f816689809847f85f4c8f2d481565b60076020908152600092835260408084209091529082529020805460019091015463ffffffff9091169082565b3b151590565b6000828201838110156111a6576040805162461bcd60e51b815260206004820152601b60248201527f536166654d6174683a206164646974696f6e206f766572666c6f770000000000604482015290519081900360640190fd5b6001600160a01b038216611564576040805162461bcd60e51b815260206004820152601f60248201527f45524332303a206d696e7420746f20746865207a65726f206164647265737300604482015290519081900360640190fd5b61157060008383611783565b60025461157d90826114af565b6002556001600160a01b0382166000908152602081905260409020546115a390826114af565b6001600160a01b0383166000818152602081815260408083209490945583518581529351929391927fddf252ad1be2c89b69c2b068fc378daa952ba7f163c4a11628f55a4df523b3ef9281900390910190a35050565b600082821115611650576040805162461bcd60e51b815260206004820152601e60248201527f536166654d6174683a207375627472616374696f6e206f766572666c6f770000604482015290519081900360640190fd5b50900390565b3390565b6001600160a01b03831661169f5760405162461bcd60e51b8152600401808060200182810382526024815260200180611f536024913960400191505060405180910390fd5b6001600160a01b0382166116e45760405162461bcd60e51b8152600401808060200182810382526022815260200180611e9d6022913960400191505060405180910390fd5b6001600160a01b03808416600081815260016020908152604080832094871680845294825291829020859055815185815291517f8c5be1e5ebec7d5bd14f71427d1e84f3dd0314c0f7b2291e5b200ac8c7c3b9259281900390910190a3505050565b611751838383611984565b6001600160a01b0380841660009081526006602052604080822054858416835291205461178392918216911683611adf565b505050565b600081848411156118175760405162461bcd60e51b81526004018080602001828103825283818151815260200191508051906020019080838360005b838110156117dc5781810151838201526020016117c4565b50505050905090810190601f1680156118095780820380516001836020036101000a031916815260200191505b509250505060405180910390fd5b505050900390565b6a52b7d2dcc80cd2e400000061183d82611837610767565b906114af565b1115611890576040805162461bcd60e51b815260206004820152601a60248201527f546f6b656e3a204d617820537570706c79204578636565646564000000000000604482015290519081900360640190fd5b61189a8282611509565b6001600160a01b0380831660009081526006602052604081205461093d921683611adf565b6118c98282611c1c565b6001600160a01b0380831660009081526006602052604081205461093d92169083611adf565b6001600160a01b038083166000908152600660205260408120549091169061191684610a40565b6001600160a01b0385811660008181526006602052604080822080546001600160a01b031916898616908117909155905194955093928616927f3134e8a2e6d97e929a7e54011ea5485d7d196dd5f0ba4d4ef95803e8e3fc257f9190a461197e828483611adf565b50505050565b6001600160a01b0383166119c95760405162461bcd60e51b8152600401808060200182810382526025815260200180611f2e6025913960400191505060405180910390fd5b6001600160a01b038216611a0e5760405162461bcd60e51b8152600401808060200182810382526023815260200180611e586023913960400191505060405180910390fd5b611a19838383611783565b611a5681604051806060016040528060268152602001611ebf602691396001600160a01b0386166000908152602081905260409020549190611788565b6001600160a01b038085166000908152602081905260408082209390935590841681522054611a8590826114af565b6001600160a01b038084166000818152602081815260409182902094909455805185815290519193928716927fddf252ad1be2c89b69c2b068fc378daa952ba7f163c4a11628f55a4df523b3ef92918290030190a3505050565b816001600160a01b0316836001600160a01b031614158015611b015750600081115b15611783576001600160a01b03831615611b93576001600160a01b03831660009081526009602052604081205463ffffffff169081611b41576000611b73565b6001600160a01b038516600090815260076020908152604080832063ffffffff60001987011684529091529020600101545b90506000611b8182856115f9565b9050611b8f86848484611d18565b5050505b6001600160a01b03821615611783576001600160a01b03821660009081526009602052604081205463ffffffff169081611bce576000611c00565b6001600160a01b038416600090815260076020908152604080832063ffffffff60001987011684529091529020600101545b90506000611c0e82856114af565b905061114185848484611d18565b6001600160a01b038216611c615760405162461bcd60e51b8152600401808060200182810382526021815260200180611f0d6021913960400191505060405180910390fd5b611c6d82600083611783565b611caa81604051806060016040528060228152602001611e7b602291396001600160a01b0385166000908152602081905260409020549190611788565b6001600160a01b038316600090815260208190526040902055600254611cd090826115f9565b6002556040805182815290516000916001600160a01b038516917fddf252ad1be2c89b69c2b068fc378daa952ba7f163c4a11628f55a4df523b3ef9181900360200190a35050565b4363ffffffff841615801590611d5f57506001600160a01b038516600090815260076020908152604080832063ffffffff6000198901811685529252909120548282169116145b15611d9c576001600160a01b038516600090815260076020908152604080832063ffffffff60001989011684529091529020600101829055611e0d565b60408051808201825263ffffffff808416825260208083018681526001600160a01b038a166000818152600784528681208b8616825284528681209551865490861663ffffffff19918216178755925160019687015590815260099092529390208054928801909116919092161790555b604080518481526020810184905281516001600160a01b038816927fdec2bacdd2f05b59de34da9b523dff8be42e5e38e818c82fdb0bae774387a724928290030190a2505050505056fe45524332303a207472616e7366657220746f20746865207a65726f206164647265737345524332303a206275726e20616d6f756e7420657863656564732062616c616e636545524332303a20617070726f766520746f20746865207a65726f206164647265737345524332303a207472616e7366657220616d6f756e7420657863656564732062616c616e636545524332303a207472616e7366657220616d6f756e74206578636565647320616c6c6f77616e636545524332303a206275726e2066726f6d20746865207a65726f206164647265737345524332303a207472616e736665722066726f6d20746865207a65726f206164647265737345524332303a20617070726f76652066726f6d20746865207a65726f206164647265737345524332303a2064656372656173656420616c6c6f77616e63652062656c6f77207a65726fa26469706673582212207343e56e86a2d5786813165ed392104515276b107e9084bb1314798d592bd02c64736f6c63430007060033",
  "devdoc": {
    "kind": "dev",
    "methods": {
      "allowance(address,address)": {
        "details": "See {IERC20-allowance}."
      },
      "approve(address,uint256)": {
        "details": "See {IERC20-approve}. Requirements: - `spender` cannot be the zero address."
      },
      "balanceOf(address)": {
        "details": "See {IERC20-balanceOf}."
      },
      "burn(uint256)": {
        "params": {
          "amount": "The amount of tokens to burn"
        }
      },
      "decimals()": {
        "details": "Returns the number of decimals used to get its user representation. For example, if `decimals` equals `2`, a balance of `505` tokens should be displayed to a user as `5,05` (`505 / 10 ** 2`). Tokens usually opt for a value of 18, imitating the relationship between Ether and Wei. This is the value {ERC20} uses, unless {_setupDecimals} is called. NOTE: This information is only used for _display_ purposes: it in no way affects any of the arithmetic of the contract, including {IERC20-balanceOf} and {IERC20-transfer}."
      },
      "decreaseAllowance(address,uint256)": {
        "details": "Atomically decreases the allowance granted to `spender` by the caller. This is an alternative to {approve} that can be used as a mitigation for problems described in {IERC20-approve}. Emits an {Approval} event indicating the updated allowance. Requirements: - `spender` cannot be the zero address. - `spender` must have allowance for the caller of at least `subtractedValue`."
      },
      "delegate(address)": {
        "params": {
          "delegatee": "The address to delegate votes to"
        }
      },
      "delegateBySig(address,address,uint256,uint8,bytes32,bytes32)": {
        "params": {
          "deadline": "The time at which to expire the signature",
          "delegatee": "The address to delegate votes to",
          "delegator": "the address holding tokens",
          "r": "Half of the ECDSA signature pair",
          "s": "Half of the ECDSA signature pair",
          "v": "The recovery byte of the signature"
        }
      },
      "getCurrentVotes(address)": {
        "params": {
          "account": "The address to get votes balance"
        },
        "returns": {
          "_0": "The number of current votes for `account`"
        }
      },
      "getPriorVotes(address,uint256)": {
        "details": "Block number must be a finalized block or else this function will revert to prevent misinformation.",
        "params": {
          "account": "The address of the account to check",
          "blockNumber": "The block number to get the vote balance at"
        },
        "returns": {
          "_0": "The number of votes the account had as of the given block"
        }
      },
      "governance()": {
        "returns": {
          "_0": "The current Governance address"
        }
      },
      "increaseAllowance(address,uint256)": {
        "details": "Atomically increases the allowance granted to `spender` by the caller. This is an alternative to {approve} that can be used as a mitigation for problems described in {IERC20-approve}. Emits an {Approval} event indicating the updated allowance. Requirements: - `spender` cannot be the zero address."
      },
      "manager()": {
        "returns": {
          "_0": "The current Manager address"
        }
      },
      "mint(address,uint256)": {
        "details": "callable by governance only",
        "params": {
          "amount": "The amount of tokens to mint",
          "recipient": "The receiver of the tokens"
        }
      },
      "name()": {
        "details": "Returns the name of the token."
      },
      "permit(address,address,uint256,uint256,uint8,bytes32,bytes32)": {
        "details": "implements the permit function per EIP-712",
        "params": {
          "deadline": "the deadline timestamp, type(uint256).max for max deadline",
          "owner": "the owner of the funds",
          "r": "half of the ECDSA signature pair",
          "s": "half of the ECDSA signature pair",
          "spender": "the spender",
          "v": "the recovery byte of the signature",
          "value": "the amount"
        }
      },
      "registry()": {
        "returns": {
          "_0": "The current Registry address"
        }
      },
      "setRegistry(address)": {
        "details": "Requires sender to be Governance of the new Registry to avoid bricking.Ideally should not be used",
        "params": {
          "registry_": "The new registry"
        }
      },
      "symbol()": {
        "details": "Returns the symbol of the token, usually a shorter version of the name."
      },
      "totalSupply()": {
        "details": "See {IERC20-totalSupply}."
      },
      "transfer(address,uint256)": {
        "details": "See {IERC20-transfer}. Requirements: - `recipient` cannot be the zero address. - the caller must have a balance of at least `amount`."
      },
      "transferFrom(address,address,uint256)": {
        "details": "See {IERC20-transferFrom}. Emits an {Approval} event indicating the updated allowance. This is not required by the EIP. See the note at the beginning of {ERC20}. Requirements: - `sender` and `recipient` cannot be the zero address. - `sender` must have a balance of at least `amount`. - the caller must have allowance for ``sender``'s tokens of at least `amount`."
      }
    },
    "title": "Oh! Finance Token",
    "version": 1
  },
  "userdoc": {
    "events": {
      "DelegateChanged(address,address,address)": {
        "notice": "An event thats emitted when an account changes its delegate"
      },
      "DelegateVotesChanged(address,uint256,uint256)": {
        "notice": "An event thats emitted when a delegate account's vote balance changes"
      }
    },
    "kind": "user",
    "methods": {
      "DELEGATION_TYPEHASH()": {
        "notice": "The EIP-712 typehash for the delegation struct used by the contract"
      },
      "DOMAIN_SEPARATOR()": {
        "notice": "The EIP-712 typehash used for replay protection, set at deployment"
      },
      "DOMAIN_TYPEHASH()": {
        "notice": "The EIP-712 typehash for the contract's domain"
      },
      "MAX_SUPPLY()": {
        "notice": "The max token supply, minted on initialization. 100m tokens."
      },
      "PERMIT_TYPEHASH()": {
        "notice": "the EIP-712 typehash for approving token transfers via signature"
      },
      "burn(uint256)": {
        "notice": "Destroys an amount of tokens from the caller"
      },
      "checkpoints(address,uint32)": {
        "notice": "A record of votes checkpoints for each account, by index"
      },
      "delegate(address)": {
        "notice": "Delegate votes from `msg.sender` to `delegatee`"
      },
      "delegateBySig(address,address,uint256,uint8,bytes32,bytes32)": {
        "notice": "Delegates votes from `delegator` to `delegatee`"
      },
      "delegates(address)": {
        "notice": "Delegate votes from `msg.sender` to `delegatee`"
      },
      "getCurrentVotes(address)": {
        "notice": "Gets the current votes balance for `account`"
      },
      "getPriorVotes(address,uint256)": {
        "notice": "Determine the prior number of votes for an account as of a block number"
      },
      "governance()": {
        "notice": "Get the Governance address"
      },
      "manager()": {
        "notice": "Get the Manager address"
      },
      "mint(address,uint256)": {
        "notice": "Creates an amount of tokens on a recipient address"
      },
      "nonces(address)": {
        "notice": "A record of states for signing / validating signatures"
      },
      "numCheckpoints(address)": {
        "notice": "The number of checkpoints for each account"
      },
      "registry()": {
        "notice": "Get the Registry address"
      },
      "setRegistry(address)": {
        "notice": "Set the Registry for the contract. Only callable by Governance."
      }
    },
    "notice": "Protocol Governance and Profit-Share ERC-20 Token",
    "version": 1
  },
  "storageLayout": {
    "storage": [
      {
        "astId": 2939,
        "contract": "contracts/OhToken.sol:OhToken",
        "label": "_balances",
        "offset": 0,
        "slot": "0",
        "type": "t_mapping(t_address,t_uint256)"
      },
      {
        "astId": 2945,
        "contract": "contracts/OhToken.sol:OhToken",
        "label": "_allowances",
        "offset": 0,
        "slot": "1",
        "type": "t_mapping(t_address,t_mapping(t_address,t_uint256))"
      },
      {
        "astId": 2947,
        "contract": "contracts/OhToken.sol:OhToken",
        "label": "_totalSupply",
        "offset": 0,
        "slot": "2",
        "type": "t_uint256"
      },
      {
        "astId": 2949,
        "contract": "contracts/OhToken.sol:OhToken",
        "label": "_name",
        "offset": 0,
        "slot": "3",
        "type": "t_string_storage"
      },
      {
        "astId": 2951,
        "contract": "contracts/OhToken.sol:OhToken",
        "label": "_symbol",
        "offset": 0,
        "slot": "4",
        "type": "t_string_storage"
      },
      {
        "astId": 2953,
        "contract": "contracts/OhToken.sol:OhToken",
        "label": "_decimals",
        "offset": 0,
        "slot": "5",
        "type": "t_uint8"
      },
      {
        "astId": 13145,
        "contract": "contracts/OhToken.sol:OhToken",
        "label": "_registry",
        "offset": 1,
        "slot": "5",
        "type": "t_address"
      },
      {
        "astId": 6927,
        "contract": "contracts/OhToken.sol:OhToken",
        "label": "delegates",
        "offset": 0,
        "slot": "6",
        "type": "t_mapping(t_address,t_address)"
      },
      {
        "astId": 6934,
        "contract": "contracts/OhToken.sol:OhToken",
        "label": "checkpoints",
        "offset": 0,
        "slot": "7",
        "type": "t_mapping(t_address,t_mapping(t_uint32,t_struct(Checkpoint)6897_storage))"
      },
      {
        "astId": 6939,
        "contract": "contracts/OhToken.sol:OhToken",
        "label": "nonces",
        "offset": 0,
        "slot": "8",
        "type": "t_mapping(t_address,t_uint256)"
      },
      {
        "astId": 6944,
        "contract": "contracts/OhToken.sol:OhToken",
        "label": "numCheckpoints",
        "offset": 0,
        "slot": "9",
        "type": "t_mapping(t_address,t_uint32)"
      }
    ],
    "types": {
      "t_address": {
        "encoding": "inplace",
        "label": "address",
        "numberOfBytes": "20"
      },
      "t_mapping(t_address,t_address)": {
        "encoding": "mapping",
        "key": "t_address",
        "label": "mapping(address => address)",
        "numberOfBytes": "32",
        "value": "t_address"
      },
      "t_mapping(t_address,t_mapping(t_address,t_uint256))": {
        "encoding": "mapping",
        "key": "t_address",
        "label": "mapping(address => mapping(address => uint256))",
        "numberOfBytes": "32",
        "value": "t_mapping(t_address,t_uint256)"
      },
      "t_mapping(t_address,t_mapping(t_uint32,t_struct(Checkpoint)6897_storage))": {
        "encoding": "mapping",
        "key": "t_address",
        "label": "mapping(address => mapping(uint32 => struct OhToken.Checkpoint))",
        "numberOfBytes": "32",
        "value": "t_mapping(t_uint32,t_struct(Checkpoint)6897_storage)"
      },
      "t_mapping(t_address,t_uint256)": {
        "encoding": "mapping",
        "key": "t_address",
        "label": "mapping(address => uint256)",
        "numberOfBytes": "32",
        "value": "t_uint256"
      },
      "t_mapping(t_address,t_uint32)": {
        "encoding": "mapping",
        "key": "t_address",
        "label": "mapping(address => uint32)",
        "numberOfBytes": "32",
        "value": "t_uint32"
      },
      "t_mapping(t_uint32,t_struct(Checkpoint)6897_storage)": {
        "encoding": "mapping",
        "key": "t_uint32",
        "label": "mapping(uint32 => struct OhToken.Checkpoint)",
        "numberOfBytes": "32",
        "value": "t_struct(Checkpoint)6897_storage"
      },
      "t_string_storage": {
        "encoding": "bytes",
        "label": "string",
        "numberOfBytes": "32"
      },
      "t_struct(Checkpoint)6897_storage": {
        "encoding": "inplace",
        "label": "struct OhToken.Checkpoint",
        "members": [
          {
            "astId": 6894,
            "contract": "contracts/OhToken.sol:OhToken",
            "label": "fromBlock",
            "offset": 0,
            "slot": "0",
            "type": "t_uint32"
          },
          {
            "astId": 6896,
            "contract": "contracts/OhToken.sol:OhToken",
            "label": "votes",
            "offset": 0,
            "slot": "1",
            "type": "t_uint256"
          }
        ],
        "numberOfBytes": "64"
      },
      "t_uint256": {
        "encoding": "inplace",
        "label": "uint256",
        "numberOfBytes": "32"
      },
      "t_uint32": {
        "encoding": "inplace",
        "label": "uint32",
        "numberOfBytes": "4"
      },
      "t_uint8": {
        "encoding": "inplace",
        "label": "uint8",
        "numberOfBytes": "1"
      }
    }
  }
}