{
  "address": "0xa528639AAe2E765351dcd1e0C2dD299D6279dB52",
  "abi": [
    {
      "inputs": [
        {
          "internalType": "address",
          "name": "_logic",
          "type": "address"
        },
        {
          "internalType": "address",
          "name": "admin_",
          "type": "address"
        },
        {
          "internalType": "bytes",
          "name": "_data",
          "type": "bytes"
        }
      ],
      "stateMutability": "nonpayable",
      "type": "constructor"
    },
    {
      "anonymous": false,
      "inputs": [
        {
          "indexed": false,
          "internalType": "address",
          "name": "previousAdmin",
          "type": "address"
        },
        {
          "indexed": false,
          "internalType": "address",
          "name": "newAdmin",
          "type": "address"
        }
      ],
      "name": "AdminChanged",
      "type": "event"
    },
    {
      "anonymous": false,
      "inputs": [
        {
          "indexed": true,
          "internalType": "address",
          "name": "implementation",
          "type": "address"
        }
      ],
      "name": "Upgraded",
      "type": "event"
    },
    {
      "stateMutability": "payable",
      "type": "fallback"
    },
    {
      "inputs": [],
      "name": "admin",
      "outputs": [
        {
          "internalType": "address",
          "name": "admin_",
          "type": "address"
        }
      ],
      "stateMutability": "nonpayable",
      "type": "function"
    },
    {
      "inputs": [
        {
          "internalType": "address",
          "name": "newAdmin",
          "type": "address"
        }
      ],
      "name": "changeAdmin",
      "outputs": [],
      "stateMutability": "nonpayable",
      "type": "function"
    },
    {
      "inputs": [],
      "name": "getAdmin",
      "outputs": [
        {
          "internalType": "address",
          "name": "admin_",
          "type": "address"
        }
      ],
      "stateMutability": "view",
      "type": "function"
    },
    {
      "inputs": [],
      "name": "getImplementation",
      "outputs": [
        {
          "internalType": "address",
          "name": "implementation_",
          "type": "address"
        }
      ],
      "stateMutability": "view",
      "type": "function"
    },
    {
      "inputs": [],
      "name": "getVersion",
      "outputs": [
        {
          "internalType": "uint256",
          "name": "version_",
          "type": "uint256"
        }
      ],
      "stateMutability": "view",
      "type": "function"
    },
    {
      "inputs": [],
      "name": "implementation",
      "outputs": [
        {
          "internalType": "address",
          "name": "implementation_",
          "type": "address"
        }
      ],
      "stateMutability": "nonpayable",
      "type": "function"
    },
    {
      "inputs": [
        {
          "internalType": "address",
          "name": "newImplementation",
          "type": "address"
        }
      ],
      "name": "upgradeTo",
      "outputs": [],
      "stateMutability": "nonpayable",
      "type": "function"
    },
    {
      "inputs": [
        {
          "internalType": "address",
          "name": "newImplementation",
          "type": "address"
        },
        {
          "internalType": "bytes",
          "name": "data",
          "type": "bytes"
        }
      ],
      "name": "upgradeToAndCall",
      "outputs": [],
      "stateMutability": "payable",
      "type": "function"
    },
    {
      "stateMutability": "payable",
      "type": "receive"
    }
  ],
  "transactionHash": "0x10bf012cac6dec10f9a4b4439ad87c4a6c1f763bf40cc1f800973bc9aef33b19",
  "args": [
    "0x98816EB4c559F2006eDb860e7ff6cb9C68d0C324",
    "0xf6eFc37389e7A3af9ABde4D14e4b9C33F2f6EB5A",
    "0x47076ae1000000000000000000000000000000000000000000000000000000000000008000000000000000000000000000000000000000000000000000000000000000c0000000000000000000000000b60406a48693c06142085f860cee9c14d72b217e000000000000000000000000a0b86991c6218b36c1d19d4a2e9eb0ce3606eb4800000000000000000000000000000000000000000000000000000000000000084f6821205553444300000000000000000000000000000000000000000000000000000000000000000000000000000000000000000000000000000000000000074f482d5553444300000000000000000000000000000000000000000000000000"
  ],
  "solcInputHash": "e2f886b8a24d1a496d54c6b0fef6217b",
  "bytecode": "0x60806040523480156200001157600080fd5b5060405162000dd138038062000dd1833981810160405260608110156200003757600080fd5b815160208301516040808501805191519395929483019291846401000000008211156200006357600080fd5b9083019060208201858111156200007957600080fd5b82516401000000008111828201881017156200009457600080fd5b82525081516020918201929091019080838360005b83811015620000c3578181015183820152602001620000a9565b50505050905090810190601f168015620000f15780820380516001836020036101000a031916815260200191505b50604052508491508390508282816200010a826200015e565b8051156200012b57620001298282620001d560201b620004291760201c565b505b50620001349050565b6200013f8262000204565b5062000149915050565b62000155600162000228565b50505062000409565b62000174816200024c60201b620004551760201c565b620001b15760405162461bcd60e51b815260040180806020018281038252603681526020018062000d756036913960400191505060405180910390fd5b7f360894a13ba1a3210667c828492db98dca3e2076cc3735a920a3ca505d382bbc55565b6060620001fd838360405180606001604052806027815260200162000d4e6027913962000252565b9392505050565b7fb53127684a568b3173ae13b9f8a6016e243e63b6e8ee1178d6a717850b5d610355565b7f460994c355dbc8229336897ed9def5884fb6b26b0a995b156780d056c758577d55565b3b151590565b60606200025f846200024c565b6200029c5760405162461bcd60e51b815260040180806020018281038252602681526020018062000dab6026913960400191505060405180910390fd5b600080856001600160a01b0316856040518082805190602001908083835b60208310620002db5780518252601f199092019160209182019101620002ba565b6001836020036101000a038019825116818451168082178552505050505050905001915050600060405180830381855af49150503d80600081146200033d576040519150601f19603f3d011682016040523d82523d6000602084013e62000342565b606091505b509092509050620003558282866200035f565b9695505050505050565b6060831562000370575081620001fd565b825115620003815782518084602001fd5b8160405162461bcd60e51b81526004018080602001828103825283818151815260200191508051906020019080838360005b83811015620003cd578181015183820152602001620003b3565b50505050905090810190601f168015620003fb5780820380516001836020036101000a031916815260200191505b509250505060405180910390fd5b61093580620004196000396000f3fe60806040526004361061007f5760003560e01c80636e9960c31161004e5780636e9960c3146101a15780638f283970146101b6578063aaf10f42146101e9578063f851a440146101fe5761008e565b80630d8e6e2c146100965780633659cfe6146100bd5780634f1ef286146100f05780635c60da1b146101705761008e565b3661008e5761008c610213565b005b61008c610213565b3480156100a257600080fd5b506100ab61022d565b60408051918252519081900360200190f35b3480156100c957600080fd5b5061008c600480360360208110156100e057600080fd5b50356001600160a01b031661023c565b61008c6004803603604081101561010657600080fd5b6001600160a01b03823516919081019060408101602082013564010000000081111561013157600080fd5b82018360208201111561014357600080fd5b8035906020019184600183028401116401000000008311171561016557600080fd5b509092509050610276565b34801561017c57600080fd5b506101856102f3565b604080516001600160a01b039092168252519081900360200190f35b3480156101ad57600080fd5b50610185610330565b3480156101c257600080fd5b5061008c600480360360208110156101d957600080fd5b50356001600160a01b031661033a565b3480156101f557600080fd5b506101856103f4565b34801561020a57600080fd5b506101856103fe565b61021b61045b565b61022b6102266104bb565b6104e0565b565b6000610237610504565b905090565b610244610529565b6001600160a01b0316336001600160a01b0316141561026b576102668161054e565b610273565b610273610213565b50565b61027e610529565b6001600160a01b0316336001600160a01b031614156102e6576102a08361054e565b6102e08383838080601f01602080910402602001604051908101604052809392919081815260200183838082843760009201919091525061042992505050565b506102ee565b6102ee610213565b505050565b60006102fd610529565b6001600160a01b0316336001600160a01b031614156103255761031e6104bb565b905061032d565b61032d610213565b90565b6000610237610529565b610342610529565b6001600160a01b0316336001600160a01b0316141561026b576001600160a01b0381166103a05760405162461bcd60e51b815260040180806020018281038252603a815260200180610801603a913960400191505060405180910390fd5b7f7e644d79422f17c01e4894b5f4f588d331ebfa28653d42ae832dc59e38c9798f6103c9610529565b604080516001600160a01b03928316815291841660208301528051918290030190a16102668161056a565b60006102376104bb565b6000610408610529565b6001600160a01b0316336001600160a01b031614156103255761031e610529565b606061044e838360405180606001604052806027815260200161083b6027913961058e565b9392505050565b3b151590565b610463610529565b6001600160a01b0316336001600160a01b031614156104b35760405162461bcd60e51b81526004018080602001828103825260428152602001806108be6042913960600191505060405180910390fd5b61022b61022b565b7f360894a13ba1a3210667c828492db98dca3e2076cc3735a920a3ca505d382bbc5490565b3660008037600080366000845af43d6000803e8080156104ff573d6000f35b3d6000fd5b7f460994c355dbc8229336897ed9def5884fb6b26b0a995b156780d056c758577d5490565b7fb53127684a568b3173ae13b9f8a6016e243e63b6e8ee1178d6a717850b5d61035490565b61055781610690565b610273610562610504565b6001016106d0565b7fb53127684a568b3173ae13b9f8a6016e243e63b6e8ee1178d6a717850b5d610355565b606061059984610455565b6105d45760405162461bcd60e51b81526004018080602001828103825260268152602001806108986026913960400191505060405180910390fd5b600080856001600160a01b0316856040518082805190602001908083835b602083106106115780518252601f1990920191602091820191016105f2565b6001836020036101000a038019825116818451168082178552505050505050905001915050600060405180830381855af49150503d8060008114610671576040519150601f19603f3d011682016040523d82523d6000602084013e610676565b606091505b50915091506106868282866106f4565b9695505050505050565b61069981610798565b6040516001600160a01b038216907fbc7cd75a20ee27fd9adebab32041f755214dbc6bffa90cc0225b39da2e5c2d3b90600090a250565b7f460994c355dbc8229336897ed9def5884fb6b26b0a995b156780d056c758577d55565b6060831561070357508161044e565b8251156107135782518084602001fd5b8160405162461bcd60e51b81526004018080602001828103825283818151815260200191508051906020019080838360005b8381101561075d578181015183820152602001610745565b50505050905090810190601f16801561078a5780820380516001836020036101000a031916815260200191505b509250505060405180910390fd5b6107a181610455565b6107dc5760405162461bcd60e51b81526004018080602001828103825260368152602001806108626036913960400191505060405180910390fd5b7f360894a13ba1a3210667c828492db98dca3e2076cc3735a920a3ca505d382bbc5556fe5472616e73706172656e745570677261646561626c6550726f78793a206e65772061646d696e20697320746865207a65726f2061646472657373416464726573733a206c6f772d6c6576656c2064656c65676174652063616c6c206661696c65645570677261646561626c6550726f78793a206e657720696d706c656d656e746174696f6e206973206e6f74206120636f6e7472616374416464726573733a2064656c65676174652063616c6c20746f206e6f6e2d636f6e74726163745472616e73706172656e745570677261646561626c6550726f78793a2061646d696e2063616e6e6f742066616c6c6261636b20746f2070726f787920746172676574a2646970667358221220a54406682582c5ad890f7104320d2b75aa702a8adb1c756e950b34c08408f90064736f6c63430007060033416464726573733a206c6f772d6c6576656c2064656c65676174652063616c6c206661696c65645570677261646561626c6550726f78793a206e657720696d706c656d656e746174696f6e206973206e6f74206120636f6e7472616374416464726573733a2064656c65676174652063616c6c20746f206e6f6e2d636f6e7472616374",
  "devdoc": {
    "details": "Upgrades managed by the proxy admin contract",
    "kind": "dev",
    "methods": {
      "admin()": {
        "details": "Returns the current admin. NOTE: Only the admin can call this function. See {ProxyAdmin-getProxyAdmin}. TIP: To get this value clients can read directly from the storage slot shown below (specified by EIP1967) using the https://eth.wiki/json-rpc/API#eth_getstorageat[`eth_getStorageAt`] RPC call. `0xb53127684a568b3173ae13b9f8a6016e243e63b6e8ee1178d6a717850b5d6103`"
      },
      "changeAdmin(address)": {
        "details": "Changes the admin of the proxy. Emits an {AdminChanged} event. NOTE: Only the admin can call this function. See {ProxyAdmin-changeProxyAdmin}."
      },
      "implementation()": {
        "details": "Returns the current implementation. NOTE: Only the admin can call this function. See {ProxyAdmin-getProxyImplementation}. TIP: To get this value clients can read directly from the storage slot shown below (specified by EIP1967) using the https://eth.wiki/json-rpc/API#eth_getstorageat[`eth_getStorageAt`] RPC call. `0x360894a13ba1a3210667c828492db98dca3e2076cc3735a920a3ca505d382bbc`"
      },
      "upgradeTo(address)": {
        "details": "Upgrade the implementation of the proxy. NOTE: Only the admin can call this function. See {ProxyAdmin-upgrade}."
      },
      "upgradeToAndCall(address,bytes)": {
        "details": "Upgrade the implementation of the proxy, and then call a function from the new implementation as specified by `data`, which should be an encoded function call. This is useful to initialize new storage variables in the proxied contract. NOTE: Only the admin can call this function. See {ProxyAdmin-upgradeAndCall}."
      }
    },
    "title": "Oh! Finance Upgradeable Proxy",
    "version": 1
  },
  "userdoc": {
    "kind": "user",
    "methods": {},
    "notice": "Versioned, EIP-1967 Compliant Proxy",
    "version": 1
  },
  "storageLayout": {
    "storage": [],
    "types": null
  }
}