{
  "address": "0xA0c4F57fc408F34973075352E75D6Fa18c9155e9",
  "abi": [
    {
      "inputs": [],
      "stateMutability": "nonpayable",
      "type": "constructor"
    },
    {
      "anonymous": false,
      "inputs": [
        {
          "indexed": true,
          "internalType": "address",
          "name": "router",
          "type": "address"
        },
        {
          "indexed": true,
          "internalType": "address",
          "name": "token",
          "type": "address"
        },
        {
          "indexed": false,
          "internalType": "uint256",
          "name": "amount",
          "type": "uint256"
        }
      ],
      "name": "Liquidate",
      "type": "event"
    },
    {
      "anonymous": false,
      "inputs": [
        {
          "indexed": true,
          "internalType": "address",
          "name": "token",
          "type": "address"
        },
        {
          "indexed": false,
          "internalType": "uint256",
          "name": "amount",
          "type": "uint256"
        },
        {
          "indexed": false,
          "internalType": "address",
          "name": "recipient",
          "type": "address"
        }
      ],
      "name": "Sweep",
      "type": "event"
    },
    {
      "inputs": [],
      "name": "bank",
      "outputs": [
        {
          "internalType": "address",
          "name": "",
          "type": "address"
        }
      ],
      "stateMutability": "view",
      "type": "function"
    },
    {
      "inputs": [],
      "name": "derivative",
      "outputs": [
        {
          "internalType": "address",
          "name": "",
          "type": "address"
        }
      ],
      "stateMutability": "view",
      "type": "function"
    },
    {
      "inputs": [],
      "name": "derivativeBalance",
      "outputs": [
        {
          "internalType": "uint256",
          "name": "",
          "type": "uint256"
        }
      ],
      "stateMutability": "view",
      "type": "function"
    },
    {
      "inputs": [],
      "name": "gauge",
      "outputs": [
        {
          "internalType": "address",
          "name": "",
          "type": "address"
        }
      ],
      "stateMutability": "view",
      "type": "function"
    },
    {
      "inputs": [],
      "name": "governance",
      "outputs": [
        {
          "internalType": "address",
          "name": "",
          "type": "address"
        }
      ],
      "stateMutability": "view",
      "type": "function"
    },
    {
      "inputs": [],
      "name": "index",
      "outputs": [
        {
          "internalType": "uint256",
          "name": "",
          "type": "uint256"
        }
      ],
      "stateMutability": "view",
      "type": "function"
    },
    {
      "inputs": [
        {
          "internalType": "address",
          "name": "registry_",
          "type": "address"
        },
        {
          "internalType": "address",
          "name": "bank_",
          "type": "address"
        },
        {
          "internalType": "address",
          "name": "underlying_",
          "type": "address"
        },
        {
          "internalType": "address",
          "name": "derivative_",
          "type": "address"
        },
        {
          "internalType": "address",
          "name": "reward_",
          "type": "address"
        },
        {
          "internalType": "address",
          "name": "pool_",
          "type": "address"
        },
        {
          "internalType": "address",
          "name": "gauge_",
          "type": "address"
        },
        {
          "internalType": "address",
          "name": "mintr_",
          "type": "address"
        },
        {
          "internalType": "uint256",
          "name": "index_",
          "type": "uint256"
        }
      ],
      "name": "initializeCurve3PoolStrategy",
      "outputs": [],
      "stateMutability": "nonpayable",
      "type": "function"
    },
    {
      "inputs": [],
      "name": "invest",
      "outputs": [],
      "stateMutability": "nonpayable",
      "type": "function"
    },
    {
      "inputs": [],
      "name": "investedBalance",
      "outputs": [
        {
          "internalType": "uint256",
          "name": "",
          "type": "uint256"
        }
      ],
      "stateMutability": "view",
      "type": "function"
    },
    {
      "inputs": [],
      "name": "manager",
      "outputs": [
        {
          "internalType": "address",
          "name": "",
          "type": "address"
        }
      ],
      "stateMutability": "view",
      "type": "function"
    },
    {
      "inputs": [],
      "name": "mintr",
      "outputs": [
        {
          "internalType": "address",
          "name": "",
          "type": "address"
        }
      ],
      "stateMutability": "view",
      "type": "function"
    },
    {
      "inputs": [],
      "name": "pool",
      "outputs": [
        {
          "internalType": "address",
          "name": "",
          "type": "address"
        }
      ],
      "stateMutability": "view",
      "type": "function"
    },
    {
      "inputs": [],
      "name": "registry",
      "outputs": [
        {
          "internalType": "address",
          "name": "",
          "type": "address"
        }
      ],
      "stateMutability": "view",
      "type": "function"
    },
    {
      "inputs": [],
      "name": "reward",
      "outputs": [
        {
          "internalType": "address",
          "name": "",
          "type": "address"
        }
      ],
      "stateMutability": "view",
      "type": "function"
    },
    {
      "inputs": [],
      "name": "rewardBalance",
      "outputs": [
        {
          "internalType": "uint256",
          "name": "",
          "type": "uint256"
        }
      ],
      "stateMutability": "view",
      "type": "function"
    },
    {
      "inputs": [
        {
          "internalType": "address",
          "name": "registry_",
          "type": "address"
        }
      ],
      "name": "setRegistry",
      "outputs": [],
      "stateMutability": "nonpayable",
      "type": "function"
    },
    {
      "inputs": [],
      "name": "stakedBalance",
      "outputs": [
        {
          "internalType": "uint256",
          "name": "",
          "type": "uint256"
        }
      ],
      "stateMutability": "view",
      "type": "function"
    },
    {
      "inputs": [
        {
          "internalType": "address",
          "name": "token",
          "type": "address"
        },
        {
          "internalType": "uint256",
          "name": "amount",
          "type": "uint256"
        },
        {
          "internalType": "address",
          "name": "recipient",
          "type": "address"
        }
      ],
      "name": "sweep",
      "outputs": [],
      "stateMutability": "nonpayable",
      "type": "function"
    },
    {
      "inputs": [],
      "name": "underlying",
      "outputs": [
        {
          "internalType": "address",
          "name": "",
          "type": "address"
        }
      ],
      "stateMutability": "view",
      "type": "function"
    },
    {
      "inputs": [],
      "name": "underlyingBalance",
      "outputs": [
        {
          "internalType": "uint256",
          "name": "",
          "type": "uint256"
        }
      ],
      "stateMutability": "view",
      "type": "function"
    },
    {
      "inputs": [
        {
          "internalType": "uint256",
          "name": "amount",
          "type": "uint256"
        }
      ],
      "name": "withdraw",
      "outputs": [
        {
          "internalType": "uint256",
          "name": "",
          "type": "uint256"
        }
      ],
      "stateMutability": "nonpayable",
      "type": "function"
    },
    {
      "inputs": [],
      "name": "withdrawAll",
      "outputs": [],
      "stateMutability": "nonpayable",
      "type": "function"
    }
  ],
  "transactionHash": "0x320a20844314eccfa50ec6d9732f1178ffe53475249a816a7ed40b20ce557658",
  "args": [],
  "solcInputHash": "d58997e03a516940f0827c0bee3c7f29",
  "bytecode": "0x60806040523480156200001157600080fd5b50600054610100900460ff16806200002e57506200002e62000134565b806200003d575060005460ff16155b6200007a5760405162461bcd60e51b815260040180806020018281038252602e81526020018062001e89602e913960400191505060405180910390fd5b600054610100900460ff16158015620000a6576000805460ff1961ff0019909116610100171660011790555b6000620000b262000152565b6001600160a01b031614620000c357fe5b6000620000cf62000184565b6001600160a01b031614620000e057fe5b6000620000ec620001b1565b6001600160a01b031614620000fd57fe5b600062000109620001de565b6001600160a01b0316146200011a57fe5b80156200012d576000805461ff00191690555b5062000215565b60006200014c306200020b60201b620009db1760201c565b15905090565b60006200017f7f1b5717851286d5e98a28354be764b8c0a20eb2fbd059120090ee8bcfe1a9bf6c62000211565b905090565b60006200017f7fd2eff96e29993ca5431993c3a205e12e198965c0e1fdd87b4899b57f1e611c7462000211565b60006200017f7f0fad97fe3ec7d6c1e9191a09a0c4ccb7a831b6605392e57d2fedb8501a4dc81262000211565b60006200017f7faeb865605058f37eedb4467ee2609ddec592b0c9a6f7f7cb0db3feabe544c71c62000211565b3b151590565b5490565b611c6480620002256000396000f3fe608060405234801561001057600080fd5b50600436106101425760003560e01c806376cdb03b116100b8578063aa5c3ab41161007c578063aa5c3ab41461022a578063b97ad8fc14610232578063c9168a591461029a578063d1e61dcb146102a2578063dc2c256f146102aa578063e8b5e51f146102e057610142565b806376cdb03b146101e25780637b103999146101ea578063853828b6146101f2578063a6f19c84146101fc578063a91ee0dc1461020457610142565b80632e1a7d4d1161010a5780632e1a7d4d1461019d578063481c6a75146101ba57806359356c5c146101c25780635aa6e675146101ca5780635b9f0016146101d25780636f307dc3146101da57610142565b806316f0115b1461014757806319776d8e1461016b5780631985a89f14610185578063228cb7331461018d5780632986c0e514610195575b600080fd5b61014f6102e8565b604080516001600160a01b039092168252519081900360200190f35b610173610319565b60408051918252519081900360200190f35b61014f6103c0565b61014f6103eb565b610173610416565b610173600480360360208110156101b357600080fd5b5035610441565b61014f6104b9565b6101736104fb565b61014f610505565b610173610547565b61014f610559565b61014f610584565b61014f6105af565b6101fa6105da565b005b61014f610657565b6101fa6004803603602081101561021a57600080fd5b50356001600160a01b0316610682565b610173610768565b6101fa600480360361012081101561024957600080fd5b506001600160a01b038135811691602081013582169160408201358116916060810135821691608082013581169160a081013582169160c082013581169160e0810135909116906101000135610792565b610173610856565b61014f610878565b6101fa600480360360608110156102c057600080fd5b506001600160a01b038135811691602081013591604090910135166108a3565b6101fa610966565b60006103137f6c9960513c6769ea8f48802ea7b637e9ce937cc3d022135cc43626003296fc466109e1565b90505b90565b6000806103246103c0565b6001600160a01b0316141561033b57506000610316565b6103436103c0565b6001600160a01b03166370a08231306040518263ffffffff1660e01b815260040180826001600160a01b0316815260200191505060206040518083038186803b15801561038f57600080fd5b505afa1580156103a3573d6000803e3d6000fd5b505050506040513d60208110156103b957600080fd5b5051905090565b60006103137f4ff4c9b81c0bf267e01129f4817e03efc0163ee7133b87bd58118a96bbce43d36109e1565b60006103137faeb865605058f37eedb4467ee2609ddec592b0c9a6f7f7cb0db3feabe544c71c6109e1565b60006103137fd5700a843c20bfe827ca47a7c73f83287e1b32b3cd4ac659d79f800228d617fd6109e1565b600061044b610584565b6001600160a01b0316336001600160a01b0316146104a6576040805162461bcd60e51b815260206004820152601360248201527253747261746567793a204f6e6c792042616e6b60681b604482015290519081900360640190fd5b60006104b233846109e5565b9392505050565b60006104c36105af565b6001600160a01b031663481c6a756040518163ffffffff1660e01b815260040160206040518083038186803b15801561038f57600080fd5b6000610343610559565b600061050f6105af565b6001600160a01b0316635aa6e6756040518163ffffffff1660e01b815260040160206040518083038186803b15801561038f57600080fd5b6000610313610554610657565b610abb565b60006103137f0fad97fe3ec7d6c1e9191a09a0c4ccb7a831b6605392e57d2fedb8501a4dc8126109e1565b60006103137fd2eff96e29993ca5431993c3a205e12e198965c0e1fdd87b4899b57f1e611c746109e1565b60006103137f1b5717851286d5e98a28354be764b8c0a20eb2fbd059120090ee8bcfe1a9bf6c6109e1565b6105e2610584565b6001600160a01b0316336001600160a01b03161461063d576040805162461bcd60e51b815260206004820152601360248201527253747261746567793a204f6e6c792042616e6b60681b604482015290519081900360640190fd5b6000610647610856565b905061065333826109e5565b5050565b60006103137f85c79ab2dc779eb860ec993658b7f7a753e59bdfda156c7391620a5f513311e66109e1565b61068a610505565b6001600160a01b0316336001600160a01b0316146106ef576040805162461bcd60e51b815260206004820152601b60248201527f537562736372696265723a204f6e6c7920476f7665726e616e63650000000000604482015290519081900360640190fd5b6106f881610b3c565b610700610505565b6001600160a01b0316336001600160a01b031614610765576040805162461bcd60e51b815260206004820152601a60248201527f537562736372696265723a2042616420476f7665726e616e6365000000000000604482015290519081900360640190fd5b50565b6000806107736103eb565b6001600160a01b0316141561078a57506000610316565b6103436103eb565b600054610100900460ff16806107ab57506107ab610b66565b806107b9575060005460ff16155b6107f45760405162461bcd60e51b815260040180806020018281038252602e815260200180611bb6602e913960400191505060405180910390fd5b600054610100900460ff1615801561081f576000805460ff1961ff0019909116610100171660011790555b61082c8a8a8a8a8a610b77565b61083885858585610c33565b801561084a576000805461ff00191690555b50505050505050505050565b60006103136108636102e8565b61086b610547565b610873610416565b610cfd565b60006103137f3e7777dca2f9f31e4c2d62ce76af8def0f69b868d665539787b25b39a9f7224f6109e1565b6108ab610505565b6001600160a01b0316336001600160a01b031614610910576040805162461bcd60e51b815260206004820152601b60248201527f537562736372696265723a204f6e6c7920476f7665726e616e63650000000000604482015290519081900360640190fd5b61091b818484610d82565b50604080518381526001600160a01b0383811660208301528251908616927f8d71d334346acd8aade4cdca3af39a37fca2620cd870d28ccf94ae4ade61c8f3928290030190a2505050565b61096e610584565b6001600160a01b0316336001600160a01b0316146109c9576040805162461bcd60e51b815260206004820152601360248201527253747261746567793a204f6e6c792042616e6b60681b604482015290519081900360640190fd5b6109d1610e4e565b6109d9610e91565b565b3b151590565b5490565b6000816109f457506000610ab5565b60006109fe610856565b90506000610a0a610547565b90506000610a2a83610a2487670de0b6b3a7640000610ee6565b90610f3f565b90506000610a4d83610a48670de0b6b3a7640000610a248684610ee6565b610fa6565b90506000610a6b85610a48670de0b6b3a7640000610a248784610ee6565b9050610a7e610a78610657565b83610fbc565b610a98610a896102e8565b610a91610416565b8385611016565b6000610aac89610aa6610559565b8a610d82565b96505050505050505b92915050565b6000816001600160a01b03166370a08231306040518263ffffffff1660e01b815260040180826001600160a01b0316815260200191505060206040518083038186803b158015610b0a57600080fd5b505afa158015610b1e573d6000803e3d6000fd5b505050506040513d6020811015610b3457600080fd5b505192915050565b6107657f1b5717851286d5e98a28354be764b8c0a20eb2fbd059120090ee8bcfe1a9bf6c826110db565b6000610b71306109db565b15905090565b600054610100900460ff1680610b905750610b90610b66565b80610b9e575060005460ff16155b610bd95760405162461bcd60e51b815260040180806020018281038252602e815260200180611bb6602e913960400191505060405180910390fd5b600054610100900460ff16158015610c04576000805460ff1961ff0019909116610100171660011790555b610c0d866110df565b610c19858585856111e4565b8015610c2b576000805461ff00191690555b505050505050565b600054610100900460ff1680610c4c5750610c4c610b66565b80610c5a575060005460ff16155b610c955760405162461bcd60e51b815260040180806020018281038252602e815260200180611bb6602e913960400191505060405180910390fd5b600054610100900460ff16158015610cc0576000805460ff1961ff0019909116610100171660011790555b610cc985611295565b610cd2846112bf565b610cdb836112e9565b610ce482611313565b8015610cf6576000805461ff00191690555b5050505050565b6000836001600160a01b031663cc2b27d784846040518363ffffffff1660e01b81526004018083815260200182600f0b81526020019250505060206040518083038186803b158015610d4e57600080fd5b505afa158015610d62573d6000803e3d6000fd5b505050506040513d6020811015610d7857600080fd5b5051949350505050565b600081610d91575060006104b2565b6000836001600160a01b03166370a08231306040518263ffffffff1660e01b815260040180826001600160a01b0316815260200191505060206040518083038186803b158015610de057600080fd5b505afa158015610df4573d6000803e3d6000fd5b505050506040513d6020811015610e0a57600080fd5b5051905082811015610e3157610e2a6001600160a01b038516868361133d565b90506104b2565b610e456001600160a01b038516868561133d565b829150506104b2565b610e66610e59610878565b610e61610657565b611394565b6000610e70610768565b9050801561076557610765610e836103eb565b610e8b610559565b836113e3565b6000610e9b6104fb565b9050801561076557610ec6610eae6102e8565b610eb6610559565b610ebe610416565b8460016115a4565b610765610ed1610657565b610ed96103c0565b610ee1610319565b61165e565b600082610ef557506000610ab5565b82820282848281610f0257fe5b04146104b25760405162461bcd60e51b8152600401808060200182810382526021815260200180611be46021913960400191505060405180910390fd5b6000808211610f95576040805162461bcd60e51b815260206004820152601a60248201527f536166654d6174683a206469766973696f6e206279207a65726f000000000000604482015290519081900360640190fd5b818381610f9e57fe5b049392505050565b6000818310610fb557816104b2565b5090919050565b816001600160a01b0316632e1a7d4d826040518263ffffffff1660e01b815260040180828152602001915050600060405180830381600087803b15801561100257600080fd5b505af1158015610c2b573d6000803e3d6000fd5b600060405180606001604052806000815260200160008152602001600081525090508281856003811061104557fe5b60200201526040516327f6ba8360e21b81526001600160a01b03861690639fdaea0c90839085906004018083606080838360005b83811015611091578181015183820152602001611079565b5050505090500182815260200192505050600060405180830381600087803b1580156110bc57600080fd5b505af11580156110d0573d6000803e3d6000fd5b505050505050505050565b9055565b600054610100900460ff16806110f857506110f8610b66565b80611106575060005460ff16155b6111415760405162461bcd60e51b815260040180806020018281038252602e815260200180611bb6602e913960400191505060405180910390fd5b600054610100900460ff1615801561116c576000805460ff1961ff0019909116610100171660011790555b611175826109db565b6111c6576040805162461bcd60e51b815260206004820152601c60248201527f537562736372696265723a20496e76616c696420526567697374727900000000604482015290519081900360640190fd5b6111cf82610b3c565b8015610653576000805461ff00191690555050565b600054610100900460ff16806111fd57506111fd610b66565b8061120b575060005460ff16155b6112465760405162461bcd60e51b815260040180806020018281038252602e815260200180611bb6602e913960400191505060405180910390fd5b600054610100900460ff16158015611271576000805460ff1961ff0019909116610100171660011790555b61127a856116d5565b611283846116ff565b61128c83611729565b610ce482611753565b6107657f6c9960513c6769ea8f48802ea7b637e9ce937cc3d022135cc43626003296fc46826110db565b6107657f85c79ab2dc779eb860ec993658b7f7a753e59bdfda156c7391620a5f513311e6826110db565b6107657f3e7777dca2f9f31e4c2d62ce76af8def0f69b868d665539787b25b39a9f7224f826110db565b6107657fd5700a843c20bfe827ca47a7c73f83287e1b32b3cd4ac659d79f800228d617fd826110db565b604080516001600160a01b038416602482015260448082018490528251808303909101815260649091019091526020810180516001600160e01b031663a9059cbb60e01b17905261138f90849061177d565b505050565b816001600160a01b0316636a627842826040518263ffffffff1660e01b815260040180826001600160a01b03168152602001915050600060405180830381600087803b15801561100257600080fd5b60006113ed6104b9565b90506000816001600160a01b031663921c86d286866040518363ffffffff1660e01b815260040180836001600160a01b03168152602001826001600160a01b031681526020019250505060206040518083038186803b15801561144f57600080fd5b505afa158015611463573d6000803e3d6000fd5b505050506040513d602081101561147957600080fd5b50519050611488818685610d82565b5060408051636f70e66f60e01b81526001600160a01b0384811660048301528781166024830152868116604483015260648201869052600160848301529151600092841691636f70e66f9160a480830192602092919082900301818787803b1580156114f357600080fd5b505af1158015611507573d6000803e3d6000fd5b505050506040513d602081101561151d57600080fd5b505190506001600160a01b0383166348930428611538610584565b87846040518463ffffffff1660e01b815260040180846001600160a01b03168152602001836001600160a01b031681526020018281526020019350505050600060405180830381600087803b15801561159057600080fd5b505af115801561084a573d6000803e3d6000fd5b60006040518060600160405280600081526020016000815260200160008152509050828185600381106115d357fe5b60200201526115ec6001600160a01b038616878561182e565b604051634515cef360e01b81526001600160a01b03871690634515cef390839085906004018083606080838360005b8381101561163357818101518382015260200161161b565b5050505090500182815260200192505050600060405180830381600087803b15801561159057600080fd5b6116726001600160a01b038316848361182e565b826001600160a01b031663b6b55f25826040518263ffffffff1660e01b815260040180828152602001915050600060405180830381600087803b1580156116b857600080fd5b505af11580156116cc573d6000803e3d6000fd5b50505050505050565b6107657fd2eff96e29993ca5431993c3a205e12e198965c0e1fdd87b4899b57f1e611c74826110db565b6107657f0fad97fe3ec7d6c1e9191a09a0c4ccb7a831b6605392e57d2fedb8501a4dc812826110db565b6107657f4ff4c9b81c0bf267e01129f4817e03efc0163ee7133b87bd58118a96bbce43d3826110db565b6107657faeb865605058f37eedb4467ee2609ddec592b0c9a6f7f7cb0db3feabe544c71c826110db565b60006117d2826040518060400160405280602081526020017f5361666545524332303a206c6f772d6c6576656c2063616c6c206661696c6564815250856001600160a01b031661191f9092919063ffffffff16565b80519091501561138f578080602001905160208110156117f157600080fd5b505161138f5760405162461bcd60e51b815260040180806020018281038252602a815260200180611c05602a913960400191505060405180910390fd5b60006118c482856001600160a01b031663dd62ed3e30876040518363ffffffff1660e01b815260040180836001600160a01b03168152602001826001600160a01b031681526020019250505060206040518083038186803b15801561189257600080fd5b505afa1580156118a6573d6000803e3d6000fd5b505050506040513d60208110156118bc57600080fd5b505190611936565b604080516001600160a01b038616602482015260448082018490528251808303909101815260649091019091526020810180516001600160e01b031663095ea7b360e01b17905290915061191990859061177d565b50505050565b606061192e8484600085611990565b949350505050565b6000828201838110156104b2576040805162461bcd60e51b815260206004820152601b60248201527f536166654d6174683a206164646974696f6e206f766572666c6f770000000000604482015290519081900360640190fd5b6060824710156119d15760405162461bcd60e51b8152600401808060200182810382526026815260200180611b906026913960400191505060405180910390fd5b6119da856109db565b611a2b576040805162461bcd60e51b815260206004820152601d60248201527f416464726573733a2063616c6c20746f206e6f6e2d636f6e7472616374000000604482015290519081900360640190fd5b600080866001600160a01b031685876040518082805190602001908083835b60208310611a695780518252601f199092019160209182019101611a4a565b6001836020036101000a03801982511681845116808217855250505050505090500191505060006040518083038185875af1925050503d8060008114611acb576040519150601f19603f3d011682016040523d82523d6000602084013e611ad0565b606091505b5091509150611ae0828286611aeb565b979650505050505050565b60608315611afa5750816104b2565b825115611b0a5782518084602001fd5b8160405162461bcd60e51b81526004018080602001828103825283818151815260200191508051906020019080838360005b83811015611b54578181015183820152602001611b3c565b50505050905090810190601f168015611b815780820380516001836020036101000a031916815260200191505b509250505060405180910390fdfe416464726573733a20696e73756666696369656e742062616c616e636520666f722063616c6c496e697469616c697a61626c653a20636f6e747261637420697320616c726561647920696e697469616c697a6564536166654d6174683a206d756c7469706c69636174696f6e206f766572666c6f775361666545524332303a204552433230206f7065726174696f6e20646964206e6f742073756363656564a2646970667358221220a310528c6b486b3112c832e04698857004d54e29799cccf01374e381aab7dd5d64736f6c63430007060033496e697469616c697a61626c653a20636f6e747261637420697320616c726561647920696e697469616c697a6564",
  "devdoc": {
    "kind": "dev",
    "methods": {
      "derivativeBalance()": {
        "details": "Balance of derivative tokens received from Strategy, if applicable",
        "returns": {
          "_0": "The balance of derivative tokens"
        }
      },
      "governance()": {
        "returns": {
          "_0": "The current Governance address"
        }
      },
      "initializeCurve3PoolStrategy(address,address,address,address,address,address,address,address,uint256)": {
        "params": {
          "bank_": "Address of the Bank",
          "derivative_": "3CRV LP Token",
          "gauge_": "Curve Gauge, Staking Contract",
          "index_": "Underlying 3Pool Index",
          "mintr_": "Curve Mintr, Rewards Contract",
          "pool_": "Address of the Curve 3Pool",
          "registry_": "Address of the Registry",
          "reward_": "CRV Gov Token",
          "underlying_": "Underlying (DAI, USDC, USDT)"
        }
      },
      "invest()": {
        "details": "Compound CRV Yield, Add Liquidity, Stake into Gauge"
      },
      "manager()": {
        "returns": {
          "_0": "The current Manager address"
        }
      },
      "registry()": {
        "returns": {
          "_0": "The current Registry address"
        }
      },
      "rewardBalance()": {
        "details": "Balance of reward tokens awaiting liquidation, if applicable"
      },
      "setRegistry(address)": {
        "details": "Requires sender to be Governance of the new Registry to avoid bricking.Ideally should not be used",
        "params": {
          "registry_": "The new registry"
        }
      },
      "sweep(address,uint256,address)": {
        "params": {
          "amount": "The amount of tokens to sweep",
          "recipient": "The address to send the sweeped tokens to",
          "token": "The address of the token to sweep"
        }
      },
      "underlyingBalance()": {
        "details": "Balance of underlying awaiting Strategy investment"
      },
      "withdraw(uint256)": {
        "details": "Unstake from Gauge, Remove Liquidity",
        "params": {
          "amount": "Amount of Underlying tokens to withdraw"
        }
      },
      "withdrawAll()": {
        "details": "Unstake from Gauge, Remove Liquidity"
      }
    },
    "title": "Oh! Finance Curve 3Pool Strategy",
    "version": 1
  },
  "userdoc": {
    "kind": "user",
    "methods": {
      "bank()": {
        "notice": "The Bank that the Strategy is associated with"
      },
      "constructor": {
        "notice": "Initialize the Curve 3Pool Strategy Logic"
      },
      "derivative()": {
        "notice": "The derivative token received from AaveV2 (aToken)"
      },
      "governance()": {
        "notice": "Get the Governance address"
      },
      "initializeCurve3PoolStrategy(address,address,address,address,address,address,address,address,uint256)": {
        "notice": "Initialize the Curve 3Pool Strategy Proxy"
      },
      "invest()": {
        "notice": "Execute the Curve 3Pool Strategy"
      },
      "manager()": {
        "notice": "Get the Manager address"
      },
      "registry()": {
        "notice": "Get the Registry address"
      },
      "reward()": {
        "notice": "The reward token received from AaveV2 (stkAave)"
      },
      "setRegistry(address)": {
        "notice": "Set the Registry for the contract. Only callable by Governance."
      },
      "sweep(address,uint256,address)": {
        "notice": "Governance function to sweep any stuck / airdrop tokens to a given recipient"
      },
      "underlying()": {
        "notice": "The underlying token the Strategy invests in AaveV2"
      },
      "withdraw(uint256)": {
        "notice": "Withdraw an amount of underlying from Curve 3Pool Strategy"
      },
      "withdrawAll()": {
        "notice": "Withdraw all underlying from Curve 3Pool Strategy"
      }
    },
    "notice": "Standard Curve 3Pool LP + Gauge Single Underlying Strategy3Pool Underlying, in order: (DAI, USDC, USDT)",
    "version": 1
  },
  "storageLayout": {
    "storage": [
      {
        "astId": 847,
        "contract": "contracts/strategies/curve/OhCurve3PoolStrategy.sol:OhCurve3PoolStrategy",
        "label": "_initialized",
        "offset": 0,
        "slot": "0",
        "type": "t_bool"
      },
      {
        "astId": 850,
        "contract": "contracts/strategies/curve/OhCurve3PoolStrategy.sol:OhCurve3PoolStrategy",
        "label": "_initializing",
        "offset": 1,
        "slot": "0",
        "type": "t_bool"
      }
    ],
    "types": {
      "t_bool": {
        "encoding": "inplace",
        "label": "bool",
        "numberOfBytes": "1"
      }
    }
  }
}