{
  "address": "0x65afD8a9f3C24e0fF9A6E1ff8Cc92b8a0CF32195",
  "abi": [
    {
      "inputs": [
        {
          "internalType": "address",
          "name": "registry_",
          "type": "address"
        },
        {
          "internalType": "address",
          "name": "admin_",
          "type": "address"
        },
        {
          "internalType": "uint256",
          "name": "delay_",
          "type": "uint256"
        }
      ],
      "stateMutability": "nonpayable",
      "type": "constructor"
    },
    {
      "anonymous": false,
      "inputs": [
        {
          "indexed": true,
          "internalType": "bytes32",
          "name": "txHash",
          "type": "bytes32"
        },
        {
          "indexed": true,
          "internalType": "address",
          "name": "target",
          "type": "address"
        },
        {
          "indexed": false,
          "internalType": "uint256",
          "name": "value",
          "type": "uint256"
        },
        {
          "indexed": false,
          "internalType": "string",
          "name": "signature",
          "type": "string"
        },
        {
          "indexed": false,
          "internalType": "bytes",
          "name": "data",
          "type": "bytes"
        },
        {
          "indexed": false,
          "internalType": "uint256",
          "name": "eta",
          "type": "uint256"
        }
      ],
      "name": "CancelTransaction",
      "type": "event"
    },
    {
      "anonymous": false,
      "inputs": [
        {
          "indexed": true,
          "internalType": "bytes32",
          "name": "txHash",
          "type": "bytes32"
        },
        {
          "indexed": true,
          "internalType": "address",
          "name": "target",
          "type": "address"
        },
        {
          "indexed": false,
          "internalType": "uint256",
          "name": "value",
          "type": "uint256"
        },
        {
          "indexed": false,
          "internalType": "string",
          "name": "signature",
          "type": "string"
        },
        {
          "indexed": false,
          "internalType": "bytes",
          "name": "data",
          "type": "bytes"
        },
        {
          "indexed": false,
          "internalType": "uint256",
          "name": "eta",
          "type": "uint256"
        }
      ],
      "name": "ExecuteTransaction",
      "type": "event"
    },
    {
      "anonymous": false,
      "inputs": [
        {
          "indexed": true,
          "internalType": "address",
          "name": "newAdmin",
          "type": "address"
        }
      ],
      "name": "NewAdmin",
      "type": "event"
    },
    {
      "anonymous": false,
      "inputs": [
        {
          "indexed": true,
          "internalType": "uint256",
          "name": "newDelay",
          "type": "uint256"
        }
      ],
      "name": "NewDelay",
      "type": "event"
    },
    {
      "anonymous": false,
      "inputs": [
        {
          "indexed": true,
          "internalType": "address",
          "name": "newPendingAdmin",
          "type": "address"
        }
      ],
      "name": "NewPendingAdmin",
      "type": "event"
    },
    {
      "anonymous": false,
      "inputs": [
        {
          "indexed": true,
          "internalType": "bytes32",
          "name": "txHash",
          "type": "bytes32"
        },
        {
          "indexed": true,
          "internalType": "address",
          "name": "target",
          "type": "address"
        },
        {
          "indexed": false,
          "internalType": "uint256",
          "name": "value",
          "type": "uint256"
        },
        {
          "indexed": false,
          "internalType": "string",
          "name": "signature",
          "type": "string"
        },
        {
          "indexed": false,
          "internalType": "bytes",
          "name": "data",
          "type": "bytes"
        },
        {
          "indexed": false,
          "internalType": "uint256",
          "name": "eta",
          "type": "uint256"
        }
      ],
      "name": "QueueTransaction",
      "type": "event"
    },
    {
      "inputs": [],
      "name": "GRACE_PERIOD",
      "outputs": [
        {
          "internalType": "uint256",
          "name": "",
          "type": "uint256"
        }
      ],
      "stateMutability": "view",
      "type": "function"
    },
    {
      "inputs": [],
      "name": "MAXIMUM_DELAY",
      "outputs": [
        {
          "internalType": "uint256",
          "name": "",
          "type": "uint256"
        }
      ],
      "stateMutability": "view",
      "type": "function"
    },
    {
      "inputs": [],
      "name": "MINIMUM_DELAY",
      "outputs": [
        {
          "internalType": "uint256",
          "name": "",
          "type": "uint256"
        }
      ],
      "stateMutability": "view",
      "type": "function"
    },
    {
      "inputs": [],
      "name": "acceptAdmin",
      "outputs": [],
      "stateMutability": "nonpayable",
      "type": "function"
    },
    {
      "inputs": [],
      "name": "admin",
      "outputs": [
        {
          "internalType": "address",
          "name": "",
          "type": "address"
        }
      ],
      "stateMutability": "view",
      "type": "function"
    },
    {
      "inputs": [
        {
          "internalType": "address",
          "name": "target",
          "type": "address"
        },
        {
          "internalType": "uint256",
          "name": "value",
          "type": "uint256"
        },
        {
          "internalType": "string",
          "name": "signature",
          "type": "string"
        },
        {
          "internalType": "bytes",
          "name": "data",
          "type": "bytes"
        },
        {
          "internalType": "uint256",
          "name": "eta",
          "type": "uint256"
        }
      ],
      "name": "cancelTransaction",
      "outputs": [],
      "stateMutability": "nonpayable",
      "type": "function"
    },
    {
      "inputs": [],
      "name": "delay",
      "outputs": [
        {
          "internalType": "uint256",
          "name": "",
          "type": "uint256"
        }
      ],
      "stateMutability": "view",
      "type": "function"
    },
    {
      "inputs": [
        {
          "internalType": "address",
          "name": "bank",
          "type": "address"
        }
      ],
      "name": "executeEmergencyPause",
      "outputs": [],
      "stateMutability": "nonpayable",
      "type": "function"
    },
    {
      "inputs": [
        {
          "internalType": "address",
          "name": "bank",
          "type": "address"
        }
      ],
      "name": "executePause",
      "outputs": [],
      "stateMutability": "nonpayable",
      "type": "function"
    },
    {
      "inputs": [
        {
          "internalType": "address",
          "name": "target",
          "type": "address"
        },
        {
          "internalType": "uint256",
          "name": "value",
          "type": "uint256"
        },
        {
          "internalType": "string",
          "name": "signature",
          "type": "string"
        },
        {
          "internalType": "bytes",
          "name": "data",
          "type": "bytes"
        },
        {
          "internalType": "uint256",
          "name": "eta",
          "type": "uint256"
        }
      ],
      "name": "executeTransaction",
      "outputs": [
        {
          "internalType": "bytes",
          "name": "",
          "type": "bytes"
        }
      ],
      "stateMutability": "payable",
      "type": "function"
    },
    {
      "inputs": [
        {
          "internalType": "address",
          "name": "bank",
          "type": "address"
        }
      ],
      "name": "executeUnpause",
      "outputs": [],
      "stateMutability": "nonpayable",
      "type": "function"
    },
    {
      "inputs": [],
      "name": "governance",
      "outputs": [
        {
          "internalType": "address",
          "name": "",
          "type": "address"
        }
      ],
      "stateMutability": "view",
      "type": "function"
    },
    {
      "inputs": [],
      "name": "manager",
      "outputs": [
        {
          "internalType": "address",
          "name": "",
          "type": "address"
        }
      ],
      "stateMutability": "view",
      "type": "function"
    },
    {
      "inputs": [],
      "name": "pendingAdmin",
      "outputs": [
        {
          "internalType": "address",
          "name": "",
          "type": "address"
        }
      ],
      "stateMutability": "view",
      "type": "function"
    },
    {
      "inputs": [
        {
          "internalType": "address",
          "name": "target",
          "type": "address"
        },
        {
          "internalType": "uint256",
          "name": "value",
          "type": "uint256"
        },
        {
          "internalType": "string",
          "name": "signature",
          "type": "string"
        },
        {
          "internalType": "bytes",
          "name": "data",
          "type": "bytes"
        },
        {
          "internalType": "uint256",
          "name": "eta",
          "type": "uint256"
        }
      ],
      "name": "queueTransaction",
      "outputs": [
        {
          "internalType": "bytes32",
          "name": "",
          "type": "bytes32"
        }
      ],
      "stateMutability": "nonpayable",
      "type": "function"
    },
    {
      "inputs": [
        {
          "internalType": "bytes32",
          "name": "",
          "type": "bytes32"
        }
      ],
      "name": "queuedTransactions",
      "outputs": [
        {
          "internalType": "bool",
          "name": "",
          "type": "bool"
        }
      ],
      "stateMutability": "view",
      "type": "function"
    },
    {
      "inputs": [],
      "name": "registry",
      "outputs": [
        {
          "internalType": "address",
          "name": "",
          "type": "address"
        }
      ],
      "stateMutability": "view",
      "type": "function"
    },
    {
      "inputs": [
        {
          "internalType": "uint256",
          "name": "delay_",
          "type": "uint256"
        }
      ],
      "name": "setDelay",
      "outputs": [],
      "stateMutability": "nonpayable",
      "type": "function"
    },
    {
      "inputs": [
        {
          "internalType": "address",
          "name": "pendingAdmin_",
          "type": "address"
        }
      ],
      "name": "setPendingAdmin",
      "outputs": [],
      "stateMutability": "nonpayable",
      "type": "function"
    },
    {
      "inputs": [
        {
          "internalType": "address",
          "name": "registry_",
          "type": "address"
        }
      ],
      "name": "setRegistry",
      "outputs": [],
      "stateMutability": "nonpayable",
      "type": "function"
    },
    {
      "stateMutability": "payable",
      "type": "receive"
    }
  ],
  "transactionHash": "0x20e6d6fba1917ca82b69bcd05a96fd9a3d6db87c35f61c37b1fec7973a0f2915",
  "args": [
    "0x2bA8E99Fedc439da742F023D43b224E3d28eDf5e",
    "0xEE858AAa2Aff2d378A82865026Ba032f0e095c7d",
    172800
  ],
  "solcInputHash": "d58997e03a516940f0827c0bee3c7f29",
  "bytecode": "0x60806040523480156200001157600080fd5b5060405162001e4738038062001e47833981810160405260608110156200003757600080fd5b5080516020808301516040909301519192919083906200006290829062001963620001b1821b17901c565b620000b4576040805162461bcd60e51b815260206004820152601c60248201527f537562736372696265723a20496e76616c696420526567697374727900000000604482015290519081900360640190fd5b600080546001600160a01b0319166001600160a01b03929092169190911790556202a3008110156200012d576040805162461bcd60e51b815260206004820152601760248201527f476f7665726e6f723a2044656c617920546f6f204c6f77000000000000000000604482015290519081900360640190fd5b62278d0081111562000186576040805162461bcd60e51b815260206004820152601860248201527f476f7665726e6f723a2044656c617920546f6f20486967680000000000000000604482015290519081900360640190fd5b600180546001600160a01b0319166001600160a01b03939093169290921790915560035550620001b7565b3b151590565b611c8080620001c76000396000f3fe6080604052600436106101235760003560e01c80636a42b8f8116100a0578063b1b43ae511610064578063b1b43ae514610740578063c1a287e214610755578063e177246e1461076a578063f2b0653714610794578063f851a440146107d25761012a565b80636a42b8f81461069b5780637b103999146106b05780637d645fab146106c5578063a407f62b146106da578063a91ee0dc1461070d5761012a565b8063481c6a75116100e7578063481c6a75146104be5780634d11dcf3146104d35780634dd18bf514610506578063591fcdfe146105395780635aa6e675146106865761012a565b80630825f38f1461012f5780630e18b681146102e457806326782247146102fb57806335ac63b11461032c5780633a66f9011461035f5761012a565b3661012a57005b600080fd5b61026f600480360360a081101561014557600080fd5b6001600160a01b0382351691602081013591810190606081016040820135600160201b81111561017457600080fd5b82018360208201111561018657600080fd5b803590602001918460018302840111600160201b831117156101a757600080fd5b91908080601f0160208091040260200160405190810160405280939291908181526020018383808284376000920191909152509295949360208101935035915050600160201b8111156101f957600080fd5b82018360208201111561020b57600080fd5b803590602001918460018302840111600160201b8311171561022c57600080fd5b91908080601f01602080910402602001604051908101604052809392919081815260200183838082843760009201919091525092955050913592506107e7915050565b6040805160208082528351818301528351919283929083019185019080838360005b838110156102a9578181015183820152602001610291565b50505050905090810190601f1680156102d65780820380516001836020036101000a031916815260200191505b509250505060405180910390f35b3480156102f057600080fd5b506102f9610c66565b005b34801561030757600080fd5b50610310610d1b565b604080516001600160a01b039092168252519081900360200190f35b34801561033857600080fd5b506102f96004803603602081101561034f57600080fd5b50356001600160a01b0316610d2a565b34801561036b57600080fd5b506104ac600480360360a081101561038257600080fd5b6001600160a01b0382351691602081013591810190606081016040820135600160201b8111156103b157600080fd5b8201836020820111156103c357600080fd5b803590602001918460018302840111600160201b831117156103e457600080fd5b91908080601f0160208091040260200160405190810160405280939291908181526020018383808284376000920191909152509295949360208101935035915050600160201b81111561043657600080fd5b82018360208201111561044857600080fd5b803590602001918460018302840111600160201b8311171561046957600080fd5b91908080601f0160208091040260200160405190810160405280939291908181526020018383808284376000920191909152509295505091359250610dd6915050565b60408051918252519081900360200190f35b3480156104ca57600080fd5b506103106110fd565b3480156104df57600080fd5b506102f9600480360360208110156104f657600080fd5b50356001600160a01b0316611170565b34801561051257600080fd5b506102f96004803603602081101561052957600080fd5b50356001600160a01b0316611201565b34801561054557600080fd5b506102f9600480360360a081101561055c57600080fd5b6001600160a01b0382351691602081013591810190606081016040820135600160201b81111561058b57600080fd5b82018360208201111561059d57600080fd5b803590602001918460018302840111600160201b831117156105be57600080fd5b91908080601f0160208091040260200160405190810160405280939291908181526020018383808284376000920191909152509295949360208101935035915050600160201b81111561061057600080fd5b82018360208201111561062257600080fd5b803590602001918460018302840111600160201b8311171561064357600080fd5b91908080601f016020809104026020016040519081016040528093929190818152602001838380828437600092019190915250929550509135925061129b915050565b34801561069257600080fd5b50610310611555565b3480156106a757600080fd5b506104ac611597565b3480156106bc57600080fd5b5061031061159d565b3480156106d157600080fd5b506104ac6115ac565b3480156106e657600080fd5b506102f9600480360360208110156106fd57600080fd5b50356001600160a01b03166115b3565b34801561071957600080fd5b506102f96004803603602081101561073057600080fd5b50356001600160a01b03166116b2565b34801561074c57600080fd5b506104ac611804565b34801561076157600080fd5b506104ac61180b565b34801561077657600080fd5b506102f96004803603602081101561078d57600080fd5b5035611812565b3480156107a057600080fd5b506107be600480360360208110156107b757600080fd5b503561193f565b604080519115158252519081900360200190f35b3480156107de57600080fd5b50610310611954565b6001546060906001600160a01b03163314610840576040805162461bcd60e51b815260206004820152601460248201527323b7bb32b93737b91d1027b7363c9020b236b4b760611b604482015290519081900360640190fd5b6000868686868660405160200180866001600160a01b031681526020018581526020018060200180602001848152602001838103835286818151815260200191508051906020019080838360005b838110156108a657818101518382015260200161088e565b50505050905090810190601f1680156108d35780820380516001836020036101000a031916815260200191505b50838103825285518152855160209182019187019080838360005b838110156109065781810151838201526020016108ee565b50505050905090810190601f1680156109335780820380516001836020036101000a031916815260200191505b5060408051601f1981840301815291815281516020928301206000818152600490935291205490995060ff1697506109ba9650505050505050576040805162461bcd60e51b815260206004820181905260248201527f476f7665726e6f723a205472616e73616374696f6e204e6f7420517565756564604482015290519081900360640190fd5b826109c3611969565b1015610a16576040805162461bcd60e51b815260206004820152601d60248201527f476f7665726e6f723a205472616e73616374696f6e2045787069726564000000604482015290519081900360640190fd5b610a23836212750061196d565b610a2b611969565b1115610a7e576040805162461bcd60e51b815260206004820152601b60248201527f476f7665726e6f723a205472616e73616374696f6e205374616c650000000000604482015290519081900360640190fd5b6000818152600460205260409020805460ff191690558451606090610aa4575083610b27565b85805190602001208560405160200180836001600160e01b031916815260040182805190602001908083835b60208310610aef5780518252601f199092019160209182019101610ad0565b6001836020036101000a0380198251168184511680821785525050505050509050019250505060405160208183030381529060405290505b6000610b3d6001600160a01b038a16838a6119ce565b9050886001600160a01b0316837fa560e3198060a2f10670c1ec5b403077ea6ae93ca8de1c32b451dc1a943cd6e78a8a8a8a604051808581526020018060200180602001848152602001838103835286818151815260200191508051906020019080838360005b83811015610bbc578181015183820152602001610ba4565b50505050905090810190601f168015610be95780820380516001836020036101000a031916815260200191505b50838103825285518152855160209182019187019080838360005b83811015610c1c578181015183820152602001610c04565b50505050905090810190601f168015610c495780820380516001836020036101000a031916815260200191505b50965050505050505060405180910390a398975050505050505050565b6002546001600160a01b03163314610cc5576040805162461bcd60e51b815260206004820152601c60248201527f476f7665726e6f723a204f6e6c792050656e64696e672041646d696e00000000604482015290519081900360640190fd5b60018054336001600160a01b031991821617918290556002805490911690556040516001600160a01b03909116907f71614071b88dee5e0b2ae578a9dd7b2ebbe9ae832ba419dc0242cd065a290b6c90600090a2565b6002546001600160a01b031681565b6001546001600160a01b03163314610d80576040805162461bcd60e51b815260206004820152601460248201527323b7bb32b93737b91d1027b7363c9020b236b4b760611b604482015290519081900360640190fd5b806001600160a01b0316633f4ba83a6040518163ffffffff1660e01b8152600401600060405180830381600087803b158015610dbb57600080fd5b505af1158015610dcf573d6000803e3d6000fd5b5050505050565b6001546000906001600160a01b03163314610e2f576040805162461bcd60e51b815260206004820152601460248201527323b7bb32b93737b91d1027b7363c9020b236b4b760611b604482015290519081900360640190fd5b610e43600354610e3d611969565b9061196d565b821015610e97576040805162461bcd60e51b815260206004820152601760248201527f476f7665726e6f723a2045544120546f6f2053686f7274000000000000000000604482015290519081900360640190fd5b6000868686868660405160200180866001600160a01b031681526020018581526020018060200180602001848152602001838103835286818151815260200191508051906020019080838360005b83811015610efd578181015183820152602001610ee5565b50505050905090810190601f168015610f2a5780820380516001836020036101000a031916815260200191505b50838103825285518152855160209182019187019080838360005b83811015610f5d578181015183820152602001610f45565b50505050905090810190601f168015610f8a5780820380516001836020036101000a031916815260200191505b5097505050505050505060405160208183030381529060405280519060200120905060016004600083815260200190815260200160002060006101000a81548160ff021916908315150217905550866001600160a01b0316817f76e2796dc3a81d57b0e8504b647febcbeeb5f4af818e164f11eef8131a6a763f88888888604051808581526020018060200180602001848152602001838103835286818151815260200191508051906020019080838360005b8381101561105557818101518382015260200161103d565b50505050905090810190601f1680156110825780820380516001836020036101000a031916815260200191505b50838103825285518152855160209182019187019080838360005b838110156110b557818101518382015260200161109d565b50505050905090810190601f1680156110e25780820380516001836020036101000a031916815260200191505b50965050505050505060405180910390a39695505050505050565b600061110761159d565b6001600160a01b031663481c6a756040518163ffffffff1660e01b815260040160206040518083038186803b15801561113f57600080fd5b505afa158015611153573d6000803e3d6000fd5b505050506040513d602081101561116957600080fd5b5051905090565b6001546001600160a01b031633146111c6576040805162461bcd60e51b815260206004820152601460248201527323b7bb32b93737b91d1027b7363c9020b236b4b760611b604482015290519081900360640190fd5b806001600160a01b0316638456cb596040518163ffffffff1660e01b8152600401600060405180830381600087803b158015610dbb57600080fd5b33301461124b576040805162461bcd60e51b815260206004820152601360248201527223b7bb32b93737b91d1027b7363c9029b2b63360691b604482015290519081900360640190fd5b600280546001600160a01b0319166001600160a01b0383811691909117918290556040519116907f69d78e38a01985fbb1462961809b4b2d65531bc93b2b94037f3334b82ca4a75690600090a250565b6001546001600160a01b031633146112f1576040805162461bcd60e51b815260206004820152601460248201527323b7bb32b93737b91d1027b7363c9020b236b4b760611b604482015290519081900360640190fd5b6000858585858560405160200180866001600160a01b031681526020018581526020018060200180602001848152602001838103835286818151815260200191508051906020019080838360005b8381101561135757818101518382015260200161133f565b50505050905090810190601f1680156113845780820380516001836020036101000a031916815260200191505b50838103825285518152855160209182019187019080838360005b838110156113b757818101518382015260200161139f565b50505050905090810190601f1680156113e45780820380516001836020036101000a031916815260200191505b5097505050505050505060405160208183030381529060405280519060200120905060006004600083815260200190815260200160002060006101000a81548160ff021916908315150217905550856001600160a01b0316817f2fffc091a501fd91bfbff27141450d3acb40fb8e6d8382b243ec7a812a3aaf8787878787604051808581526020018060200180602001848152602001838103835286818151815260200191508051906020019080838360005b838110156114af578181015183820152602001611497565b50505050905090810190601f1680156114dc5780820380516001836020036101000a031916815260200191505b50838103825285518152855160209182019187019080838360005b8381101561150f5781810151838201526020016114f7565b50505050905090810190601f16801561153c5780820380516001836020036101000a031916815260200191505b50965050505050505060405180910390a3505050505050565b600061155f61159d565b6001600160a01b0316635aa6e6756040518163ffffffff1660e01b815260040160206040518083038186803b15801561113f57600080fd5b60035481565b6000546001600160a01b031690565b62278d0081565b6001546001600160a01b03163314611609576040805162461bcd60e51b815260206004820152601460248201527323b7bb32b93737b91d1027b7363c9020b236b4b760611b604482015290519081900360640190fd5b6116116110fd565b6001600160a01b031663eb0dff66826040518263ffffffff1660e01b815260040180826001600160a01b03168152602001915050600060405180830381600087803b15801561165f57600080fd5b505af1158015611673573d6000803e3d6000fd5b50505050806001600160a01b0316638456cb596040518163ffffffff1660e01b8152600401600060405180830381600087803b158015610dbb57600080fd5b6116ba611555565b6001600160a01b0316336001600160a01b03161461171f576040805162461bcd60e51b815260206004820152601b60248201527f537562736372696265723a204f6e6c7920476f7665726e616e63650000000000604482015290519081900360640190fd5b61172881611963565b611779576040805162461bcd60e51b815260206004820152601c60248201527f537562736372696265723a20496e76616c696420526567697374727900000000604482015290519081900360640190fd5b600080546001600160a01b0319166001600160a01b03831617905561179c611555565b6001600160a01b0316336001600160a01b031614611801576040805162461bcd60e51b815260206004820152601a60248201527f537562736372696265723a2042616420476f7665726e616e6365000000000000604482015290519081900360640190fd5b50565b6202a30081565b6212750081565b33301461185c576040805162461bcd60e51b815260206004820152601360248201527223b7bb32b93737b91d1027b7363c9029b2b63360691b604482015290519081900360640190fd5b6202a3008110156118b4576040805162461bcd60e51b815260206004820152601760248201527f476f7665726e6f723a2044656c617920546f6f204c6f77000000000000000000604482015290519081900360640190fd5b62278d0081111561190c576040805162461bcd60e51b815260206004820152601860248201527f476f7665726e6f723a2044656c617920546f6f20486967680000000000000000604482015290519081900360640190fd5b600381905560405181907f948b1f6a42ee138b7e34058ba85a37f716d55ff25ff05a763f15bed6a04c8d2c90600090a250565b60046020526000908152604090205460ff1681565b6001546001600160a01b031681565b3b151590565b4290565b6000828201838110156119c7576040805162461bcd60e51b815260206004820152601b60248201527f536166654d6174683a206164646974696f6e206f766572666c6f770000000000604482015290519081900360640190fd5b9392505050565b60606119f4848484604051806060016040528060298152602001611c22602991396119fc565b949350505050565b606082471015611a3d5760405162461bcd60e51b8152600401808060200182810382526026815260200180611bfc6026913960400191505060405180910390fd5b611a4685611963565b611a97576040805162461bcd60e51b815260206004820152601d60248201527f416464726573733a2063616c6c20746f206e6f6e2d636f6e7472616374000000604482015290519081900360640190fd5b600080866001600160a01b031685876040518082805190602001908083835b60208310611ad55780518252601f199092019160209182019101611ab6565b6001836020036101000a03801982511681845116808217855250505050505090500191505060006040518083038185875af1925050503d8060008114611b37576040519150601f19603f3d011682016040523d82523d6000602084013e611b3c565b606091505b5091509150611b4c828286611b57565b979650505050505050565b60608315611b665750816119c7565b825115611b765782518084602001fd5b8160405162461bcd60e51b81526004018080602001828103825283818151815260200191508051906020019080838360005b83811015611bc0578181015183820152602001611ba8565b50505050905090810190601f168015611bed5780820380516001836020036101000a031916815260200191505b509250505060405180910390fdfe416464726573733a20696e73756666696369656e742062616c616e636520666f722063616c6c416464726573733a206c6f772d6c6576656c2063616c6c20776974682076616c7565206661696c6564a2646970667358221220e7c8346673e35f3770729f0eb10ef7639f512cde57992702e455e6451ded908164736f6c63430007060033",
  "devdoc": {
    "details": "Proposer-Executor RelationshipTransactions can be executed after the `delay` has passed",
    "kind": "dev",
    "methods": {
      "governance()": {
        "returns": {
          "_0": "The current Governance address"
        }
      },
      "manager()": {
        "returns": {
          "_0": "The current Manager address"
        }
      },
      "registry()": {
        "returns": {
          "_0": "The current Registry address"
        }
      },
      "setRegistry(address)": {
        "details": "Requires sender to be Governance of the new Registry to avoid bricking.Ideally should not be used",
        "params": {
          "registry_": "The new registry"
        }
      }
    },
    "title": "Oh! Finance Governor",
    "version": 1
  },
  "userdoc": {
    "kind": "user",
    "methods": {
      "MAXIMUM_DELAY()": {
        "notice": "Maximum time period transactions can be queued for"
      },
      "MINIMUM_DELAY()": {
        "notice": "Minimum time period transactions must be queued for"
      },
      "admin()": {
        "notice": "The Governor admin"
      },
      "delay()": {
        "notice": "Time delay before queued transactions can be executed"
      },
      "governance()": {
        "notice": "Get the Governance address"
      },
      "manager()": {
        "notice": "Get the Manager address"
      },
      "pendingAdmin()": {
        "notice": "The Governor admin pending acceptance"
      },
      "queuedTransactions(bytes32)": {
        "notice": "Transaction Queue of all successfull proposal actions"
      },
      "registry()": {
        "notice": "Get the Registry address"
      },
      "setRegistry(address)": {
        "notice": "Set the Registry for the contract. Only callable by Governance."
      }
    },
    "notice": "Executor Contract that queues up and executes on-chain transactions to modify the protocolQueued actions must come from a successful proposal",
    "version": 1
  },
  "storageLayout": {
    "storage": [
      {
        "astId": 12083,
        "contract": "contracts/governance/OhGovernor.sol:OhGovernor",
        "label": "_registry",
        "offset": 0,
        "slot": "0",
        "type": "t_address"
      },
      {
        "astId": 9211,
        "contract": "contracts/governance/OhGovernor.sol:OhGovernor",
        "label": "admin",
        "offset": 0,
        "slot": "1",
        "type": "t_address"
      },
      {
        "astId": 9214,
        "contract": "contracts/governance/OhGovernor.sol:OhGovernor",
        "label": "pendingAdmin",
        "offset": 0,
        "slot": "2",
        "type": "t_address"
      },
      {
        "astId": 9218,
        "contract": "contracts/governance/OhGovernor.sol:OhGovernor",
        "label": "delay",
        "offset": 0,
        "slot": "3",
        "type": "t_uint256"
      },
      {
        "astId": 9224,
        "contract": "contracts/governance/OhGovernor.sol:OhGovernor",
        "label": "queuedTransactions",
        "offset": 0,
        "slot": "4",
        "type": "t_mapping(t_bytes32,t_bool)"
      }
    ],
    "types": {
      "t_address": {
        "encoding": "inplace",
        "label": "address",
        "numberOfBytes": "20"
      },
      "t_bool": {
        "encoding": "inplace",
        "label": "bool",
        "numberOfBytes": "1"
      },
      "t_bytes32": {
        "encoding": "inplace",
        "label": "bytes32",
        "numberOfBytes": "32"
      },
      "t_mapping(t_bytes32,t_bool)": {
        "encoding": "mapping",
        "key": "t_bytes32",
        "label": "mapping(bytes32 => bool)",
        "numberOfBytes": "32",
        "value": "t_bool"
      },
      "t_uint256": {
        "encoding": "inplace",
        "label": "uint256",
        "numberOfBytes": "32"
      }
    }
  }
}