{
  "address": "0xf8C99aF1169023Ab0CB35D1510Be0f3Cd3789949",
  "abi": [
    {
      "inputs": [
        {
          "internalType": "address",
          "name": "registry_",
          "type": "address"
        },
        {
          "internalType": "address",
          "name": "token_",
          "type": "address"
        }
      ],
      "stateMutability": "nonpayable",
      "type": "constructor"
    },
    {
      "anonymous": false,
      "inputs": [
        {
          "indexed": true,
          "internalType": "address",
          "name": "bank",
          "type": "address"
        },
        {
          "indexed": true,
          "internalType": "address",
          "name": "strategy",
          "type": "address"
        },
        {
          "indexed": false,
          "internalType": "uint256",
          "name": "profitAmount",
          "type": "uint256"
        },
        {
          "indexed": false,
          "internalType": "uint256",
          "name": "buybackAmount",
          "type": "uint256"
        },
        {
          "indexed": false,
          "internalType": "uint256",
          "name": "managementAmount",
          "type": "uint256"
        }
      ],
      "name": "AccrueRevenue",
      "type": "event"
    },
    {
      "anonymous": false,
      "inputs": [
        {
          "indexed": true,
          "internalType": "address",
          "name": "from",
          "type": "address"
        },
        {
          "indexed": false,
          "internalType": "uint256",
          "name": "amount",
          "type": "uint256"
        },
        {
          "indexed": false,
          "internalType": "uint256",
          "name": "buybackAmount",
          "type": "uint256"
        }
      ],
      "name": "Buyback",
      "type": "event"
    },
    {
      "anonymous": false,
      "inputs": [
        {
          "indexed": true,
          "internalType": "address",
          "name": "bank",
          "type": "address"
        },
        {
          "indexed": true,
          "internalType": "address",
          "name": "strategy",
          "type": "address"
        }
      ],
      "name": "Finance",
      "type": "event"
    },
    {
      "anonymous": false,
      "inputs": [
        {
          "indexed": true,
          "internalType": "address",
          "name": "bank",
          "type": "address"
        }
      ],
      "name": "FinanceAll",
      "type": "event"
    },
    {
      "anonymous": false,
      "inputs": [
        {
          "indexed": true,
          "internalType": "address",
          "name": "bank",
          "type": "address"
        }
      ],
      "name": "Rebalance",
      "type": "event"
    },
    {
      "inputs": [],
      "name": "FEE_DENOMINATOR",
      "outputs": [
        {
          "internalType": "uint256",
          "name": "",
          "type": "uint256"
        }
      ],
      "stateMutability": "view",
      "type": "function"
    },
    {
      "inputs": [],
      "name": "MAX_BUYBACK_FEE",
      "outputs": [
        {
          "internalType": "uint256",
          "name": "",
          "type": "uint256"
        }
      ],
      "stateMutability": "view",
      "type": "function"
    },
    {
      "inputs": [],
      "name": "MAX_MANAGEMENT_FEE",
      "outputs": [
        {
          "internalType": "uint256",
          "name": "",
          "type": "uint256"
        }
      ],
      "stateMutability": "view",
      "type": "function"
    },
    {
      "inputs": [],
      "name": "MIN_BUYBACK_FEE",
      "outputs": [
        {
          "internalType": "uint256",
          "name": "",
          "type": "uint256"
        }
      ],
      "stateMutability": "view",
      "type": "function"
    },
    {
      "inputs": [],
      "name": "MIN_MANAGEMENT_FEE",
      "outputs": [
        {
          "internalType": "uint256",
          "name": "",
          "type": "uint256"
        }
      ],
      "stateMutability": "view",
      "type": "function"
    },
    {
      "inputs": [
        {
          "internalType": "address",
          "name": "bank",
          "type": "address"
        },
        {
          "internalType": "address",
          "name": "underlying",
          "type": "address"
        },
        {
          "internalType": "uint256",
          "name": "amount",
          "type": "uint256"
        }
      ],
      "name": "accrueRevenue",
      "outputs": [],
      "stateMutability": "nonpayable",
      "type": "function"
    },
    {
      "inputs": [
        {
          "internalType": "uint256",
          "name": "i",
          "type": "uint256"
        }
      ],
      "name": "banks",
      "outputs": [
        {
          "internalType": "address",
          "name": "",
          "type": "address"
        }
      ],
      "stateMutability": "view",
      "type": "function"
    },
    {
      "inputs": [
        {
          "internalType": "address",
          "name": "from",
          "type": "address"
        }
      ],
      "name": "buyback",
      "outputs": [],
      "stateMutability": "nonpayable",
      "type": "function"
    },
    {
      "inputs": [],
      "name": "buybackFee",
      "outputs": [
        {
          "internalType": "uint256",
          "name": "",
          "type": "uint256"
        }
      ],
      "stateMutability": "view",
      "type": "function"
    },
    {
      "inputs": [
        {
          "internalType": "address",
          "name": "",
          "type": "address"
        }
      ],
      "name": "delays",
      "outputs": [
        {
          "internalType": "uint256",
          "name": "",
          "type": "uint256"
        }
      ],
      "stateMutability": "view",
      "type": "function"
    },
    {
      "inputs": [
        {
          "internalType": "address",
          "name": "bank",
          "type": "address"
        },
        {
          "internalType": "address",
          "name": "strategy",
          "type": "address"
        }
      ],
      "name": "exit",
      "outputs": [],
      "stateMutability": "nonpayable",
      "type": "function"
    },
    {
      "inputs": [
        {
          "internalType": "address",
          "name": "bank",
          "type": "address"
        }
      ],
      "name": "exitAll",
      "outputs": [],
      "stateMutability": "nonpayable",
      "type": "function"
    },
    {
      "inputs": [
        {
          "internalType": "address",
          "name": "bank",
          "type": "address"
        }
      ],
      "name": "finance",
      "outputs": [],
      "stateMutability": "nonpayable",
      "type": "function"
    },
    {
      "inputs": [
        {
          "internalType": "address",
          "name": "bank",
          "type": "address"
        }
      ],
      "name": "financeAll",
      "outputs": [],
      "stateMutability": "nonpayable",
      "type": "function"
    },
    {
      "inputs": [],
      "name": "governance",
      "outputs": [
        {
          "internalType": "address",
          "name": "",
          "type": "address"
        }
      ],
      "stateMutability": "view",
      "type": "function"
    },
    {
      "inputs": [
        {
          "internalType": "address",
          "name": "",
          "type": "address"
        },
        {
          "internalType": "address",
          "name": "",
          "type": "address"
        }
      ],
      "name": "liquidators",
      "outputs": [
        {
          "internalType": "address",
          "name": "",
          "type": "address"
        }
      ],
      "stateMutability": "view",
      "type": "function"
    },
    {
      "inputs": [],
      "name": "managementFee",
      "outputs": [
        {
          "internalType": "uint256",
          "name": "",
          "type": "uint256"
        }
      ],
      "stateMutability": "view",
      "type": "function"
    },
    {
      "inputs": [],
      "name": "manager",
      "outputs": [
        {
          "internalType": "address",
          "name": "",
          "type": "address"
        }
      ],
      "stateMutability": "view",
      "type": "function"
    },
    {
      "inputs": [
        {
          "internalType": "address",
          "name": "bank",
          "type": "address"
        }
      ],
      "name": "rebalance",
      "outputs": [],
      "stateMutability": "nonpayable",
      "type": "function"
    },
    {
      "inputs": [],
      "name": "registry",
      "outputs": [
        {
          "internalType": "address",
          "name": "",
          "type": "address"
        }
      ],
      "stateMutability": "view",
      "type": "function"
    },
    {
      "inputs": [
        {
          "internalType": "address",
          "name": "_bank",
          "type": "address"
        },
        {
          "internalType": "bool",
          "name": "_approved",
          "type": "bool"
        }
      ],
      "name": "setBank",
      "outputs": [],
      "stateMutability": "nonpayable",
      "type": "function"
    },
    {
      "inputs": [
        {
          "internalType": "uint256",
          "name": "_buybackFee",
          "type": "uint256"
        }
      ],
      "name": "setBuybackFee",
      "outputs": [],
      "stateMutability": "nonpayable",
      "type": "function"
    },
    {
      "inputs": [
        {
          "internalType": "address",
          "name": "_liquidator",
          "type": "address"
        },
        {
          "internalType": "address",
          "name": "_from",
          "type": "address"
        },
        {
          "internalType": "address",
          "name": "_to",
          "type": "address"
        }
      ],
      "name": "setLiquidator",
      "outputs": [],
      "stateMutability": "nonpayable",
      "type": "function"
    },
    {
      "inputs": [
        {
          "internalType": "uint256",
          "name": "_managementFee",
          "type": "uint256"
        }
      ],
      "name": "setManagementFee",
      "outputs": [],
      "stateMutability": "nonpayable",
      "type": "function"
    },
    {
      "inputs": [
        {
          "internalType": "address",
          "name": "registry_",
          "type": "address"
        }
      ],
      "name": "setRegistry",
      "outputs": [],
      "stateMutability": "nonpayable",
      "type": "function"
    },
    {
      "inputs": [
        {
          "internalType": "address",
          "name": "_bank",
          "type": "address"
        },
        {
          "internalType": "address",
          "name": "_strategy",
          "type": "address"
        },
        {
          "internalType": "bool",
          "name": "_approved",
          "type": "bool"
        }
      ],
      "name": "setStrategy",
      "outputs": [],
      "stateMutability": "nonpayable",
      "type": "function"
    },
    {
      "inputs": [
        {
          "internalType": "address",
          "name": "_contract",
          "type": "address"
        },
        {
          "internalType": "bool",
          "name": "_whitelisted",
          "type": "bool"
        }
      ],
      "name": "setWhitelisted",
      "outputs": [],
      "stateMutability": "nonpayable",
      "type": "function"
    },
    {
      "inputs": [
        {
          "internalType": "uint256",
          "name": "i",
          "type": "uint256"
        }
      ],
      "name": "setWithdrawIndex",
      "outputs": [],
      "stateMutability": "nonpayable",
      "type": "function"
    },
    {
      "inputs": [
        {
          "internalType": "address",
          "name": "bank",
          "type": "address"
        },
        {
          "internalType": "uint256",
          "name": "i",
          "type": "uint256"
        }
      ],
      "name": "strategies",
      "outputs": [
        {
          "internalType": "address",
          "name": "",
          "type": "address"
        }
      ],
      "stateMutability": "view",
      "type": "function"
    },
    {
      "inputs": [],
      "name": "token",
      "outputs": [
        {
          "internalType": "address",
          "name": "",
          "type": "address"
        }
      ],
      "stateMutability": "view",
      "type": "function"
    },
    {
      "inputs": [],
      "name": "totalBanks",
      "outputs": [
        {
          "internalType": "uint256",
          "name": "",
          "type": "uint256"
        }
      ],
      "stateMutability": "view",
      "type": "function"
    },
    {
      "inputs": [
        {
          "internalType": "address",
          "name": "bank",
          "type": "address"
        }
      ],
      "name": "totalStrategies",
      "outputs": [
        {
          "internalType": "uint256",
          "name": "",
          "type": "uint256"
        }
      ],
      "stateMutability": "view",
      "type": "function"
    },
    {
      "inputs": [
        {
          "internalType": "address",
          "name": "",
          "type": "address"
        }
      ],
      "name": "whitelisted",
      "outputs": [
        {
          "internalType": "bool",
          "name": "",
          "type": "bool"
        }
      ],
      "stateMutability": "view",
      "type": "function"
    },
    {
      "inputs": [
        {
          "internalType": "address",
          "name": "bank",
          "type": "address"
        }
      ],
      "name": "withdrawIndex",
      "outputs": [
        {
          "internalType": "uint256",
          "name": "",
          "type": "uint256"
        }
      ],
      "stateMutability": "view",
      "type": "function"
    }
  ],
  "transactionHash": "0x1ce0f3f385eb61f9ed1d13c64b5a08b617bd1fbcdcb01f23e6645cdb6ba6bd01",
  "args": [
    "0x2bA8E99Fedc439da742F023D43b224E3d28eDf5e",
    "0x6b461A994d76d8248a6B439D4a19cDfd821409eE"
  ],
  "solcInputHash": "d58997e03a516940f0827c0bee3c7f29",
  "bytecode": "0x60806040523480156200001157600080fd5b506040516200272538038062002725833981810160405260408110156200003757600080fd5b508051602091820151909182906200005a90829062001e2c620000ec821b17901c565b620000ac576040805162461bcd60e51b815260206004820152601c60248201527f537562736372696265723a20496e76616c696420526567697374727900000000604482015290519081900360640190fd5b600080546001600160a01b039283166001600160a01b031991821617909155600180549390921692169190911790555060c86002556014600355620000f2565b3b151590565b61262380620001026000396000f3fe608060405234801561001057600080fd5b50600436106102055760003560e01c8063a1b827231161011a578063d73792a9116100ad578063f697a0361161007c578063f697a03614610581578063fb3e6f29146105a7578063fc0c546a146105cd578063fd263390146105d5578063fe56e2321461060357610205565b8063d73792a914610511578063d936547e14610519578063eb0dff6614610553578063f01cc0a61461057957610205565b8063aa4fbf4a116100e9578063aa4fbf4a14610485578063b19c0aa3146104bd578063bae7c80d146104e3578063d36b59371461050957610205565b8063a1b8272314610421578063a625403a14610429578063a6f7f5d614610457578063a91ee0dc1461045f57610205565b80635aa6e6751161019d5780637b1039991161016c5780637b10399914610391578063921c86d2146103995780639281aa0b146103c75780639908840c146103895780639f8f3244146103f557610205565b80635aa6e67514610323578063606b473a1461032b5780636ed77343146103515780637140f2e81461038957610205565b80633b2d081c116101d95780633b2d081c146102c05780634567bfba146102c8578063481c6a75146102e557806348930428146102ed57610205565b806285ae2b1461020a5780630666fa47146102435780630e3da0b81461027b57806321c281911461029a575b600080fd5b6102276004803603602081101561022057600080fd5b5035610620565b604080516001600160a01b039092168252519081900360200190f35b6102696004803603602081101561025957600080fd5b50356001600160a01b0316610633565b60408051918252519081900360200190f35b6102986004803603602081101561029157600080fd5b5035610645565b005b610298600480360360208110156102b057600080fd5b50356001600160a01b03166106bb565b610269610978565b610298600480360360208110156102de57600080fd5b503561097e565b610227610a89565b6102986004803603606081101561030357600080fd5b506001600160a01b03813581169160208101359091169060400135610afc565b610227610c37565b6102986004803603602081101561034157600080fd5b50356001600160a01b0316610c79565b6102986004803603606081101561036757600080fd5b506001600160a01b038135811691602081013582169160409091013516610f6b565b61026961105d565b610227611062565b610227600480360360408110156103af57600080fd5b506001600160a01b0381358116916020013516611071565b610298600480360360408110156103dd57600080fd5b506001600160a01b0381351690602001351515611097565b6102276004803603604081101561040b57600080fd5b506001600160a01b038135169060200135611179565b6102696111a2565b6102986004803603604081101561043f57600080fd5b506001600160a01b03813581169160200135166111a8565b61026961126e565b6102986004803603602081101561047557600080fd5b50356001600160a01b0316611274565b6102986004803603606081101561049b57600080fd5b506001600160a01b0381358116916020810135909116906040013515156113b4565b610269600480360360208110156104d357600080fd5b50356001600160a01b0316611557565b610298600480360360208110156104f957600080fd5b50356001600160a01b0316611578565b61026961182f565b610269611834565b61053f6004803603602081101561052f57600080fd5b50356001600160a01b031661183a565b604080519115158252519081900360200190f35b6102986004803603602081101561056957600080fd5b50356001600160a01b031661184f565b610269611968565b6102696004803603602081101561059757600080fd5b50356001600160a01b0316611979565b610298600480360360208110156105bd57600080fd5b50356001600160a01b0316611997565b610227611bdc565b610298600480360360408110156105eb57600080fd5b506001600160a01b0381351690602001351515611beb565b6102986004803603602081101561061957600080fd5b5035611d29565b600061062d600683611e32565b92915050565b600b6020526000908152604090205481565b33610651600682611e3e565b610697576040805162461bcd60e51b81526020600482015260126024820152714d616e616765723a204f6e6c792042616e6b60701b604482015290519081900360640190fd5b50336000908152600a60205260409020805460ff191660ff92909216919091179055565b333214806106d857503360009081526005602052604090205460ff165b610717576040805162461bcd60e51b815260206004820152601e60248201526000805160206125a4833981519152604482015290519081900360640190fd5b80610723600682611e3e565b610769576040805162461bcd60e51b81526020600482015260126024820152714d616e616765723a204f6e6c792042616e6b60701b604482015290519081900360640190fd5b6001600160a01b038216600090815260086020526040812061078a90611e53565b905060005b81811015610822576001600160a01b038416600081815260086020526040902063eb0dff66906107bf9084611e32565b6040518263ffffffff1660e01b815260040180826001600160a01b03168152602001915050600060405180830381600087803b1580156107fe57600080fd5b505af1158015610812573d6000803e3d6000fd5b50506001909201915061078f9050565b506000836001600160a01b03166359356c5c6040518163ffffffff1660e01b815260040160206040518083038186803b15801561085e57600080fd5b505afa158015610872573d6000803e3d6000fd5b505050506040513d602081101561088857600080fd5b5051905060005b8281101561093d5760008383816108a257fe5b6001600160a01b03881660008181526008602052604090209290910492509063b9b8c246906108d19085611e32565b836040518363ffffffff1660e01b815260040180836001600160a01b0316815260200182815260200192505050600060405180830381600087803b15801561091857600080fd5b505af115801561092c573d6000803e3d6000fd5b50506001909301925061088f915050565b506040516001600160a01b038516907fa61bd16ebda9d1c8ec2a61970b39e6640e55ed8433a22765a1b5217b72c4a81290600090a250505050565b60025481565b610986610c37565b6001600160a01b0316336001600160a01b0316146109d9576040805162461bcd60e51b815260206004820152601b6024820152600080516020612563833981519152604482015290519081900360640190fd5b60648111610a2e576040805162461bcd60e51b815260206004820152601960248201527f52656769737472793a20496e76616c6964204275796261636b00000000000000604482015290519081900360640190fd5b6101f48110610a84576040805162461bcd60e51b815260206004820152601a60248201527f52656769737472793a204275796261636b20546f6f2048696768000000000000604482015290519081900360640190fd5b600255565b6000610a93611062565b6001600160a01b031663481c6a756040518163ffffffff1660e01b815260040160206040518083038186803b158015610acb57600080fd5b505afa158015610adf573d6000803e3d6000fd5b505050506040513d6020811015610af557600080fd5b5051905090565b6001600160a01b038316600090815260086020526040902083903390610b229082611e3e565b610b6c576040805162461bcd60e51b81526020600482015260166024820152754d616e616765723a204f6e6c7920537472617465677960501b604482015290519081900360640190fd5b6000610b8f6103e8610b8960025487611e5e90919063ffffffff16565b90611eb7565b90506000610bae6103e8610b8960035488611e5e90919063ffffffff16565b90506000610bc682610bc08886611f1e565b90611f1e565b9050610bd3328884611f7b565b50610bdf338883611f7b565b506040805182815260208101859052808201849052905133916001600160a01b038b16917faa199a16983a8f166eb461939bd1b0bd1881e692fa38dbb98bd89c856052cd849181900360600190a35050505050505050565b6000610c41611062565b6001600160a01b0316635aa6e6756040518163ffffffff1660e01b815260040160206040518083038186803b158015610acb57600080fd5b33321480610c9657503360009081526005602052604090205460ff165b610cd5576040805162461bcd60e51b815260206004820152601e60248201526000805160206125a4833981519152604482015290519081900360640190fd5b80610ce1600682611e3e565b610d27576040805162461bcd60e51b81526020600482015260126024820152714d616e616765723a204f6e6c792042616e6b60701b604482015290519081900360640190fd5b6001600160a01b0382166000908152600860205260408120610d4890611e53565b905060008111610d98576040805162461bcd60e51b81526020600482015260166024820152754d616e616765723a204e6f205374726174656769657360501b604482015290519081900360640190fd5b6001600160a01b0383166000908152600b60205260409020544211610e04576040805162461bcd60e51b815260206004820152601c60248201527f4d616e616765723a2044656c6179204e6f742053617469736669656400000000604482015290519081900360640190fd5b6000836001600160a01b03166359356c5c6040518163ffffffff1660e01b815260040160206040518083038186803b158015610e3f57600080fd5b505afa158015610e53573d6000803e3d6000fd5b505050506040513d6020811015610e6957600080fd5b5051905060005b82811015610f1e576000838381610e8357fe5b6001600160a01b03881660008181526008602052604090209290910492509063b9b8c24690610eb29085611e32565b836040518363ffffffff1660e01b815260040180836001600160a01b0316815260200182815260200192505050600060405180830381600087803b158015610ef957600080fd5b505af1158015610f0d573d6000803e3d6000fd5b505060019093019250610e70915050565b506001600160a01b0384166000818152600b60205260408082206201518042019055517fb888c73f8596c5d056c9c67c35e5ed784af064b3112cd851b2b860f9c2b6ccc99190a250505050565b610f73610c37565b6001600160a01b0316336001600160a01b031614610fc6576040805162461bcd60e51b815260206004820152601b6024820152600080516020612563833981519152604482015290519081900360640190fd5b610fd8836001600160a01b0316611e2c565b611021576040805162461bcd60e51b815260206004820152601560248201527413585b9859d95c8e88139bdd0810dbdb9d1c9858dd605a1b604482015290519081900360640190fd5b6001600160a01b0391821660009081526004602090815260408083209385168352929052208054919092166001600160a01b0319909116179055565b606481565b6000546001600160a01b031690565b60046020908152600092835260408084209091529082529020546001600160a01b031681565b61109f610c37565b6001600160a01b0316336001600160a01b0316146110f2576040805162461bcd60e51b815260206004820152601b6024820152600080516020612563833981519152604482015290519081900360640190fd5b611104826001600160a01b0316611e2c565b61114e576040805162461bcd60e51b8152602060048201526016602482015275149959da5cdd1c9e4e88139bdd0810dbdb9d1c9858dd60521b604482015290519081900360640190fd5b6001600160a01b03919091166000908152600560205260409020805460ff1916911515919091179055565b6001600160a01b038216600090815260086020526040812061119b9083611e32565b9392505050565b6101f481565b6111b0610c37565b6001600160a01b0316336001600160a01b031614611203576040805162461bcd60e51b815260206004820152601b6024820152600080516020612563833981519152604482015290519081900360640190fd5b816001600160a01b031663eb0dff66826040518263ffffffff1660e01b815260040180826001600160a01b03168152602001915050600060405180830381600087803b15801561125257600080fd5b505af1158015611266573d6000803e3d6000fd5b505050505050565b60035481565b61127c610c37565b6001600160a01b0316336001600160a01b0316146112cf576040805162461bcd60e51b815260206004820152601b6024820152600080516020612563833981519152604482015290519081900360640190fd5b6112d881611e2c565b611329576040805162461bcd60e51b815260206004820152601c60248201527f537562736372696265723a20496e76616c696420526567697374727900000000604482015290519081900360640190fd5b600080546001600160a01b0319166001600160a01b03831617905561134c610c37565b6001600160a01b0316336001600160a01b0316146113b1576040805162461bcd60e51b815260206004820152601a60248201527f537562736372696265723a2042616420476f7665726e616e6365000000000000604482015290519081900360640190fd5b50565b6113bc610c37565b6001600160a01b0316336001600160a01b03161461140f576040805162461bcd60e51b815260206004820152601b6024820152600080516020612563833981519152604482015290519081900360640190fd5b611421826001600160a01b0316611e2c565b801561143a575061143a836001600160a01b0316611e2c565b611483576040805162461bcd60e51b815260206004820152601560248201527413585b9859d95c8e88139bdd0810dbdb9d1c9858dd605a1b604482015290519081900360640190fd5b6001600160a01b03831660009081526008602052604081206114a59084611e3e565b905081151581151514156114f5576040805162461bcd60e51b81526020600482015260126024820152714d616e616765723a204e6f204368616e676560701b604482015290519081900360640190fd5b801561152d5761150584846111a8565b6001600160a01b03841660009081526008602052604090206115279084612047565b50611551565b6001600160a01b038416600090815260086020526040902061154f908461205c565b505b50505050565b6001600160a01b038116600090815260086020526040812061062d90611e53565b3332148061159557503360009081526005602052604090205460ff165b6115d4576040805162461bcd60e51b815260206004820152601e60248201526000805160206125a4833981519152604482015290519081900360640190fd5b806115e0600682611e3e565b611626576040805162461bcd60e51b81526020600482015260126024820152714d616e616765723a204f6e6c792042616e6b60701b604482015290519081900360640190fd5b6001600160a01b038216600090815260086020526040812061164790611e53565b905060008111611697576040805162461bcd60e51b81526020600482015260166024820152754d616e616765723a204e6f205374726174656769657360501b604482015290519081900360640190fd5b6001600160a01b0383166000908152600b60205260409020544211611703576040805162461bcd60e51b815260206004820152601c60248201527f4d616e616765723a2044656c6179204e6f742053617469736669656400000000604482015290519081900360640190fd5b6001600160a01b03831660009081526009602052604081205460ff168281101561172f57809150611734565b600091505b6001600160a01b03851660009081526008602052604081206117599060ff8516611e32565b9050856001600160a01b031663753842db826040518263ffffffff1660e01b815260040180826001600160a01b03168152602001915050600060405180830381600087803b1580156117aa57600080fd5b505af11580156117be573d6000803e3d6000fd5b505050506001600160a01b038681166000818152600960209081526040808320805460ff191660018a0160ff16179055600b909152808220426201518001905551928416927fffdb70e99f7f3262c2641a400deab1ad02aa7c2a59e0be6a116e71867296b20b9190a3505050505050565b600081565b6103e881565b60056020526000908152604090205460ff1681565b611857610c37565b6001600160a01b0316336001600160a01b0316146118aa576040805162461bcd60e51b815260206004820152601b6024820152600080516020612563833981519152604482015290519081900360640190fd5b6001600160a01b03811660009081526008602052604081206118cb90611e53565b905060005b81811015611963576001600160a01b038316600081815260086020526040902063eb0dff66906119009084611e32565b6040518263ffffffff1660e01b815260040180826001600160a01b03168152602001915050600060405180830381600087803b15801561193f57600080fd5b505af1158015611953573d6000803e3d6000fd5b5050600190920191506118d09050565b505050565b60006119746006611e53565b905090565b6001600160a01b03166000908152600a602052604090205460ff1690565b333214806119b457503360009081526005602052604090205460ff165b6119f3576040805162461bcd60e51b815260206004820152601e60248201526000805160206125a4833981519152604482015290519081900360640190fd5b6001546001600160a01b0382811660008181526004602081815260408084209686168085529682528084205481516370a0823160e01b8152309481019490945290519516949293926370a08231926024808201939291829003018186803b158015611a5d57600080fd5b505afa158015611a71573d6000803e3d6000fd5b505050506040513d6020811015611a8757600080fd5b50519050611a96828583611f7b565b5060408051636f70e66f60e01b81523060048201526001600160a01b038681166024830152858116604483015260648201849052600160848301529151600092851691636f70e66f9160a480830192602092919082900301818787803b158015611aff57600080fd5b505af1158015611b13573d6000803e3d6000fd5b505050506040513d6020811015611b2957600080fd5b505160408051630852cd8d60e31b81526004810183905290519192506001600160a01b038616916342966c689160248082019260009290919082900301818387803b158015611b7757600080fd5b505af1158015611b8b573d6000803e3d6000fd5b5050604080518581526020810185905281516001600160a01b038a1694507f2dcc2439519c7d06fca9f8ae01e07f4f3c6ca21b5cdf8eff42cb75cf34d223c993509081900390910190a25050505050565b6001546001600160a01b031681565b611bf3610c37565b6001600160a01b0316336001600160a01b031614611c46576040805162461bcd60e51b815260206004820152601b6024820152600080516020612563833981519152604482015290519081900360640190fd5b611c58826001600160a01b0316611e2c565b611ca1576040805162461bcd60e51b815260206004820152601560248201527413585b9859d95c8e88139bdd0810dbdb9d1c9858dd605a1b604482015290519081900360640190fd5b6000611cae600684611e3e565b90508115158115151415611cfe576040805162461bcd60e51b81526020600482015260126024820152714d616e616765723a204e6f204368616e676560701b604482015290519081900360640190fd5b8015611d1e57611d0d8361184f565b611d18600684612047565b50611963565b61155160068461205c565b611d31610c37565b6001600160a01b0316336001600160a01b031614611d84576040805162461bcd60e51b815260206004820152601b6024820152600080516020612563833981519152604482015290519081900360640190fd5b60008111611dd2576040805162461bcd60e51b8152602060048201526016602482015275149959da5cdd1c9e4e88125b9d985b1a59081359db5d60521b604482015290519081900360640190fd5b60648110611e27576040805162461bcd60e51b815260206004820152601760248201527f52656769737472793a204d676d7420546f6f2048696768000000000000000000604482015290519081900360640190fd5b600355565b3b151590565b600061119b8383612071565b600061119b836001600160a01b0384166120d5565b600061062d826120ed565b600082611e6d5750600061062d565b82820282848281611e7a57fe5b041461119b5760405162461bcd60e51b81526004018080602001828103825260218152602001806125836021913960400191505060405180910390fd5b6000808211611f0d576040805162461bcd60e51b815260206004820152601a60248201527f536166654d6174683a206469766973696f6e206279207a65726f000000000000604482015290519081900360640190fd5b818381611f1657fe5b049392505050565b600082821115611f75576040805162461bcd60e51b815260206004820152601e60248201527f536166654d6174683a207375627472616374696f6e206f766572666c6f770000604482015290519081900360640190fd5b50900390565b600081611f8a5750600061119b565b6000836001600160a01b03166370a08231306040518263ffffffff1660e01b815260040180826001600160a01b0316815260200191505060206040518083038186803b158015611fd957600080fd5b505afa158015611fed573d6000803e3d6000fd5b505050506040513d602081101561200357600080fd5b505190508281101561202a576120236001600160a01b03851686836120f1565b905061119b565b61203e6001600160a01b03851686856120f1565b50909392505050565b600061119b836001600160a01b038416612143565b600061119b836001600160a01b038416612209565b815460009082106120b35760405162461bcd60e51b815260040180806020018281038252602281526020018061251b6022913960400191505060405180910390fd5b8260000182815481106120c257fe5b9060005260206000200154905092915050565b60009081526001919091016020526040902054151590565b5490565b604080516001600160a01b038416602482015260448082018490528251808303909101815260649091019091526020810180516001600160e01b031663a9059cbb60e01b179052611963908490612253565b600081815260018301602052604081205480156121ff578354600019808301919081019060009087908390811061217657fe5b906000526020600020015490508087600001848154811061219357fe5b6000918252602080832090910192909255828152600189810190925260409020908401905586548790806121c357fe5b6001900381819060005260206000200160009055905586600101600087815260200190815260200160002060009055600194505050505061062d565b600091505061062d565b600061221583836120d5565b61224b5750815460018181018455600084815260208082209093018490558454848252828601909352604090209190915561062d565b50600061062d565b60006122a8826040518060400160405280602081526020017f5361666545524332303a206c6f772d6c6576656c2063616c6c206661696c6564815250856001600160a01b03166123049092919063ffffffff16565b805190915015611963578080602001905160208110156122c757600080fd5b50516119635760405162461bcd60e51b815260040180806020018281038252602a8152602001806125c4602a913960400191505060405180910390fd5b6060612313848460008561231b565b949350505050565b60608247101561235c5760405162461bcd60e51b815260040180806020018281038252602681526020018061253d6026913960400191505060405180910390fd5b61236585611e2c565b6123b6576040805162461bcd60e51b815260206004820152601d60248201527f416464726573733a2063616c6c20746f206e6f6e2d636f6e7472616374000000604482015290519081900360640190fd5b600080866001600160a01b031685876040518082805190602001908083835b602083106123f45780518252601f1990920191602091820191016123d5565b6001836020036101000a03801982511681845116808217855250505050505090500191505060006040518083038185875af1925050503d8060008114612456576040519150601f19603f3d011682016040523d82523d6000602084013e61245b565b606091505b509150915061246b828286612476565b979650505050505050565b6060831561248557508161119b565b8251156124955782518084602001fd5b8160405162461bcd60e51b81526004018080602001828103825283818151815260200191508051906020019080838360005b838110156124df5781810151838201526020016124c7565b50505050905090810190601f16801561250c5780820380516001836020036101000a031916815260200191505b509250505060405180910390fdfe456e756d657261626c655365743a20696e646578206f7574206f6620626f756e6473416464726573733a20696e73756666696369656e742062616c616e636520666f722063616c6c537562736372696265723a204f6e6c7920476f7665726e616e63650000000000536166654d6174683a206d756c7469706c69636174696f6e206f766572666c6f774d616e616765723a204f6e6c7920454f41206f722057686974656c69737400005361666545524332303a204552433230206f7065726174696f6e20646964206e6f742073756363656564a2646970667358221220d2f244323b59f52ea9601a1077777d69d487f0fa5fed8dec423621daae976d2964736f6c63430007060033",
  "devdoc": {
    "details": "This contract is used as the main control point for executing strategies",
    "kind": "dev",
    "methods": {
      "accrueRevenue(address,address,uint256)": {
        "details": "Only callable by approved Strategies",
        "params": {
          "amount": "The total amount of profit received from liquidation",
          "bank": "The address of the Bank which uses the Strategy"
        }
      },
      "buyback(address)": {
        "details": "Burns all proceeds",
        "params": {
          "from": "The address of the token to liquidate for Oh! Tokens"
        }
      },
      "constructor": {
        "details": "Sets initial buyback and management fee parameters",
        "params": {
          "registry_": "The address of the registry",
          "token_": "The address of the Oh! Token"
        }
      },
      "exit(address,address)": {
        "params": {
          "bank": "The bank that will be used to exit the strategy",
          "strategy": "The strategy to be exited"
        }
      },
      "exitAll(address)": {
        "params": {
          "bank": "The bank that will be used to exit the strategy"
        }
      },
      "finance(address)": {
        "details": "Only allow this function to be called on approved Banks",
        "params": {
          "bank": "The address of the Bank to finance"
        }
      },
      "financeAll(address)": {
        "details": "Deposit queue not needed here as all Strategies are equally invested inOnly allow this function to be called on approved Banks",
        "params": {
          "bank": "The address of the Bank to finance"
        }
      },
      "governance()": {
        "returns": {
          "_0": "The current Governance address"
        }
      },
      "manager()": {
        "returns": {
          "_0": "The current Manager address"
        }
      },
      "rebalance(address)": {
        "params": {
          "bank": "The bank to rebalance"
        }
      },
      "registry()": {
        "returns": {
          "_0": "The current Registry address"
        }
      },
      "setBank(address,bool)": {
        "details": "Only Governance can call this function",
        "params": {
          "_approved": "the approval status of the bank",
          "_bank": "the bank to be approved/unapproved"
        }
      },
      "setBuybackFee(uint256)": {
        "details": "Only Governance; base 1000, 1% = 10",
        "params": {
          "_buybackFee": "The new buyback fee"
        }
      },
      "setLiquidator(address,address,address)": {
        "details": "Only Governance can call this function",
        "params": {
          "_from": "the token we have to liquidate",
          "_liquidator": "the liquidator contract",
          "_to": "the token we want to receive"
        }
      },
      "setManagementFee(uint256)": {
        "details": "Only Governance; base 1000, 1% = 10",
        "params": {
          "_managementFee": "The new management fee"
        }
      },
      "setRegistry(address)": {
        "details": "Requires sender to be Governance of the new Registry to avoid bricking.Ideally should not be used",
        "params": {
          "registry_": "The new registry"
        }
      },
      "setStrategy(address,address,bool)": {
        "details": "Only Governance can call this function",
        "params": {
          "_approved": "the approval status of the Strategy",
          "_bank": "the bank which uses the strategy",
          "_strategy": "the strategy to be approved/unapproved"
        }
      },
      "setWhitelisted(address,bool)": {
        "details": "Only Governance can call this function",
        "params": {
          "_contract": "the strategy contract",
          "_whitelisted": "the whitelisted status of the strategy"
        }
      },
      "setWithdrawIndex(uint256)": {
        "params": {
          "i": "The "
        }
      },
      "strategies(address,uint256)": {
        "params": {
          "bank": "The address of the Bank that contains the Strategy",
          "i": "The Bank queue index to check"
        }
      },
      "totalStrategies(address)": {
        "params": {
          "bank": "The Bank we are checking"
        },
        "returns": {
          "_0": "Amount of active strategies"
        }
      },
      "withdrawIndex(address)": {
        "params": {
          "bank": "The Bank to check the next Strategy for"
        },
        "returns": {
          "_0": "The index of the Strategy"
        }
      }
    },
    "stateVariables": {
      "_banks": {
        "details": "The set of Banks approved for investing"
      },
      "_depositQueue": {
        "details": "The mapping of Banks to next Strategy index it will deposit to"
      },
      "_strategies": {
        "details": "The mapping of Banks to active Strategies"
      },
      "_withdrawQueue": {
        "details": "The mapping of Banks to next Strategy index it will withdraw from"
      },
      "delays": {
        "details": "The mapping of Banks to delay status"
      }
    },
    "title": "Oh! Finance Manager",
    "version": 1
  },
  "userdoc": {
    "events": {
      "AccrueRevenue(address,address,uint256,uint256,uint256)": {
        "notice": "Emitted when a Bank realizes profit via liquidation "
      },
      "Buyback(address,uint256,uint256)": {
        "notice": "Emitted when a buyback is performed with an amount of from tokens"
      },
      "Finance(address,address)": {
        "notice": "Emitted when a Bank's capital is invested in a single Strategy "
      },
      "FinanceAll(address)": {
        "notice": "Emitted when a Bank's capital is invested in all Strategies"
      },
      "Rebalance(address)": {
        "notice": "Emitted when a Bank's capital is rebalanced"
      }
    },
    "kind": "user",
    "methods": {
      "FEE_DENOMINATOR()": {
        "notice": "Denominator for calculating protocol fees"
      },
      "MAX_BUYBACK_FEE()": {
        "notice": "Maximum buyback fee, 50%"
      },
      "MAX_MANAGEMENT_FEE()": {
        "notice": "Maximum management fee, 10%"
      },
      "MIN_BUYBACK_FEE()": {
        "notice": "Minimum buyback fee, 10%"
      },
      "MIN_MANAGEMENT_FEE()": {
        "notice": "Minimum management fee, 0%"
      },
      "accrueRevenue(address,address,uint256)": {
        "notice": "Accrue revenue from a Strategy"
      },
      "banks(uint256)": {
        "notice": "Get the Bank"
      },
      "buyback(address)": {
        "notice": "Perform a token buyback with accrued revenue"
      },
      "buybackFee()": {
        "notice": "The amount of profits reserved for protocol buybacks, base 1000"
      },
      "constructor": {
        "notice": "Deploy the Manager with the Registry reference"
      },
      "exit(address,address)": {
        "notice": "Exit a given strategy for a given bank"
      },
      "exitAll(address)": {
        "notice": "Exit from all strategies for a given bank"
      },
      "finance(address)": {
        "notice": "Finance the next Strategy in the Bank queue with all available underlying"
      },
      "financeAll(address)": {
        "notice": "Evenly finance underlying to all strategies"
      },
      "governance()": {
        "notice": "Get the Governance address"
      },
      "liquidators(address,address)": {
        "notice": "The mapping of `from` token to `to` token to liquidator contract"
      },
      "managementFee()": {
        "notice": "The amount of profits reserved for fund management, base 1000"
      },
      "manager()": {
        "notice": "Get the Manager address"
      },
      "rebalance(address)": {
        "notice": "Rebalance Bank exposure by withdrawing all, then evenly distributing underlying to all strategies"
      },
      "registry()": {
        "notice": "Get the Registry address"
      },
      "setBank(address,bool)": {
        "notice": "Adds or removes a Bank for investment"
      },
      "setBuybackFee(uint256)": {
        "notice": "Sets the protocol buyback percentage (Profit Share)"
      },
      "setLiquidator(address,address,address)": {
        "notice": "Sets the Liquidator contract for a given token"
      },
      "setManagementFee(uint256)": {
        "notice": "Sets the protocol management fee percentage"
      },
      "setRegistry(address)": {
        "notice": "Set the Registry for the contract. Only callable by Governance."
      },
      "setStrategy(address,address,bool)": {
        "notice": "Adds or removes a Strategy for a given Bank"
      },
      "setWhitelisted(address,bool)": {
        "notice": "Whitelists strategy for Bank use/management"
      },
      "setWithdrawIndex(uint256)": {
        "notice": "Set the withdrawal index"
      },
      "strategies(address,uint256)": {
        "notice": "Get the Strategy at a given index for a given Bank"
      },
      "token()": {
        "notice": "The address of the Oh! Finance Token"
      },
      "totalStrategies(address)": {
        "notice": "Get total number of strategies for a given bank"
      },
      "whitelisted(address)": {
        "notice": "The mapping of contracts that are whitelisted for Bank use/management"
      },
      "withdrawIndex(address)": {
        "notice": "Get the index of the Strategy to withdraw from for a given Bank"
      }
    },
    "notice": "The Manager contains references to all active banks, strategies, and liquidation contracts.",
    "version": 1
  },
  "storageLayout": {
    "storage": [
      {
        "astId": 12083,
        "contract": "contracts/manager/OhManager.sol:OhManager",
        "label": "_registry",
        "offset": 0,
        "slot": "0",
        "type": "t_address"
      },
      {
        "astId": 10752,
        "contract": "contracts/manager/OhManager.sol:OhManager",
        "label": "token",
        "offset": 0,
        "slot": "1",
        "type": "t_address"
      },
      {
        "astId": 10756,
        "contract": "contracts/manager/OhManager.sol:OhManager",
        "label": "buybackFee",
        "offset": 0,
        "slot": "2",
        "type": "t_uint256"
      },
      {
        "astId": 10760,
        "contract": "contracts/manager/OhManager.sol:OhManager",
        "label": "managementFee",
        "offset": 0,
        "slot": "3",
        "type": "t_uint256"
      },
      {
        "astId": 10768,
        "contract": "contracts/manager/OhManager.sol:OhManager",
        "label": "liquidators",
        "offset": 0,
        "slot": "4",
        "type": "t_mapping(t_address,t_mapping(t_address,t_address))"
      },
      {
        "astId": 10774,
        "contract": "contracts/manager/OhManager.sol:OhManager",
        "label": "whitelisted",
        "offset": 0,
        "slot": "5",
        "type": "t_mapping(t_address,t_bool)"
      },
      {
        "astId": 10777,
        "contract": "contracts/manager/OhManager.sol:OhManager",
        "label": "_banks",
        "offset": 0,
        "slot": "6",
        "type": "t_struct(AddressSet)4311_storage"
      },
      {
        "astId": 10782,
        "contract": "contracts/manager/OhManager.sol:OhManager",
        "label": "_strategies",
        "offset": 0,
        "slot": "8",
        "type": "t_mapping(t_address,t_struct(AddressSet)4311_storage)"
      },
      {
        "astId": 10787,
        "contract": "contracts/manager/OhManager.sol:OhManager",
        "label": "_depositQueue",
        "offset": 0,
        "slot": "9",
        "type": "t_mapping(t_address,t_uint8)"
      },
      {
        "astId": 10792,
        "contract": "contracts/manager/OhManager.sol:OhManager",
        "label": "_withdrawQueue",
        "offset": 0,
        "slot": "10",
        "type": "t_mapping(t_address,t_uint8)"
      },
      {
        "astId": 10797,
        "contract": "contracts/manager/OhManager.sol:OhManager",
        "label": "delays",
        "offset": 0,
        "slot": "11",
        "type": "t_mapping(t_address,t_uint256)"
      }
    ],
    "types": {
      "t_address": {
        "encoding": "inplace",
        "label": "address",
        "numberOfBytes": "20"
      },
      "t_array(t_bytes32)dyn_storage": {
        "base": "t_bytes32",
        "encoding": "dynamic_array",
        "label": "bytes32[]",
        "numberOfBytes": "32"
      },
      "t_bool": {
        "encoding": "inplace",
        "label": "bool",
        "numberOfBytes": "1"
      },
      "t_bytes32": {
        "encoding": "inplace",
        "label": "bytes32",
        "numberOfBytes": "32"
      },
      "t_mapping(t_address,t_address)": {
        "encoding": "mapping",
        "key": "t_address",
        "label": "mapping(address => address)",
        "numberOfBytes": "32",
        "value": "t_address"
      },
      "t_mapping(t_address,t_bool)": {
        "encoding": "mapping",
        "key": "t_address",
        "label": "mapping(address => bool)",
        "numberOfBytes": "32",
        "value": "t_bool"
      },
      "t_mapping(t_address,t_mapping(t_address,t_address))": {
        "encoding": "mapping",
        "key": "t_address",
        "label": "mapping(address => mapping(address => address))",
        "numberOfBytes": "32",
        "value": "t_mapping(t_address,t_address)"
      },
      "t_mapping(t_address,t_struct(AddressSet)4311_storage)": {
        "encoding": "mapping",
        "key": "t_address",
        "label": "mapping(address => struct EnumerableSet.AddressSet)",
        "numberOfBytes": "32",
        "value": "t_struct(AddressSet)4311_storage"
      },
      "t_mapping(t_address,t_uint256)": {
        "encoding": "mapping",
        "key": "t_address",
        "label": "mapping(address => uint256)",
        "numberOfBytes": "32",
        "value": "t_uint256"
      },
      "t_mapping(t_address,t_uint8)": {
        "encoding": "mapping",
        "key": "t_address",
        "label": "mapping(address => uint8)",
        "numberOfBytes": "32",
        "value": "t_uint8"
      },
      "t_mapping(t_bytes32,t_uint256)": {
        "encoding": "mapping",
        "key": "t_bytes32",
        "label": "mapping(bytes32 => uint256)",
        "numberOfBytes": "32",
        "value": "t_uint256"
      },
      "t_struct(AddressSet)4311_storage": {
        "encoding": "inplace",
        "label": "struct EnumerableSet.AddressSet",
        "members": [
          {
            "astId": 4310,
            "contract": "contracts/manager/OhManager.sol:OhManager",
            "label": "_inner",
            "offset": 0,
            "slot": "0",
            "type": "t_struct(Set)4046_storage"
          }
        ],
        "numberOfBytes": "64"
      },
      "t_struct(Set)4046_storage": {
        "encoding": "inplace",
        "label": "struct EnumerableSet.Set",
        "members": [
          {
            "astId": 4041,
            "contract": "contracts/manager/OhManager.sol:OhManager",
            "label": "_values",
            "offset": 0,
            "slot": "0",
            "type": "t_array(t_bytes32)dyn_storage"
          },
          {
            "astId": 4045,
            "contract": "contracts/manager/OhManager.sol:OhManager",
            "label": "_indexes",
            "offset": 0,
            "slot": "1",
            "type": "t_mapping(t_bytes32,t_uint256)"
          }
        ],
        "numberOfBytes": "64"
      },
      "t_uint256": {
        "encoding": "inplace",
        "label": "uint256",
        "numberOfBytes": "32"
      },
      "t_uint8": {
        "encoding": "inplace",
        "label": "uint8",
        "numberOfBytes": "1"
      }
    }
  }
}