{
  "address": "0x2bA8E99Fedc439da742F023D43b224E3d28eDf5e",
  "abi": [
    {
      "inputs": [],
      "stateMutability": "nonpayable",
      "type": "constructor"
    },
    {
      "anonymous": false,
      "inputs": [
        {
          "indexed": true,
          "internalType": "address",
          "name": "oldGovernance",
          "type": "address"
        },
        {
          "indexed": true,
          "internalType": "address",
          "name": "newGovernance",
          "type": "address"
        }
      ],
      "name": "GovernanceUpdated",
      "type": "event"
    },
    {
      "anonymous": false,
      "inputs": [
        {
          "indexed": true,
          "internalType": "address",
          "name": "oldManager",
          "type": "address"
        },
        {
          "indexed": true,
          "internalType": "address",
          "name": "newManager",
          "type": "address"
        }
      ],
      "name": "ManagerUpdated",
      "type": "event"
    },
    {
      "inputs": [],
      "name": "governance",
      "outputs": [
        {
          "internalType": "address",
          "name": "",
          "type": "address"
        }
      ],
      "stateMutability": "view",
      "type": "function"
    },
    {
      "inputs": [],
      "name": "manager",
      "outputs": [
        {
          "internalType": "address",
          "name": "",
          "type": "address"
        }
      ],
      "stateMutability": "view",
      "type": "function"
    },
    {
      "inputs": [
        {
          "internalType": "address",
          "name": "_governance",
          "type": "address"
        }
      ],
      "name": "setGovernance",
      "outputs": [],
      "stateMutability": "nonpayable",
      "type": "function"
    },
    {
      "inputs": [
        {
          "internalType": "address",
          "name": "_manager",
          "type": "address"
        }
      ],
      "name": "setManager",
      "outputs": [],
      "stateMutability": "nonpayable",
      "type": "function"
    }
  ],
  "transactionHash": "0x8088a1ebfe13e9c36c5be836aff12dc6f3686c02f7f28327adfce72afaaf562f",
  "args": [],
  "solcInputHash": "d58997e03a516940f0827c0bee3c7f29",
  "bytecode": "0x608060405234801561001057600080fd5b50600080546001600160a01b03191633179055610358806100326000396000f3fe608060405234801561001057600080fd5b506004361061004c5760003560e01c8063481c6a75146100515780635aa6e67514610075578063ab033ea91461007d578063d0ebdbe7146100a5575b600080fd5b6100596100cb565b604080516001600160a01b039092168252519081900360200190f35b6100596100da565b6100a36004803603602081101561009357600080fd5b50356001600160a01b03166100e9565b005b6100a3600480360360208110156100bb57600080fd5b50356001600160a01b0316610202565b6001546001600160a01b031681565b6000546001600160a01b031681565b6000546001600160a01b03163314610144576040805162461bcd60e51b815260206004820152601960248201527852656769737472793a204f6e6c7920476f7665726e616e636560381b604482015290519081900360640190fd5b610156816001600160a01b031661031c565b6101a7576040805162461bcd60e51b815260206004820152601c60248201527f52656769737472793a20496e76616c696420476f7665726e616e636500000000604482015290519081900360640190fd5b600080546040516001600160a01b03808516939216917f434a2db650703b36c824e745330d6397cdaa9ee2cc891a4938ae853e1c50b68d91a3600080546001600160a01b0319166001600160a01b0392909216919091179055565b6000546001600160a01b0316331461025d576040805162461bcd60e51b815260206004820152601960248201527852656769737472793a204f6e6c7920476f7665726e616e636560381b604482015290519081900360640190fd5b61026f816001600160a01b031661031c565b6102c0576040805162461bcd60e51b815260206004820152601960248201527f52656769737472793a20496e76616c6964204d616e6167657200000000000000604482015290519081900360640190fd5b6001546040516001600160a01b038084169216907fdac3632743b879638fd2d51c4d3c1dd796615b4758a55b50b0c19b971ba9fbc790600090a3600180546001600160a01b0319166001600160a01b0392909216919091179055565b3b15159056fea26469706673582212205886e344bace162ca3096b0534626e29a8f5864b8cb444dec559633df0e59d2e64736f6c63430007060033",
  "devdoc": {
    "details": "Contract that contains references to the all core contracts for Oh! FinanceIdeally, we should never need to replace this contract. Only update references.",
    "kind": "dev",
    "methods": {
      "setGovernance(address)": {
        "details": "Only Governance can call this function",
        "params": {
          "_governance": "the new governance address"
        }
      },
      "setManager(address)": {
        "details": "Only Governance can call this function",
        "params": {
          "_manager": "the new manager address"
        }
      }
    },
    "title": "Oh! Finance Registry",
    "version": 1
  },
  "userdoc": {
    "kind": "user",
    "methods": {
      "governance()": {
        "notice": "address of governance contract"
      },
      "manager()": {
        "notice": "address of the management contract"
      },
      "setGovernance(address)": {
        "notice": "Sets the Governance address"
      },
      "setManager(address)": {
        "notice": "Sets the Manager address"
      }
    },
    "version": 1
  },
  "storageLayout": {
    "storage": [
      {
        "astId": 11982,
        "contract": "contracts/registry/OhRegistry.sol:OhRegistry",
        "label": "governance",
        "offset": 0,
        "slot": "0",
        "type": "t_address"
      },
      {
        "astId": 11986,
        "contract": "contracts/registry/OhRegistry.sol:OhRegistry",
        "label": "manager",
        "offset": 0,
        "slot": "1",
        "type": "t_address"
      }
    ],
    "types": {
      "t_address": {
        "encoding": "inplace",
        "label": "address",
        "numberOfBytes": "20"
      }
    }
  }
}